{
  "contractName": "CBDC_Dapps",
  "abi": [
    {
      "inputs": [],
      "stateMutability": "nonpayable",
      "type": "constructor"
    },
    {
      "anonymous": false,
      "inputs": [
        {
          "indexed": true,
          "internalType": "address",
          "name": "buyer",
          "type": "address"
        },
        {
          "indexed": true,
          "internalType": "address",
          "name": "seller",
          "type": "address"
        },
        {
          "indexed": true,
          "internalType": "address",
          "name": "SBN",
          "type": "address"
        },
        {
          "indexed": false,
          "internalType": "uint256",
          "name": "sbnAmount",
          "type": "uint256"
        },
        {
          "indexed": false,
          "internalType": "uint256",
          "name": "rupeeAmount",
          "type": "uint256"
        },
        {
          "indexed": false,
          "internalType": "uint256",
          "name": "expired_date",
          "type": "uint256"
        },
        {
          "indexed": false,
          "internalType": "contract Request",
          "name": "requestAddress",
          "type": "address"
        }
      ],
      "name": "NewRequest",
      "type": "event"
    },
    {
      "inputs": [],
      "name": "CentralBankAddress",
      "outputs": [
        {
          "internalType": "address",
          "name": "",
          "type": "address"
        }
      ],
      "stateMutability": "view",
      "type": "function",
      "constant": true
    },
    {
      "inputs": [
        {
          "internalType": "address",
          "name": "",
          "type": "address"
        }
      ],
      "name": "addressToParticipant",
      "outputs": [
        {
          "internalType": "address",
          "name": "account",
          "type": "address"
        },
        {
          "internalType": "string",
          "name": "name",
          "type": "string"
        },
        {
          "internalType": "enum ParticipantStatus",
          "name": "status",
          "type": "uint8"
        }
      ],
      "stateMutability": "view",
      "type": "function",
      "constant": true
    },
    {
      "inputs": [],
      "name": "digitalRupee",
      "outputs": [
        {
          "internalType": "contract DigitalRupee",
          "name": "",
          "type": "address"
        }
      ],
      "stateMutability": "view",
      "type": "function",
      "constant": true
    },
    {
      "inputs": [
        {
          "internalType": "uint256",
          "name": "",
          "type": "uint256"
        }
      ],
      "name": "participantAddresses",
      "outputs": [
        {
          "internalType": "address",
          "name": "",
          "type": "address"
        }
      ],
      "stateMutability": "view",
      "type": "function",
      "constant": true
    },
    {
      "inputs": [
        {
          "internalType": "uint256",
          "name": "",
          "type": "uint256"
        }
      ],
      "name": "sbnAddresses",
      "outputs": [
        {
          "internalType": "contract SBN",
          "name": "",
          "type": "address"
        }
      ],
      "stateMutability": "view",
      "type": "function",
      "constant": true
    },
    {
      "inputs": [],
      "name": "createDigitalRupee",
      "outputs": [],
      "stateMutability": "nonpayable",
      "type": "function"
    },
    {
      "inputs": [
        {
          "internalType": "address",
          "name": "_address",
          "type": "address"
        },
        {
          "internalType": "string",
          "name": "_name",
          "type": "string"
        }
      ],
      "name": "addParticipant",
      "outputs": [],
      "stateMutability": "nonpayable",
      "type": "function"
    },
    {
      "inputs": [
        {
          "internalType": "address",
          "name": "_address",
          "type": "address"
        },
        {
          "internalType": "string",
          "name": "_name",
          "type": "string"
        },
        {
          "internalType": "enum ParticipantStatus",
          "name": "_status",
          "type": "uint8"
        }
      ],
      "name": "editParticipant",
      "outputs": [],
      "stateMutability": "nonpayable",
      "type": "function"
    },
    {
      "inputs": [
        {
          "internalType": "uint256",
          "name": "_index",
          "type": "uint256"
        }
      ],
      "name": "removeParticipant",
      "outputs": [],
      "stateMutability": "nonpayable",
      "type": "function"
    },
    {
      "inputs": [
        {
          "internalType": "address",
          "name": "_address",
          "type": "address"
        }
      ],
      "name": "getParticipant",
      "outputs": [
        {
          "components": [
            {
              "internalType": "address",
              "name": "account",
              "type": "address"
            },
            {
              "internalType": "string",
              "name": "name",
              "type": "string"
            },
            {
              "internalType": "enum ParticipantStatus",
              "name": "status",
              "type": "uint8"
            }
          ],
          "internalType": "struct Participant",
          "name": "",
          "type": "tuple"
        }
      ],
      "stateMutability": "view",
      "type": "function",
      "constant": true
    },
    {
      "inputs": [],
      "name": "getAllParticipantAddresses",
      "outputs": [
        {
          "internalType": "address[]",
          "name": "",
          "type": "address[]"
        }
      ],
      "stateMutability": "view",
      "type": "function",
      "constant": true
    },
    {
      "inputs": [
        {
          "internalType": "string",
          "name": "_name",
          "type": "string"
        },
        {
          "internalType": "string",
          "name": "_symbol",
          "type": "string"
        },
        {
          "internalType": "uint256",
          "name": "_initialUnitPrice",
          "type": "uint256"
        },
        {
          "internalType": "uint256",
          "name": "_releasedDate",
          "type": "uint256"
        },
        {
          "internalType": "uint256",
          "name": "_maturityDate",
          "type": "uint256"
        }
      ],
      "name": "createSBN",
      "outputs": [],
      "stateMutability": "nonpayable",
      "type": "function"
    },
    {
      "inputs": [],
      "name": "getSbnAddresses",
      "outputs": [
        {
          "internalType": "contract SBN[]",
          "name": "",
          "type": "address[]"
        }
      ],
      "stateMutability": "view",
      "type": "function",
      "constant": true
    },
    {
      "inputs": [
        {
          "internalType": "address",
          "name": "_SBN",
          "type": "address"
        },
        {
          "internalType": "address",
          "name": "_buyer",
          "type": "address"
        },
        {
          "internalType": "uint256",
          "name": "_sbnAmount",
          "type": "uint256"
        },
        {
          "internalType": "uint256",
          "name": "_rupeeAmount",
          "type": "uint256"
        },
        {
          "internalType": "uint256",
          "name": "_expiredDate",
          "type": "uint256"
        }
      ],
      "name": "createSellRequest",
      "outputs": [],
      "stateMutability": "nonpayable",
      "type": "function"
    }
  ],
  "bytecode": "0x60a06040523480156200001157600080fd5b5033608081905260408051808201909152600c81526b43656e7472616c2042616e6b60a01b60208201526200004791906200004d565b6200030d565b6080516001600160a01b0316336001600160a01b031614620000a95760405162461bcd60e51b815260206004820152601060248201526f4e6f742043656e7472616c2042616e6b60801b60448201526064015b60405180910390fd5b6001600160a01b0382166000908152600260208190526040822081015460ff1690811115620000dc57620000dc620002ba565b146200013f5760405162461bcd60e51b815260206004820152602b60248201527f7061727469636970616e7420616c72656164792065786973742c20757365206560448201526a191a5d081a5b9cdd19585960aa1b6064820152608401620000a0565b604080516060810182526001600160a01b0384811680835260208084018681526001858701819052805480820182557fb10e2d527612073b26eecdfd717e6a320cf44b4afac2b0732d9fcbe2b7fa0cf60180546001600160a01b03199081168617909155600094855260028452969093208551815495169490961693909317855591518051939485949093620001da93850192019062000214565b5060408201518160020160006101000a81548160ff02191690836002811115620002085762000208620002ba565b02179055505050505050565b8280546200022290620002d0565b90600052602060002090601f01602090048101928262000246576000855562000291565b82601f106200026157805160ff191683800117855562000291565b8280016001018555821562000291579182015b828111156200029157825182559160200191906001019062000274565b506200029f929150620002a3565b5090565b5b808211156200029f5760008155600101620002a4565b634e487b7160e01b600052602160045260246000fd5b600181811c90821680620002e557607f821691505b602082108114156200030757634e487b7160e01b600052602260045260246000fd5b50919050565b6080516147ec6200035a60003960008181610152015281816103d8015281816107360152818161077801528181610819015281816109cf01528181610a130152610ad901526147ec6000f3fe60806040523480156200001157600080fd5b5060043610620000fd5760003560e01c8063810fcf6f1162000097578063b68feb84116200006e578063b68feb841462000222578063bebe18d31462000239578063d4bd4fa81462000250578063d71bfd5c146200026757600080fd5b8063810fcf6f14620001ed57806392d2661314620001f7578063ad92226b146200020e57600080fd5b806354ffbddb11620000d857806354ffbddb146200018d578063683f7f2714620001a45780636881143114620001bd5780637143059f14620001c757600080fd5b806318f78e2d1462000102578063341b92461462000124578063346104b9146200014c575b600080fd5b6200010c6200027e565b6040516200011b919062000f6e565b60405180910390f35b6200013b6200013536600462000fda565b620002e2565b6040516200011b9392919062001088565b620001747f000000000000000000000000000000000000000000000000000000000000000081565b6040516001600160a01b0390911681526020016200011b565b620001746200019e366004620010c7565b620003a2565b620001bb620001b5366004620010c7565b620003cd565b005b6200010c620005b4565b620001de620001d836600462000fda565b62000616565b6040516200011b9190620010e1565b620001bb6200072b565b6200017462000208366004620010c7565b620007fd565b60005462000174906001600160a01b031681565b620001bb62000233366004620011da565b6200080e565b620001bb6200024a3660046200122e565b620009c4565b620001bb62000261366004620012b4565b62000ace565b620001bb6200027836600462001321565b62000c11565b60606003805480602002602001604051908101604052809291908181526020018280548015620002d857602002820191906000526020600020905b81546001600160a01b03168152600190910190602001808311620002b9575b5050505050905090565b600260205260009081526040902080546001820180546001600160a01b039092169291620003109062001373565b80601f01602080910402602001604051908101604052809291908181526020018280546200033e9062001373565b80156200038f5780601f1062000363576101008083540402835291602001916200038f565b820191906000526020600020905b8154815290600101906020018083116200037157829003601f168201915b5050506002909301549192505060ff1683565b60018181548110620003b357600080fd5b6000918252602090912001546001600160a01b0316905081565b336001600160a01b037f00000000000000000000000000000000000000000000000000000000000000001614620004215760405162461bcd60e51b81526004016200041890620013b0565b60405180910390fd5b6001548110620004695760405162461bcd60e51b81526020600482015260126024820152711a5b99195e081bdd5d081bd988189bdd5b9960721b604482015260640162000418565b600060018281548110620004815762000481620013da565b60009182526020808320909101546001600160a01b031680835260029091526040822080546001600160a01b031916815590925090620004c5600183018262000e1f565b50600201805460ff19169055815b60018054620004e3919062001406565b81101562000579576001620004f9828262001420565b815481106200050c576200050c620013da565b600091825260209091200154600180546001600160a01b0390921691839081106200053b576200053b620013da565b600091825260209091200180546001600160a01b0319166001600160a01b03929092169190911790558062000570816200143b565b915050620004d3565b5060018054806200058e576200058e62001459565b600082815260209020810160001990810180546001600160a01b03191690550190555050565b60606001805480602002602001604051908101604052809291908181526020018280548015620002d8576020028201919060005260206000209081546001600160a01b03168152600190910190602001808311620002b9575050505050905090565b6200062062000e61565b6001600160a01b038083166000908152600260209081526040918290208251606081019093528054909316825260018301805492939291840191620006659062001373565b80601f0160208091040260200160405190810160405280929190818152602001828054620006939062001373565b8015620006e45780601f10620006b857610100808354040283529160200191620006e4565b820191906000526020600020905b815481529060010190602001808311620006c657829003601f168201915b505050918352505060028281015460209092019160ff16908111156200070e576200070e6200104f565b60028111156200072257620007226200104f565b90525092915050565b336001600160a01b037f00000000000000000000000000000000000000000000000000000000000000001614620007765760405162461bcd60e51b81526004016200041890620013b0565b7f000000000000000000000000000000000000000000000000000000000000000030604051620007a69062000e9e565b6001600160a01b03928316815291166020820152604001604051809103906000f080158015620007da573d6000803e3d6000fd5b50600080546001600160a01b0319166001600160a01b0392909216919091179055565b60038181548110620003b357600080fd5b336001600160a01b037f00000000000000000000000000000000000000000000000000000000000000001614620008595760405162461bcd60e51b81526004016200041890620013b0565b6001600160a01b0382166000908152600260208190526040822081015460ff16908111156200088c576200088c6200104f565b14620008ef5760405162461bcd60e51b815260206004820152602b60248201527f7061727469636970616e7420616c72656164792065786973742c20757365206560448201526a191a5d081a5b9cdd19585960aa1b606482015260840162000418565b604080516060810182526001600160a01b0384811680835260208084018681526001858701819052805480820182557fb10e2d527612073b26eecdfd717e6a320cf44b4afac2b0732d9fcbe2b7fa0cf60180546001600160a01b031990811686179091556000948552600284529690932085518154951694909616939093178555915180519394859490936200098a93850192019062000eac565b5060408201518160020160006101000a81548160ff02191690836002811115620009b857620009b86200104f565b02179055505050505050565b336001600160a01b037f0000000000000000000000000000000000000000000000000000000000000000161462000a0f5760405162461bcd60e51b81526004016200041890620013b0565b60007f000000000000000000000000000000000000000000000000000000000000000086868686863060405162000a469062000f3b565b62000a5897969594939291906200146f565b604051809103906000f08015801562000a75573d6000803e3d6000fd5b50600380546001810182556000919091527fc2575a0e9e593c00f959f8c92f12db2869c3395a3b0502d05e2516446f71f85b0180546001600160a01b0319166001600160a01b0392909216919091179055505050505050565b336001600160a01b037f0000000000000000000000000000000000000000000000000000000000000000161462000b195760405162461bcd60e51b81526004016200041890620013b0565b600081600281111562000b305762000b306200104f565b141562000b965760405162461bcd60e51b815260206004820152602d60248201527f746f2064656c657465207061727469636970616e742c207573652072656d6f7660448201526c19481c185c9d1a58da5c185b9d609a1b606482015260840162000418565b6001600160a01b038316600090815260026020819052604090912081018054839260ff1990911690600190849081111562000bd55762000bd56200104f565b02179055506001600160a01b0383166000908152600260209081526040909120835162000c0b9260019092019185019062000eac565b50505050565b600133600090815260026020819052604090912081015460ff169081111562000c3e5762000c3e6200104f565b1462000c995760405162461bcd60e51b815260206004820152602360248201527f63616c6c6572206973206e6f7420616e20616374697665207061727469636970604482015262185b9d60ea1b606482015260840162000418565b60016001600160a01b038516600090815260026020819052604090912081015460ff169081111562000ccf5762000ccf6200104f565b1462000d295760405162461bcd60e51b815260206004820152602260248201527f6275796572206973206e6f7420616e20616374697665207061727469636970616044820152611b9d60f21b606482015260840162000418565b600080546040516001600160a01b039091169133918390889087908b9086908b908a9062000d579062000f49565b6001600160a01b039788168152958716602087015260408601949094529185166060850152909316608083015260a082019290925260c081019190915260e001604051809103906000f08015801562000db4573d6000803e3d6000fd5b5060408051888152602081018890529081018690526001600160a01b038083166060830152919250818a169184811691908a16907f57819e282ab51e28252f45d789b32fb18cd5ceb00b6b1338b3575657cdbfaa0c9060800160405180910390a45050505050505050565b50805462000e2d9062001373565b6000825580601f1062000e3e575050565b601f01602090049060005260206000209081019062000e5e919062000f57565b50565b604051806060016040528060006001600160a01b03168152602001606081526020016000600281111562000e995762000e996200104f565b905290565b61129780620014d283390190565b82805462000eba9062001373565b90600052602060002090601f01602090048101928262000ede576000855562000f29565b82601f1062000ef957805160ff191683800117855562000f29565b8280016001018555821562000f29579182015b8281111562000f2957825182559160200191906001019062000f0c565b5062000f3792915062000f57565b5090565b61157f806200276983390190565b610acf8062003ce883390190565b5b8082111562000f37576000815560010162000f58565b6020808252825182820181905260009190848201906040850190845b8181101562000fb15783516001600160a01b03168352928401929184019160010162000f8a565b50909695505050505050565b80356001600160a01b038116811462000fd557600080fd5b919050565b60006020828403121562000fed57600080fd5b62000ff88262000fbd565b9392505050565b6000815180845260005b81811015620010275760208185018101518683018201520162001009565b818111156200103a576000602083870101525b50601f01601f19169290920160200192915050565b634e487b7160e01b600052602160045260246000fd5b600381106200108457634e487b7160e01b600052602160045260246000fd5b9052565b6001600160a01b0384168152606060208201819052600090620010ae9083018562000fff565b9050620010bf604083018462001065565b949350505050565b600060208284031215620010da57600080fd5b5035919050565b602080825282516001600160a01b0316828201528201516060604083015260009062001111608084018262000fff565b9050604084015162001127606085018262001065565b509392505050565b634e487b7160e01b600052604160045260246000fd5b600082601f8301126200115757600080fd5b813567ffffffffffffffff808211156200117557620011756200112f565b604051601f8301601f19908116603f01168101908282118183101715620011a057620011a06200112f565b81604052838152866020858801011115620011ba57600080fd5b836020870160208301376000602085830101528094505050505092915050565b60008060408385031215620011ee57600080fd5b620011f98362000fbd565b9150602083013567ffffffffffffffff8111156200121657600080fd5b620012248582860162001145565b9150509250929050565b600080600080600060a086880312156200124757600080fd5b853567ffffffffffffffff808211156200126057600080fd5b6200126e89838a0162001145565b965060208801359150808211156200128557600080fd5b50620012948882890162001145565b959895975050505060408401359360608101359360809091013592509050565b600080600060608486031215620012ca57600080fd5b620012d58462000fbd565b9250602084013567ffffffffffffffff811115620012f257600080fd5b620013008682870162001145565b9250506040840135600381106200131657600080fd5b809150509250925092565b600080600080600060a086880312156200133a57600080fd5b620013458662000fbd565b9450620013556020870162000fbd565b94979496505050506040830135926060810135926080909101359150565b600181811c908216806200138857607f821691505b60208210811415620013aa57634e487b7160e01b600052602260045260246000fd5b50919050565b60208082526010908201526f4e6f742043656e7472616c2042616e6b60801b604082015260600190565b634e487b7160e01b600052603260045260246000fd5b634e487b7160e01b600052601160045260246000fd5b6000828210156200141b576200141b620013f0565b500390565b60008219821115620014365762001436620013f0565b500190565b6000600019821415620014525762001452620013f0565b5060010190565b634e487b7160e01b600052603160045260246000fd5b600060018060a01b03808a16835260e060208401526200149360e084018a62000fff565b8381036040850152620014a7818a62000fff565b9250508660608401528560808401528460a084015280841660c0840152509897505050505050505056fe60806040523480156200001157600080fd5b506040516200129738038062001297833981016040819052620000349162000197565b604080518082018252600d81526c4469676974616c20527570656560981b6020808301918252835180850190945260048452632224a72960e11b9084015281519192916200008591600391620000d4565b5080516200009b906004906020840190620000d4565b5050600580546001600160a01b039485166001600160a01b0319918216179091556006805493909416921691909117909155506200020c565b828054620000e290620001cf565b90600052602060002090601f01602090048101928262000106576000855562000151565b82601f106200012157805160ff191683800117855562000151565b8280016001018555821562000151579182015b828111156200015157825182559160200191906001019062000134565b506200015f92915062000163565b5090565b5b808211156200015f576000815560010162000164565b80516001600160a01b03811681146200019257600080fd5b919050565b60008060408385031215620001ab57600080fd5b620001b6836200017a565b9150620001c6602084016200017a565b90509250929050565b600181811c90821680620001e457607f821691505b602082108114156200020657634e487b7160e01b600052602260045260246000fd5b50919050565b61107b806200021c6000396000f3fe608060405234801561001057600080fd5b50600436106100ea5760003560e01c806342966c681161008c578063a457c2d711610066578063a457c2d7146101d0578063a9059cbb146101e3578063db006a75146101f6578063dd62ed3e1461020957600080fd5b806342966c681461018c57806370a082311461019f57806395d89b41146101c857600080fd5b806323b872dd116100c857806323b872dd14610142578063313ce56714610155578063395093511461016457806340c10f191461017757600080fd5b806306fdde03146100ef578063095ea7b31461010d57806318160ddd14610130575b600080fd5b6100f7610242565b6040516101049190610c42565b60405180910390f35b61012061011b366004610c8a565b6102d4565b6040519015158152602001610104565b6002545b604051908152602001610104565b610120610150366004610cb6565b610318565b60405160128152602001610104565b610120610172366004610c8a565b6103fe565b61018a610185366004610c8a565b61043a565b005b61018a61019a366004610cf7565b6104be565b6101346101ad366004610d10565b6001600160a01b031660009081526020819052604090205490565b6100f76104ff565b6101206101de366004610c8a565b61050e565b6101206101f1366004610c8a565b6105a7565b61018a610204366004610cf7565b6105fe565b610134610217366004610d34565b6001600160a01b03918216600090815260016020908152604080832093909416825291909152205490565b60606003805461025190610d6d565b80601f016020809104026020016040519081016040528092919081815260200182805461027d90610d6d565b80156102ca5780601f1061029f576101008083540402835291602001916102ca565b820191906000526020600020905b8154815290600101906020018083116102ad57829003601f168201915b5050505050905090565b60006102df33610664565b6103045760405162461bcd60e51b81526004016102fb90610da8565b60405180910390fd5b61030f3384846106fc565b50600192915050565b6000806103258533610217565b9050600019811461039e57828110156103915760405162461bcd60e51b815260206004820152602860248201527f45524332303a207472616e7366657220616d6f756e74206578636565647320616044820152676c6c6f77616e636560c01b60648201526084016102fb565b61039e85338584036106fc565b6103a785610664565b6103c35760405162461bcd60e51b81526004016102fb90610da8565b6103cc84610664565b6103e85760405162461bcd60e51b81526004016102fb90610df0565b6103f3858585610821565b506001949350505050565b3360008181526001602090815260408083206001600160a01b0387168452909152812054909161030f918590610435908690610e50565b6106fc565b6005546001600160a01b0316336001600160a01b03161461046d5760405162461bcd60e51b81526004016102fb90610e68565b61047782826109f1565b816001600160a01b03167f9cb9c14f7bc76e3a89b796b091850526236115352a198b1e472f00e91376bbcb826040516104b291815260200190565b60405180910390a25050565b6005546001600160a01b0316336001600160a01b0316146104f15760405162461bcd60e51b81526004016102fb90610e68565b6104fc335b82610ad0565b50565b60606004805461025190610d6d565b3360009081526001602090815260408083206001600160a01b0386168452909152812054828110156105905760405162461bcd60e51b815260206004820152602560248201527f45524332303a2064656372656173656420616c6c6f77616e63652062656c6f77604482015264207a65726f60d81b60648201526084016102fb565b61059d33858584036106fc565b5060019392505050565b60006105b233610664565b6105ce5760405162461bcd60e51b81526004016102fb90610da8565b6105d783610664565b6105f35760405162461bcd60e51b81526004016102fb90610df0565b61030f338484610821565b61060733610664565b6106235760405162461bcd60e51b81526004016102fb90610da8565b61062c336104f6565b60405181815233907fe6c82503aaaa3db78b70f183901ae8668918f895b3982b2c851cf2ffe0c6c6399060200160405180910390a250565b600654604051637143059f60e01b81526001600160a01b0383811660048301526000928392911690637143059f90602401600060405180830381865afa1580156106b2573d6000803e3d6000fd5b505050506040513d6000823e601f3d908101601f191682016040526106da9190810190610f37565b90506001816040015160028111156106f4576106f4611018565b149392505050565b6001600160a01b03831661075e5760405162461bcd60e51b8152602060048201526024808201527f45524332303a20617070726f76652066726f6d20746865207a65726f206164646044820152637265737360e01b60648201526084016102fb565b6001600160a01b0382166107bf5760405162461bcd60e51b815260206004820152602260248201527f45524332303a20617070726f766520746f20746865207a65726f206164647265604482015261737360f01b60648201526084016102fb565b6001600160a01b0383811660008181526001602090815260408083209487168084529482529182902085905590518481527f8c5be1e5ebec7d5bd14f71427d1e84f3dd0314c0f7b2291e5b200ac8c7c3b92591015b60405180910390a3505050565b6001600160a01b0383166108855760405162461bcd60e51b815260206004820152602560248201527f45524332303a207472616e736665722066726f6d20746865207a65726f206164604482015264647265737360d81b60648201526084016102fb565b6001600160a01b0382166108e75760405162461bcd60e51b815260206004820152602360248201527f45524332303a207472616e7366657220746f20746865207a65726f206164647260448201526265737360e81b60648201526084016102fb565b6001600160a01b0383166000908152602081905260409020548181101561095f5760405162461bcd60e51b815260206004820152602660248201527f45524332303a207472616e7366657220616d6f756e7420657863656564732062604482015265616c616e636560d01b60648201526084016102fb565b6001600160a01b03808516600090815260208190526040808220858503905591851681529081208054849290610996908490610e50565b92505081905550826001600160a01b0316846001600160a01b03167fddf252ad1be2c89b69c2b068fc378daa952ba7f163c4a11628f55a4df523b3ef846040516109e291815260200190565b60405180910390a35b50505050565b6001600160a01b038216610a475760405162461bcd60e51b815260206004820152601f60248201527f45524332303a206d696e7420746f20746865207a65726f20616464726573730060448201526064016102fb565b8060026000828254610a599190610e50565b90915550506001600160a01b03821660009081526020819052604081208054839290610a86908490610e50565b90915550506040518181526001600160a01b038316906000907fddf252ad1be2c89b69c2b068fc378daa952ba7f163c4a11628f55a4df523b3ef9060200160405180910390a35050565b6001600160a01b038216610b305760405162461bcd60e51b815260206004820152602160248201527f45524332303a206275726e2066726f6d20746865207a65726f206164647265736044820152607360f81b60648201526084016102fb565b6001600160a01b03821660009081526020819052604090205481811015610ba45760405162461bcd60e51b815260206004820152602260248201527f45524332303a206275726e20616d6f756e7420657863656564732062616c616e604482015261636560f01b60648201526084016102fb565b6001600160a01b0383166000908152602081905260408120838303905560028054849290610bd390849061102e565b90915550506040518281526000906001600160a01b038516907fddf252ad1be2c89b69c2b068fc378daa952ba7f163c4a11628f55a4df523b3ef90602001610814565b60005b83811015610c31578181015183820152602001610c19565b838111156109eb5750506000910152565b6020815260008251806020840152610c61816040850160208701610c16565b601f01601f19169190910160400192915050565b6001600160a01b03811681146104fc57600080fd5b60008060408385031215610c9d57600080fd5b8235610ca881610c75565b946020939093013593505050565b600080600060608486031215610ccb57600080fd5b8335610cd681610c75565b92506020840135610ce681610c75565b929592945050506040919091013590565b600060208284031215610d0957600080fd5b5035919050565b600060208284031215610d2257600080fd5b8135610d2d81610c75565b9392505050565b60008060408385031215610d4757600080fd5b8235610d5281610c75565b91506020830135610d6281610c75565b809150509250929050565b600181811c90821680610d8157607f821691505b60208210811415610da257634e487b7160e01b600052602260045260246000fd5b50919050565b60208082526028908201527f73656e646572206973206e6f7420616e206163746976652043424443207061726040820152671d1a58da5c185b9d60c21b606082015260800190565b6020808252602a908201527f7265636569766572206973206e6f7420616e2061637469766520434244432070604082015269185c9d1a58da5c185b9d60b21b606082015260800190565b634e487b7160e01b600052601160045260246000fd5b60008219821115610e6357610e63610e3a565b500190565b6020808252602b908201527f4572726f722c206d73672e73656e64657220646f6573206e6f7420686176652060408201526a6d696e74657220726f6c6560a81b606082015260800190565b634e487b7160e01b600052604160045260246000fd5b6040516060810167ffffffffffffffff81118282101715610eec57610eec610eb3565b60405290565b604051601f8201601f1916810167ffffffffffffffff81118282101715610f1b57610f1b610eb3565b604052919050565b805160038110610f3257600080fd5b919050565b60006020808385031215610f4a57600080fd5b825167ffffffffffffffff80821115610f6257600080fd5b9084019060608287031215610f7657600080fd5b610f7e610ec9565b8251610f8981610c75565b81528284015182811115610f9c57600080fd5b8301601f81018813610fad57600080fd5b805183811115610fbf57610fbf610eb3565b610fd1601f8201601f19168701610ef2565b93508084528886828401011115610fe757600080fd5b610ff681878601888501610c16565b5050818482015261100960408401610f23565b60408201529695505050505050565b634e487b7160e01b600052602160045260246000fd5b60008282101561104057611040610e3a565b50039056fea26469706673582212207daa3c87c1a26eabaf965479003edf686f3363b301742ae647dc3f1f71a0d5d564736f6c634300080b003360806040523480156200001157600080fd5b506040516200157f3803806200157f8339810160408190526200003491620003bd565b8551869086906200004d9060039060208501906200022d565b508051620000639060049060208401906200022d565b5050600580546001600160a01b0319166001600160a01b038a16179055506200009062015180846200046a565b61ef10146200010c5760405162461bcd60e51b815260206004820152603a60248201527f72656c656173652064617465206d75737420626520617420616e20657861637460448201527f20646174652061742030303a303020474d542b3720285749422900000000000060648201526084015b60405180910390fd5b6200011b62015180836200046a565b61ef1014620001935760405162461bcd60e51b815260206004820152603b60248201527f6d617475726974792064617465206d75737420626520617420616e206578616360448201527f7420646174652061742030303a303020474d542b372028574942290000000000606482015260840162000103565b828211620001f55760405162461bcd60e51b815260206004820152602860248201527f6d617475726974792064617465206d7573742062652061667465722072656c65604482015267617365206461746560c01b606482015260840162000103565b600793909355600891909155600955600680546001600160a01b0319166001600160a01b0390921691909117905550620004ca915050565b8280546200023b906200048d565b90600052602060002090601f0160209004810192826200025f5760008555620002aa565b82601f106200027a57805160ff1916838001178555620002aa565b82800160010185558215620002aa579182015b82811115620002aa5782518255916020019190600101906200028d565b50620002b8929150620002bc565b5090565b5b80821115620002b85760008155600101620002bd565b80516001600160a01b0381168114620002eb57600080fd5b919050565b634e487b7160e01b600052604160045260246000fd5b600082601f8301126200031857600080fd5b81516001600160401b0380821115620003355762000335620002f0565b604051601f8301601f19908116603f01168101908282118183101715620003605762000360620002f0565b816040528381526020925086838588010111156200037d57600080fd5b600091505b83821015620003a1578582018301518183018401529082019062000382565b83821115620003b35760008385830101525b9695505050505050565b600080600080600080600060e0888a031215620003d957600080fd5b620003e488620002d3565b60208901519097506001600160401b03808211156200040257600080fd5b620004108b838c0162000306565b975060408a01519150808211156200042757600080fd5b50620004368a828b0162000306565b955050606088015193506080880151925060a088015191506200045c60c08901620002d3565b905092959891949750929550565b6000826200048857634e487b7160e01b600052601260045260246000fd5b500690565b600181811c90821680620004a257607f821691505b60208210811415620004c457634e487b7160e01b600052602260045260246000fd5b50919050565b6110a580620004da6000396000f3fe608060405234801561001057600080fd5b506004361061010b5760003560e01c80634aa354a0116100a2578063a1da7fab11610071578063a1da7fab14610203578063a457c2d71461020c578063a9059cbb1461021f578063db006a7514610232578063dd62ed3e1461024557600080fd5b80634aa354a0146101c0578063680b4026146101c957806370a08231146101d257806395d89b41146101fb57600080fd5b8063313ce567116100de578063313ce56714610176578063395093511461018557806340c10f191461019857806342966c68146101ad57600080fd5b806306fdde0314610110578063095ea7b31461012e57806318160ddd1461015157806323b872dd14610163575b600080fd5b61011861027e565b6040516101259190610c6c565b60405180910390f35b61014161013c366004610cb4565b610310565b6040519015158152602001610125565b6002545b604051908152602001610125565b610141610171366004610ce0565b610354565b60405160008152602001610125565b610141610193366004610cb4565b61043a565b6101ab6101a6366004610cb4565b610476565b005b6101ab6101bb366004610d21565b6104f1565b61015560075481565b61015560095481565b6101556101e0366004610d3a565b6001600160a01b031660009081526020819052604090205490565b610118610529565b61015560085481565b61014161021a366004610cb4565b610538565b61014161022d366004610cb4565b6105d1565b6101ab610240366004610d21565b610628565b610155610253366004610d5e565b6001600160a01b03918216600090815260016020908152604080832093909416825291909152205490565b60606003805461028d90610d97565b80601f01602080910402602001604051908101604052809291908181526020018280546102b990610d97565b80156103065780601f106102db57610100808354040283529160200191610306565b820191906000526020600020905b8154815290600101906020018083116102e957829003601f168201915b5050505050905090565b600061031b3361068e565b6103405760405162461bcd60e51b815260040161033790610dd2565b60405180910390fd5b61034b338484610726565b50600192915050565b6000806103618533610253565b905060001981146103da57828110156103cd5760405162461bcd60e51b815260206004820152602860248201527f45524332303a207472616e7366657220616d6f756e74206578636565647320616044820152676c6c6f77616e636560c01b6064820152608401610337565b6103da8533858403610726565b6103e38561068e565b6103ff5760405162461bcd60e51b815260040161033790610dd2565b6104088461068e565b6104245760405162461bcd60e51b815260040161033790610e1a565b61042f85858561084b565b506001949350505050565b3360008181526001602090815260408083206001600160a01b0387168452909152812054909161034b918590610471908690610e7a565b610726565b6005546001600160a01b031633146104a05760405162461bcd60e51b815260040161033790610e92565b6104aa8282610a1b565b816001600160a01b03167f9cb9c14f7bc76e3a89b796b091850526236115352a198b1e472f00e91376bbcb826040516104e591815260200190565b60405180910390a25050565b6005546001600160a01b0316331461051b5760405162461bcd60e51b815260040161033790610e92565b610526335b82610afa565b50565b60606004805461028d90610d97565b3360009081526001602090815260408083206001600160a01b0386168452909152812054828110156105ba5760405162461bcd60e51b815260206004820152602560248201527f45524332303a2064656372656173656420616c6c6f77616e63652062656c6f77604482015264207a65726f60d81b6064820152608401610337565b6105c73385858403610726565b5060019392505050565b60006105dc3361068e565b6105f85760405162461bcd60e51b815260040161033790610dd2565b6106018361068e565b61061d5760405162461bcd60e51b815260040161033790610e1a565b61034b33848461084b565b6106313361068e565b61064d5760405162461bcd60e51b815260040161033790610dd2565b61065633610520565b60405181815233907fe6c82503aaaa3db78b70f183901ae8668918f895b3982b2c851cf2ffe0c6c6399060200160405180910390a250565b600654604051637143059f60e01b81526001600160a01b0383811660048301526000928392911690637143059f90602401600060405180830381865afa1580156106dc573d6000803e3d6000fd5b505050506040513d6000823e601f3d908101601f191682016040526107049190810190610f61565b905060018160400151600281111561071e5761071e611042565b149392505050565b6001600160a01b0383166107885760405162461bcd60e51b8152602060048201526024808201527f45524332303a20617070726f76652066726f6d20746865207a65726f206164646044820152637265737360e01b6064820152608401610337565b6001600160a01b0382166107e95760405162461bcd60e51b815260206004820152602260248201527f45524332303a20617070726f766520746f20746865207a65726f206164647265604482015261737360f01b6064820152608401610337565b6001600160a01b0383811660008181526001602090815260408083209487168084529482529182902085905590518481527f8c5be1e5ebec7d5bd14f71427d1e84f3dd0314c0f7b2291e5b200ac8c7c3b92591015b60405180910390a3505050565b6001600160a01b0383166108af5760405162461bcd60e51b815260206004820152602560248201527f45524332303a207472616e736665722066726f6d20746865207a65726f206164604482015264647265737360d81b6064820152608401610337565b6001600160a01b0382166109115760405162461bcd60e51b815260206004820152602360248201527f45524332303a207472616e7366657220746f20746865207a65726f206164647260448201526265737360e81b6064820152608401610337565b6001600160a01b038316600090815260208190526040902054818110156109895760405162461bcd60e51b815260206004820152602660248201527f45524332303a207472616e7366657220616d6f756e7420657863656564732062604482015265616c616e636560d01b6064820152608401610337565b6001600160a01b038085166000908152602081905260408082208585039055918516815290812080548492906109c0908490610e7a565b92505081905550826001600160a01b0316846001600160a01b03167fddf252ad1be2c89b69c2b068fc378daa952ba7f163c4a11628f55a4df523b3ef84604051610a0c91815260200190565b60405180910390a35b50505050565b6001600160a01b038216610a715760405162461bcd60e51b815260206004820152601f60248201527f45524332303a206d696e7420746f20746865207a65726f2061646472657373006044820152606401610337565b8060026000828254610a839190610e7a565b90915550506001600160a01b03821660009081526020819052604081208054839290610ab0908490610e7a565b90915550506040518181526001600160a01b038316906000907fddf252ad1be2c89b69c2b068fc378daa952ba7f163c4a11628f55a4df523b3ef9060200160405180910390a35050565b6001600160a01b038216610b5a5760405162461bcd60e51b815260206004820152602160248201527f45524332303a206275726e2066726f6d20746865207a65726f206164647265736044820152607360f81b6064820152608401610337565b6001600160a01b03821660009081526020819052604090205481811015610bce5760405162461bcd60e51b815260206004820152602260248201527f45524332303a206275726e20616d6f756e7420657863656564732062616c616e604482015261636560f01b6064820152608401610337565b6001600160a01b0383166000908152602081905260408120838303905560028054849290610bfd908490611058565b90915550506040518281526000906001600160a01b038516907fddf252ad1be2c89b69c2b068fc378daa952ba7f163c4a11628f55a4df523b3ef9060200161083e565b60005b83811015610c5b578181015183820152602001610c43565b83811115610a155750506000910152565b6020815260008251806020840152610c8b816040850160208701610c40565b601f01601f19169190910160400192915050565b6001600160a01b038116811461052657600080fd5b60008060408385031215610cc757600080fd5b8235610cd281610c9f565b946020939093013593505050565b600080600060608486031215610cf557600080fd5b8335610d0081610c9f565b92506020840135610d1081610c9f565b929592945050506040919091013590565b600060208284031215610d3357600080fd5b5035919050565b600060208284031215610d4c57600080fd5b8135610d5781610c9f565b9392505050565b60008060408385031215610d7157600080fd5b8235610d7c81610c9f565b91506020830135610d8c81610c9f565b809150509250929050565b600181811c90821680610dab57607f821691505b60208210811415610dcc57634e487b7160e01b600052602260045260246000fd5b50919050565b60208082526028908201527f73656e646572206973206e6f7420616e206163746976652043424443207061726040820152671d1a58da5c185b9d60c21b606082015260800190565b6020808252602a908201527f7265636569766572206973206e6f7420616e2061637469766520434244432070604082015269185c9d1a58da5c185b9d60b21b606082015260800190565b634e487b7160e01b600052601160045260246000fd5b60008219821115610e8d57610e8d610e64565b500190565b6020808252602b908201527f4572726f722c206d73672e73656e64657220646f6573206e6f7420686176652060408201526a6d696e74657220726f6c6560a81b606082015260800190565b634e487b7160e01b600052604160045260246000fd5b6040516060810167ffffffffffffffff81118282101715610f1657610f16610edd565b60405290565b604051601f8201601f1916810167ffffffffffffffff81118282101715610f4557610f45610edd565b604052919050565b805160038110610f5c57600080fd5b919050565b60006020808385031215610f7457600080fd5b825167ffffffffffffffff80821115610f8c57600080fd5b9084019060608287031215610fa057600080fd5b610fa8610ef3565b8251610fb381610c9f565b81528284015182811115610fc657600080fd5b8301601f81018813610fd757600080fd5b805183811115610fe957610fe9610edd565b610ffb601f8201601f19168701610f1c565b9350808452888682840101111561101157600080fd5b61102081878601888501610c40565b5050818482015261103360408401610f4d565b60408201529695505050505050565b634e487b7160e01b600052602160045260246000fd5b60008282101561106a5761106a610e64565b50039056fea264697066735822122077eb5f128396c2a5f811fcc5afaf01322daf61f6ed4b0850125c78a35db6658364736f6c634300080b0033608060405234801561001057600080fd5b50604051610acf380380610acf83398101604081905261002f916102ad565b826001600160a01b0316866001600160a01b031614156100a15760405162461bcd60e51b815260206004820152602260248201527f627579657220616e642073656c6c6572206d75737420626520646966666572656044820152611b9d60f21b60648201526084015b60405180910390fd5b6100ad610e108261031e565b156101055760405162461bcd60e51b815260206004820152602260248201527f457870697265642064617465206d75737420617420616e20657861637420686f6044820152613ab960f11b6064820152608401610098565b6101124262015180610340565b8111156101755760405162461bcd60e51b815260206004820152602b60248201527f457870697265642064617465206d757374206e6f74206578636565642031206460448201526a61792066726f6d206e6f7760a81b6064820152608401610098565b600080546001600160a01b038981166001600160a01b03199283161790925560018054898416908316179055600287905560038054878416908316811790915560048054938716939092168317825560058590556040516370a0823160e01b8152918201929092528391906370a0823190602401602060405180830381865afa158015610206573d6000803e3d6000fd5b505050506040513d601f19601f8201168201806040525081019061022a9190610366565b10156102785760405162461bcd60e51b815260206004820152601c60248201527f53424e20756e69747320746f2073656c6c206e6f7420656e6f756768000000006044820152606401610098565b60075550506006805460ff191690555061037f92505050565b80516001600160a01b03811681146102a857600080fd5b919050565b600080600080600080600060e0888a0312156102c857600080fd5b6102d188610291565b96506102df60208901610291565b9550604088015194506102f460608901610291565b935061030260808901610291565b925060a0880151915060c0880151905092959891949750929550565b60008261033b57634e487b7160e01b600052601260045260246000fd5b500690565b6000821982111561036157634e487b7160e01b600052601160045260246000fd5b500190565b60006020828403121561037857600080fd5b5051919050565b6107418061038e6000396000f3fe608060405234801561001057600080fd5b50600436106100a95760003560e01c806380b8db201161007157806380b8db201461011d57806390be042a14610134578063ad92226b1461013d578063b53f5ef814610150578063ea8a1af014610163578063f17fffb71461016b57600080fd5b806308551a53146100ae578063200d2ed2146100de5780632852b71c146100f85780634dc415de146101025780637150d8ae1461010a575b600080fd5b6004546100c1906001600160a01b031681565b6040516001600160a01b0390911681526020015b60405180910390f35b6006546100eb9060ff1681565b6040516100d59190610672565b610100610174565b005b610100610457565b6001546100c1906001600160a01b031681565b61012660025481565b6040519081526020016100d5565b61012660055481565b6000546100c1906001600160a01b031681565b6003546100c1906001600160a01b031681565b6101006104f3565b61012660075481565b6001546001600160a01b031633146101cb5760405162461bcd60e51b815260206004820152601560248201527413db9b1e48109d5e595c8810d85b881058d8d95c1d605a1b60448201526064015b60405180910390fd5b600060065460ff1660038111156101e4576101e461065c565b146102015760405162461bcd60e51b81526004016101c29061069a565b6007544211156102455760405162461bcd60e51b815260206004820152600f60248201526e14995c5d595cdd08195e1c1a5c9959608a1b60448201526064016101c2565b600254600054600154604051636eb1769f60e11b81526001600160a01b03918216600482015230602482015291169063dd62ed3e90604401602060405180830381865afa15801561029a573d6000803e3d6000fd5b505050506040513d601f19601f820116820180604052508101906102be91906106c9565b101561031f5760405162461bcd60e51b815260206004820152602a60248201527f42757965722773204469676974616c20527570656520616c6c6f77616e636520604482015269697320746f6f206c6f7760b01b60648201526084016101c2565b60055460035460048054604051636eb1769f60e11b81526001600160a01b03918216928101929092523060248301529091169063dd62ed3e90604401602060405180830381865afa158015610378573d6000803e3d6000fd5b505050506040513d601f19601f8201168201806040525081019061039c91906106c9565b10156103f45760405162461bcd60e51b815260206004820152602160248201527f53656c6c657227732053424e20616c6c6f77616e636520697320746f6f206c6f6044820152607760f81b60648201526084016101c2565b60005460015460045460025461041a936001600160a01b0390811693811692169061058f565b600354600454600154600554610440936001600160a01b0390811693811692169061058f565b600680546003919060ff19166001835b0217905550565b6001546001600160a01b031633146104a95760405162461bcd60e51b815260206004820152601560248201527413db9b1e48189d5e595c8818d85b881c995a9958dd605a1b60448201526064016101c2565b600060065460ff1660038111156104c2576104c261065c565b146104df5760405162461bcd60e51b81526004016101c29061069a565b600680546002919060ff1916600183610450565b6004546001600160a01b031633146105465760405162461bcd60e51b815260206004820152601660248201527513db9b1e481cd95b1b195c8818d85b8818d85b98d95b60521b60448201526064016101c2565b600060065460ff16600381111561055f5761055f61065c565b1461057c5760405162461bcd60e51b81526004016101c29061069a565b600680546001919060ff19168280610450565b6040516323b872dd60e01b81526001600160a01b038481166004830152838116602483015260448201839052600091908616906323b872dd906064016020604051808303816000875af11580156105ea573d6000803e3d6000fd5b505050506040513d601f19601f8201168201806040525081019061060e91906106e2565b9050806106555760405162461bcd60e51b8152602060048201526015602482015274151bdad95b881d1c985b9cd9995c8819985a5b1959605a1b60448201526064016101c2565b5050505050565b634e487b7160e01b600052602160045260246000fd5b602081016004831061069457634e487b7160e01b600052602160045260246000fd5b91905290565b60208082526015908201527414995c5d595cdd081dd85cc818dbdb5c1b195d1959605a1b604082015260600190565b6000602082840312156106db57600080fd5b5051919050565b6000602082840312156106f457600080fd5b8151801515811461070457600080fd5b939250505056fea2646970667358221220fbff84589a1e1d455b8b03c047dc99261dcad1293889532a040929a655702ccb64736f6c634300080b0033a2646970667358221220806ae6da1e6c7ff66e9f8d40943f6e5372614026dab64748faadb156684c81ed64736f6c634300080b0033",
  "immutableReferences": {
    "679": [
      {
        "length": 32,
        "start": 338
      },
      {
        "length": 32,
        "start": 984
      },
      {
        "length": 32,
        "start": 1846
      },
      {
        "length": 32,
        "start": 1912
      },
      {
        "length": 32,
        "start": 2073
      },
      {
        "length": 32,
        "start": 2511
      },
      {
        "length": 32,
        "start": 2579
      },
      {
        "length": 32,
        "start": 2777
      }
    ]
  },
  "source": "// SPDX-License-Identifier: MIT\r\npragma solidity ^0.8.0;\r\n\r\nimport \"./Participant_Struct.sol\";\r\nimport \"./DigitalRupee.sol\";\r\nimport \"./Request.sol\";\r\nimport \"./SBN.sol\";\r\n\r\nimport \"openzeppelin-solidity/contracts/token/ERC20/IERC20.sol\";\r\n\r\ncontract CBDC_Dapps {\r\n    address public immutable CentralBankAddress;\r\n\r\n    modifier isCentralBank() {\r\n        require(msg.sender == CentralBankAddress, \"Not Central Bank\");\r\n        _;\r\n    }\r\n\r\n    constructor() {\r\n        CentralBankAddress = msg.sender;\r\n\r\n        addParticipant(msg.sender, \"Central Bank\");\r\n    }\r\n\r\n    // create DigitalRupee\r\n\r\n    DigitalRupee public digitalRupee;\r\n\r\n    function createDigitalRupee() public isCentralBank {\r\n        digitalRupee = new DigitalRupee(CentralBankAddress, address(this));\r\n    }\r\n\r\n    // modifying participant\r\n\r\n    address[] public participantAddresses;\r\n\r\n    mapping(address => Participant) public addressToParticipant;\r\n\r\n    function addParticipant(\r\n        address _address,\r\n        string memory _name\r\n    ) public isCentralBank {\r\n        require(\r\n            addressToParticipant[_address].status == ParticipantStatus.NotExist,\r\n            \"participant already exist, use edit instead\"\r\n        );\r\n\r\n        Participant memory _participant = Participant({\r\n            account: _address,\r\n            status: ParticipantStatus.Active,\r\n            name: _name\r\n        });\r\n        participantAddresses.push(_address);\r\n        addressToParticipant[_address] = _participant;\r\n    }\r\n\r\n    function editParticipant(\r\n        address _address,\r\n        string memory _name,\r\n        ParticipantStatus _status\r\n    ) public isCentralBank {\r\n        require(\r\n            _status != ParticipantStatus.NotExist,\r\n            \"to delete participant, use remove participant\"\r\n        );\r\n        addressToParticipant[_address].status = _status;\r\n        addressToParticipant[_address].name = _name;\r\n    }\r\n\r\n    //disclaimer: this function must be rarely called, e.g. when a company (participant) went bankrupt. Otherwise use edit participant\r\n    function removeParticipant(uint256 _index) public isCentralBank {\r\n        require(_index < participantAddresses.length, \"index out of bound\");\r\n\r\n        address _address = participantAddresses[_index];\r\n        delete addressToParticipant[_address];\r\n\r\n        for (uint256 i = _index; i < participantAddresses.length - 1; i++) {\r\n            participantAddresses[i] = participantAddresses[i + 1];\r\n        }\r\n        participantAddresses.pop();\r\n    }\r\n\r\n    function getParticipant(\r\n        address _address\r\n    ) external view returns (Participant memory) {\r\n        return addressToParticipant[_address];\r\n    }\r\n\r\n    function getAllParticipantAddresses()\r\n        public\r\n        view\r\n        returns (address[] memory)\r\n    {\r\n        return participantAddresses;\r\n    }\r\n\r\n    //\r\n\r\n    modifier callerIsActiveParticipant() {\r\n        require(\r\n            addressToParticipant[msg.sender].status == ParticipantStatus.Active,\r\n            \"caller is not an active participant\"\r\n        );\r\n        _;\r\n    }\r\n\r\n    // SBN Factory\r\n    SBN[] public sbnAddresses;\r\n\r\n    function createSBN(\r\n        string memory _name,\r\n        string memory _symbol,\r\n        uint256 _initialUnitPrice,\r\n        uint256 _releasedDate,\r\n        uint256 _maturityDate\r\n    ) public isCentralBank {\r\n        SBN _sbn = new SBN({\r\n            _minter: CentralBankAddress,\r\n            _name: _name,\r\n            _symbol: _symbol,\r\n            _initialUnitPrice: _initialUnitPrice,\r\n            _releasedDate: _releasedDate,\r\n            _maturityDate: _maturityDate,\r\n            _cbdc: address(this)\r\n        });\r\n\r\n        sbnAddresses.push(_sbn);\r\n    }\r\n\r\n    function getSbnAddresses() public view returns (SBN[] memory) {\r\n        return sbnAddresses;\r\n    }\r\n\r\n    event NewRequest(\r\n        address indexed buyer,\r\n        address indexed seller,\r\n        address indexed SBN,\r\n        uint256 sbnAmount,\r\n        uint256 rupeeAmount,\r\n        uint256 expired_date,\r\n        Request requestAddress\r\n    );\r\n\r\n    function createSellRequest(\r\n        address _SBN,\r\n        address _buyer,\r\n        uint256 _sbnAmount,\r\n        uint256 _rupeeAmount,\r\n        uint256 _expiredDate\r\n    ) public callerIsActiveParticipant {\r\n        require(\r\n            addressToParticipant[_buyer].status == ParticipantStatus.Active,\r\n            \"buyer is not an active participant\"\r\n        );\r\n\r\n        address _digitalRupee = address(digitalRupee);\r\n        address _seller = msg.sender;\r\n\r\n        Request _request = new Request({\r\n            _digitalRupee: _digitalRupee,\r\n            _buyer: _buyer,\r\n            _rupeeAmount: _rupeeAmount,\r\n            _SBN: _SBN,\r\n            _seller: _seller,\r\n            _sbnAmount: _sbnAmount,\r\n            _expiredDate: _expiredDate\r\n        });\r\n\r\n        emit NewRequest(\r\n            _buyer,\r\n            _seller,\r\n            _SBN,\r\n            _sbnAmount,\r\n            _rupeeAmount,\r\n            _expiredDate,\r\n            _request\r\n        );\r\n\r\n        // make sure to guide seller to approve their SBN on the dapps, because it is not possible to approve using this contract\r\n    }\r\n}\r\n",
  "sourcePath": "C:\\Users\\dkvhe\\OneDrive\\Documents\\vs_code\\Projects\\Final-Year-Project\\test4\\cbdc\\contracts\\CBDC_Dapps.sol",
  "compiler": {
    "name": "solc",
    "version": "0.8.11+commit.d7f03943.Emscripten.clang"
  },
  "schemaVersion": "3.4.16",
  "updatedAt": "2024-04-28T06:05:14.416Z",
  "networkType": "ethereum",
  "devdoc": {
    "kind": "dev",
    "methods": {},
    "version": 1
  },
  "userdoc": {
    "kind": "user",
    "methods": {},
    "version": 1
  }
}