{
  "contractName": "CBDC_Dapps",
  "abi": [
    {
      "inputs": [],
      "stateMutability": "nonpayable",
      "type": "constructor"
    },
    {
      "anonymous": false,
      "inputs": [
        {
          "indexed": true,
          "internalType": "address",
          "name": "buyer",
          "type": "address"
        },
        {
          "indexed": true,
          "internalType": "address",
          "name": "seller",
          "type": "address"
        },
        {
          "indexed": true,
          "internalType": "address",
          "name": "SBN",
          "type": "address"
        },
        {
          "indexed": false,
          "internalType": "uint256",
          "name": "sbnAmount",
          "type": "uint256"
        },
        {
          "indexed": false,
          "internalType": "uint256",
          "name": "rupeeAmount",
          "type": "uint256"
        },
        {
          "indexed": false,
          "internalType": "uint256",
          "name": "expired_date",
          "type": "uint256"
        },
        {
          "indexed": false,
          "internalType": "contract Request",
          "name": "requestAddress",
          "type": "address"
        }
      ],
      "name": "NewRequest",
      "type": "event"
    },
    {
      "inputs": [],
      "name": "ReserveBankofIndiaAddress",
      "outputs": [
        {
          "internalType": "address",
          "name": "",
          "type": "address"
        }
      ],
      "stateMutability": "view",
      "type": "function",
      "constant": true
    },
    {
      "inputs": [
        {
          "internalType": "address",
          "name": "",
          "type": "address"
        }
      ],
      "name": "addressToParticipant",
      "outputs": [
        {
          "internalType": "address",
          "name": "account",
          "type": "address"
        },
        {
          "internalType": "string",
          "name": "name",
          "type": "string"
        },
        {
          "internalType": "enum ParticipantStatus",
          "name": "status",
          "type": "uint8"
        }
      ],
      "stateMutability": "view",
      "type": "function",
      "constant": true
    },
    {
      "inputs": [],
      "name": "digitalRupee",
      "outputs": [
        {
          "internalType": "contract DigitalRupee",
          "name": "",
          "type": "address"
        }
      ],
      "stateMutability": "view",
      "type": "function",
      "constant": true
    },
    {
      "inputs": [
        {
          "internalType": "uint256",
          "name": "",
          "type": "uint256"
        }
      ],
      "name": "participantAddresses",
      "outputs": [
        {
          "internalType": "address",
          "name": "",
          "type": "address"
        }
      ],
      "stateMutability": "view",
      "type": "function",
      "constant": true
    },
    {
      "inputs": [
        {
          "internalType": "uint256",
          "name": "",
          "type": "uint256"
        }
      ],
      "name": "sbnAddresses",
      "outputs": [
        {
          "internalType": "contract SBN",
          "name": "",
          "type": "address"
        }
      ],
      "stateMutability": "view",
      "type": "function",
      "constant": true
    },
    {
      "inputs": [],
      "name": "createDigitalRupee",
      "outputs": [],
      "stateMutability": "nonpayable",
      "type": "function"
    },
    {
      "inputs": [
        {
          "internalType": "address",
          "name": "_address",
          "type": "address"
        },
        {
          "internalType": "string",
          "name": "_name",
          "type": "string"
        }
      ],
      "name": "addParticipant",
      "outputs": [],
      "stateMutability": "nonpayable",
      "type": "function"
    },
    {
      "inputs": [
        {
          "internalType": "address",
          "name": "_address",
          "type": "address"
        },
        {
          "internalType": "string",
          "name": "_name",
          "type": "string"
        },
        {
          "internalType": "enum ParticipantStatus",
          "name": "_status",
          "type": "uint8"
        }
      ],
      "name": "editParticipant",
      "outputs": [],
      "stateMutability": "nonpayable",
      "type": "function"
    },
    {
      "inputs": [
        {
          "internalType": "uint256",
          "name": "_index",
          "type": "uint256"
        }
      ],
      "name": "removeParticipant",
      "outputs": [],
      "stateMutability": "nonpayable",
      "type": "function"
    },
    {
      "inputs": [
        {
          "internalType": "address",
          "name": "_address",
          "type": "address"
        }
      ],
      "name": "getParticipant",
      "outputs": [
        {
          "components": [
            {
              "internalType": "address",
              "name": "account",
              "type": "address"
            },
            {
              "internalType": "string",
              "name": "name",
              "type": "string"
            },
            {
              "internalType": "enum ParticipantStatus",
              "name": "status",
              "type": "uint8"
            }
          ],
          "internalType": "struct Participant",
          "name": "",
          "type": "tuple"
        }
      ],
      "stateMutability": "view",
      "type": "function",
      "constant": true
    },
    {
      "inputs": [],
      "name": "getAllParticipantAddresses",
      "outputs": [
        {
          "internalType": "address[]",
          "name": "",
          "type": "address[]"
        }
      ],
      "stateMutability": "view",
      "type": "function",
      "constant": true
    },
    {
      "inputs": [
        {
          "internalType": "string",
          "name": "_name",
          "type": "string"
        },
        {
          "internalType": "string",
          "name": "_symbol",
          "type": "string"
        },
        {
          "internalType": "uint256",
          "name": "_initialUnitPrice",
          "type": "uint256"
        },
        {
          "internalType": "uint256",
          "name": "_releasedDate",
          "type": "uint256"
        },
        {
          "internalType": "uint256",
          "name": "_maturityDate",
          "type": "uint256"
        }
      ],
      "name": "createSBN",
      "outputs": [],
      "stateMutability": "nonpayable",
      "type": "function"
    },
    {
      "inputs": [],
      "name": "getSbnAddresses",
      "outputs": [
        {
          "internalType": "contract SBN[]",
          "name": "",
          "type": "address[]"
        }
      ],
      "stateMutability": "view",
      "type": "function",
      "constant": true
    },
    {
      "inputs": [
        {
          "internalType": "address",
          "name": "_SBN",
          "type": "address"
        },
        {
          "internalType": "address",
          "name": "_buyer",
          "type": "address"
        },
        {
          "internalType": "uint256",
          "name": "_sbnAmount",
          "type": "uint256"
        },
        {
          "internalType": "uint256",
          "name": "_rupeeAmount",
          "type": "uint256"
        },
        {
          "internalType": "uint256",
          "name": "_expiredDate",
          "type": "uint256"
        }
      ],
      "name": "createSellRequest",
      "outputs": [],
      "stateMutability": "nonpayable",
      "type": "function"
    }
  ],
  "bytecode": "0x60a06040523480156200001157600080fd5b5033608081905260408051808201909152600c81526b43656e7472616c2042616e6b60a01b60208201526200004791906200004d565b6200030d565b6080516001600160a01b0316336001600160a01b031614620000a95760405162461bcd60e51b815260206004820152601060248201526f4e6f742043656e7472616c2042616e6b60801b60448201526064015b60405180910390fd5b6001600160a01b0382166000908152600260208190526040822081015460ff1690811115620000dc57620000dc620002ba565b146200013f5760405162461bcd60e51b815260206004820152602b60248201527f7061727469636970616e7420616c72656164792065786973742c20757365206560448201526a191a5d081a5b9cdd19585960aa1b6064820152608401620000a0565b604080516060810182526001600160a01b0384811680835260208084018681526001858701819052805480820182557fb10e2d527612073b26eecdfd717e6a320cf44b4afac2b0732d9fcbe2b7fa0cf60180546001600160a01b03199081168617909155600094855260028452969093208551815495169490961693909317855591518051939485949093620001da93850192019062000214565b5060408201518160020160006101000a81548160ff02191690836002811115620002085762000208620002ba565b02179055505050505050565b8280546200022290620002d0565b90600052602060002090601f01602090048101928262000246576000855562000291565b82601f106200026157805160ff191683800117855562000291565b8280016001018555821562000291579182015b828111156200029157825182559160200191906001019062000274565b506200029f929150620002a3565b5090565b5b808211156200029f5760008155600101620002a4565b634e487b7160e01b600052602160045260246000fd5b600181811c90821680620002e557607f821691505b602082108114156200030757634e487b7160e01b600052602260045260246000fd5b50919050565b60805161468b6200035a60003960008181610108015281816103d3015281816107310152818161077301528181610814015281816109ca01528181610a0e0152610ad4015261468b6000f3fe60806040523480156200001157600080fd5b5060043610620000fd5760003560e01c8063810fcf6f1162000097578063b68feb84116200006e578063b68feb84146200021d578063bebe18d31462000234578063d4bd4fa8146200024b578063d71bfd5c146200026257600080fd5b8063810fcf6f14620001e857806392d2661314620001f2578063ad92226b146200020957600080fd5b806354ffbddb11620000d857806354ffbddb1462000188578063683f7f27146200019f5780636881143114620001b85780637143059f14620001c257600080fd5b806308d44f1a146200010257806318f78e2d1462000147578063341b92461462000160575b600080fd5b6200012a7f000000000000000000000000000000000000000000000000000000000000000081565b6040516001600160a01b0390911681526020015b60405180910390f35b6200015162000279565b6040516200013e919062000f69565b620001776200017136600462000fd5565b620002dd565b6040516200013e9392919062001083565b6200012a62000199366004620010c2565b6200039d565b620001b6620001b0366004620010c2565b620003c8565b005b62000151620005af565b620001d9620001d336600462000fd5565b62000611565b6040516200013e9190620010dc565b620001b662000726565b6200012a62000203366004620010c2565b620007f8565b6000546200012a906001600160a01b031681565b620001b66200022e366004620011d5565b62000809565b620001b66200024536600462001229565b620009bf565b620001b66200025c366004620012af565b62000ac9565b620001b6620002733660046200131c565b62000c0c565b60606003805480602002602001604051908101604052809291908181526020018280548015620002d357602002820191906000526020600020905b81546001600160a01b03168152600190910190602001808311620002b4575b5050505050905090565b600260205260009081526040902080546001820180546001600160a01b0390921692916200030b906200136e565b80601f016020809104026020016040519081016040528092919081815260200182805462000339906200136e565b80156200038a5780601f106200035e576101008083540402835291602001916200038a565b820191906000526020600020905b8154815290600101906020018083116200036c57829003601f168201915b5050506002909301549192505060ff1683565b60018181548110620003ae57600080fd5b6000918252602090912001546001600160a01b0316905081565b336001600160a01b037f000000000000000000000000000000000000000000000000000000000000000016146200041c5760405162461bcd60e51b81526004016200041390620013ab565b60405180910390fd5b6001548110620004645760405162461bcd60e51b81526020600482015260126024820152711a5b99195e081bdd5d081bd988189bdd5b9960721b604482015260640162000413565b6000600182815481106200047c576200047c620013d5565b60009182526020808320909101546001600160a01b031680835260029091526040822080546001600160a01b031916815590925090620004c0600183018262000e1a565b50600201805460ff19169055815b60018054620004de919062001401565b81101562000574576001620004f482826200141b565b81548110620005075762000507620013d5565b600091825260209091200154600180546001600160a01b039092169183908110620005365762000536620013d5565b600091825260209091200180546001600160a01b0319166001600160a01b0392909216919091179055806200056b8162001436565b915050620004ce565b50600180548062000589576200058962001454565b600082815260209020810160001990810180546001600160a01b03191690550190555050565b60606001805480602002602001604051908101604052809291908181526020018280548015620002d3576020028201919060005260206000209081546001600160a01b03168152600190910190602001808311620002b4575050505050905090565b6200061b62000e5c565b6001600160a01b03808316600090815260026020908152604091829020825160608101909352805490931682526001830180549293929184019162000660906200136e565b80601f01602080910402602001604051908101604052809291908181526020018280546200068e906200136e565b8015620006df5780601f10620006b357610100808354040283529160200191620006df565b820191906000526020600020905b815481529060010190602001808311620006c157829003601f168201915b505050918352505060028281015460209092019160ff16908111156200070957620007096200104a565b60028111156200071d576200071d6200104a565b90525092915050565b336001600160a01b037f00000000000000000000000000000000000000000000000000000000000000001614620007715760405162461bcd60e51b81526004016200041390620013ab565b7f000000000000000000000000000000000000000000000000000000000000000030604051620007a19062000e99565b6001600160a01b03928316815291166020820152604001604051809103906000f080158015620007d5573d6000803e3d6000fd5b50600080546001600160a01b0319166001600160a01b0392909216919091179055565b60038181548110620003ae57600080fd5b336001600160a01b037f00000000000000000000000000000000000000000000000000000000000000001614620008545760405162461bcd60e51b81526004016200041390620013ab565b6001600160a01b0382166000908152600260208190526040822081015460ff16908111156200088757620008876200104a565b14620008ea5760405162461bcd60e51b815260206004820152602b60248201527f7061727469636970616e7420616c72656164792065786973742c20757365206560448201526a191a5d081a5b9cdd19585960aa1b606482015260840162000413565b604080516060810182526001600160a01b0384811680835260208084018681526001858701819052805480820182557fb10e2d527612073b26eecdfd717e6a320cf44b4afac2b0732d9fcbe2b7fa0cf60180546001600160a01b031990811686179091556000948552600284529690932085518154951694909616939093178555915180519394859490936200098593850192019062000ea7565b5060408201518160020160006101000a81548160ff02191690836002811115620009b357620009b36200104a565b02179055505050505050565b336001600160a01b037f0000000000000000000000000000000000000000000000000000000000000000161462000a0a5760405162461bcd60e51b81526004016200041390620013ab565b60007f000000000000000000000000000000000000000000000000000000000000000086868686863060405162000a419062000f36565b62000a5397969594939291906200146a565b604051809103906000f08015801562000a70573d6000803e3d6000fd5b50600380546001810182556000919091527fc2575a0e9e593c00f959f8c92f12db2869c3395a3b0502d05e2516446f71f85b0180546001600160a01b0319166001600160a01b0392909216919091179055505050505050565b336001600160a01b037f0000000000000000000000000000000000000000000000000000000000000000161462000b145760405162461bcd60e51b81526004016200041390620013ab565b600081600281111562000b2b5762000b2b6200104a565b141562000b915760405162461bcd60e51b815260206004820152602d60248201527f746f2064656c657465207061727469636970616e742c207573652072656d6f7660448201526c19481c185c9d1a58da5c185b9d609a1b606482015260840162000413565b6001600160a01b038316600090815260026020819052604090912081018054839260ff1990911690600190849081111562000bd05762000bd06200104a565b02179055506001600160a01b0383166000908152600260209081526040909120835162000c069260019092019185019062000ea7565b50505050565b600133600090815260026020819052604090912081015460ff169081111562000c395762000c396200104a565b1462000c945760405162461bcd60e51b815260206004820152602360248201527f63616c6c6572206973206e6f7420616e20616374697665207061727469636970604482015262185b9d60ea1b606482015260840162000413565b60016001600160a01b038516600090815260026020819052604090912081015460ff169081111562000cca5762000cca6200104a565b1462000d245760405162461bcd60e51b815260206004820152602260248201527f6275796572206973206e6f7420616e20616374697665207061727469636970616044820152611b9d60f21b606482015260840162000413565b600080546040516001600160a01b039091169133918390889087908b9086908b908a9062000d529062000f44565b6001600160a01b039788168152958716602087015260408601949094529185166060850152909316608083015260a082019290925260c081019190915260e001604051809103906000f08015801562000daf573d6000803e3d6000fd5b5060408051888152602081018890529081018690526001600160a01b038083166060830152919250818a169184811691908a16907f57819e282ab51e28252f45d789b32fb18cd5ceb00b6b1338b3575657cdbfaa0c9060800160405180910390a45050505050505050565b50805462000e28906200136e565b6000825580601f1062000e39575050565b601f01602090049060005260206000209081019062000e59919062000f52565b50565b604051806060016040528060006001600160a01b03168152602001606081526020016000600281111562000e945762000e946200104a565b905290565b6111e980620014cd83390190565b82805462000eb5906200136e565b90600052602060002090601f01602090048101928262000ed9576000855562000f24565b82601f1062000ef457805160ff191683800117855562000f24565b8280016001018555821562000f24579182015b8281111562000f2457825182559160200191906001019062000f07565b5062000f3292915062000f52565b5090565b6114d180620026b683390190565b610acf8062003b8783390190565b5b8082111562000f32576000815560010162000f53565b6020808252825182820181905260009190848201906040850190845b8181101562000fac5783516001600160a01b03168352928401929184019160010162000f85565b50909695505050505050565b80356001600160a01b038116811462000fd057600080fd5b919050565b60006020828403121562000fe857600080fd5b62000ff38262000fb8565b9392505050565b6000815180845260005b81811015620010225760208185018101518683018201520162001004565b8181111562001035576000602083870101525b50601f01601f19169290920160200192915050565b634e487b7160e01b600052602160045260246000fd5b600381106200107f57634e487b7160e01b600052602160045260246000fd5b9052565b6001600160a01b0384168152606060208201819052600090620010a99083018562000ffa565b9050620010ba604083018462001060565b949350505050565b600060208284031215620010d557600080fd5b5035919050565b602080825282516001600160a01b031682820152820151606060408301526000906200110c608084018262000ffa565b9050604084015162001122606085018262001060565b509392505050565b634e487b7160e01b600052604160045260246000fd5b600082601f8301126200115257600080fd5b813567ffffffffffffffff808211156200117057620011706200112a565b604051601f8301601f19908116603f011681019082821181831017156200119b576200119b6200112a565b81604052838152866020858801011115620011b557600080fd5b836020870160208301376000602085830101528094505050505092915050565b60008060408385031215620011e957600080fd5b620011f48362000fb8565b9150602083013567ffffffffffffffff8111156200121157600080fd5b6200121f8582860162001140565b9150509250929050565b600080600080600060a086880312156200124257600080fd5b853567ffffffffffffffff808211156200125b57600080fd5b6200126989838a0162001140565b965060208801359150808211156200128057600080fd5b506200128f8882890162001140565b959895975050505060408401359360608101359360809091013592509050565b600080600060608486031215620012c557600080fd5b620012d08462000fb8565b9250602084013567ffffffffffffffff811115620012ed57600080fd5b620012fb8682870162001140565b9250506040840135600381106200131157600080fd5b809150509250925092565b600080600080600060a086880312156200133557600080fd5b620013408662000fb8565b9450620013506020870162000fb8565b94979496505050506040830135926060810135926080909101359150565b600181811c908216806200138357607f821691505b60208210811415620013a557634e487b7160e01b600052602260045260246000fd5b50919050565b60208082526010908201526f4e6f742043656e7472616c2042616e6b60801b604082015260600190565b634e487b7160e01b600052603260045260246000fd5b634e487b7160e01b600052601160045260246000fd5b600082821015620014165762001416620013eb565b500390565b60008219821115620014315762001431620013eb565b500190565b60006000198214156200144d576200144d620013eb565b5060010190565b634e487b7160e01b600052603160045260246000fd5b600060018060a01b03808a16835260e060208401526200148e60e084018a62000ffa565b8381036040850152620014a2818a62000ffa565b9250508660608401528560808401528460a084015280841660c0840152509897505050505050505056fe60806040523480156200001157600080fd5b50604051620011e9380380620011e9833981016040819052620000349162000197565b604080518082018252600d81526c4469676974616c20527570656560981b6020808301918252835180850190945260048452632224a22960e11b9084015281519192916200008591600391620000d4565b5080516200009b906004906020840190620000d4565b5050600580546001600160a01b039485166001600160a01b0319918216179091556006805493909416921691909117909155506200020c565b828054620000e290620001cf565b90600052602060002090601f01602090048101928262000106576000855562000151565b82601f106200012157805160ff191683800117855562000151565b8280016001018555821562000151579182015b828111156200015157825182559160200191906001019062000134565b506200015f92915062000163565b5090565b5b808211156200015f576000815560010162000164565b80516001600160a01b03811681146200019257600080fd5b919050565b60008060408385031215620001ab57600080fd5b620001b6836200017a565b9150620001c6602084016200017a565b90509250929050565b600181811c90821680620001e457607f821691505b602082108114156200020657634e487b7160e01b600052602260045260246000fd5b50919050565b610fcd806200021c6000396000f3fe608060405234801561001057600080fd5b50600436106100ea5760003560e01c806342966c681161008c578063a457c2d711610066578063a457c2d7146101d0578063a9059cbb146101e3578063db006a75146101f6578063dd62ed3e1461020957600080fd5b806342966c681461018c57806370a082311461019f57806395d89b41146101c857600080fd5b806323b872dd116100c857806323b872dd14610142578063313ce56714610155578063395093511461016457806340c10f191461017757600080fd5b806306fdde03146100ef578063095ea7b31461010d57806318160ddd14610130575b600080fd5b6100f761021c565b6040516101049190610bb3565b60405180910390f35b61012061011b366004610bfb565b6102ae565b6040519015158152602001610104565b6002545b604051908152602001610104565b610120610150366004610c27565b6102f2565b60405160128152602001610104565b610120610172366004610bfb565b6103d8565b61018a610185366004610bfb565b610404565b005b61018a61019a366004610c68565b610488565b6101346101ad366004610c81565b6001600160a01b031660009081526020819052604090205490565b6100f76104c9565b6101206101de366004610bfb565b6104d8565b6101206101f1366004610bfb565b610553565b61018a610204366004610c68565b6105aa565b610134610217366004610ca5565b610610565b60606003805461022b90610cde565b80601f016020809104026020016040519081016040528092919081815260200182805461025790610cde565b80156102a45780601f10610279576101008083540402835291602001916102a4565b820191906000526020600020905b81548152906001019060200180831161028757829003601f168201915b5050505050905090565b60006102b93361063b565b6102de5760405162461bcd60e51b81526004016102d590610d19565b60405180910390fd5b6102e93384846106d3565b50600192915050565b6000806102ff8533610610565b90506000198114610378578281101561036b5760405162461bcd60e51b815260206004820152602860248201527f45524332303a207472616e7366657220616d6f756e74206578636565647320616044820152676c6c6f77616e636560c01b60648201526084016102d5565b61037885338584036106d3565b6103818561063b565b61039d5760405162461bcd60e51b81526004016102d590610d19565b6103a68461063b565b6103c25760405162461bcd60e51b81526004016102d590610d61565b6103cd8585856107f8565b506001949350505050565b6000336103fa8185856103eb8383610610565b6103f59190610dab565b6106d3565b5060019392505050565b6005546001600160a01b0316336001600160a01b0316146104375760405162461bcd60e51b81526004016102d590610dd1565b610441828261099e565b816001600160a01b03167f9cb9c14f7bc76e3a89b796b091850526236115352a198b1e472f00e91376bbcb8260405161047c91815260200190565b60405180910390a25050565b6005546001600160a01b0316336001600160a01b0316146104bb5760405162461bcd60e51b81526004016102d590610dd1565b6104c6335b82610a5d565b50565b60606004805461022b90610cde565b600033816104e68286610610565b9050838110156105465760405162461bcd60e51b815260206004820152602560248201527f45524332303a2064656372656173656420616c6c6f77616e63652062656c6f77604482015264207a65726f60d81b60648201526084016102d5565b6103cd82868684036106d3565b600061055e3361063b565b61057a5760405162461bcd60e51b81526004016102d590610d19565b6105838361063b565b61059f5760405162461bcd60e51b81526004016102d590610d61565b6102e93384846107f8565b6105b33361063b565b6105cf5760405162461bcd60e51b81526004016102d590610d19565b6105d8336104c0565b60405181815233907fe6c82503aaaa3db78b70f183901ae8668918f895b3982b2c851cf2ffe0c6c6399060200160405180910390a250565b6001600160a01b03918216600090815260016020908152604080832093909416825291909152205490565b600654604051637143059f60e01b81526001600160a01b0383811660048301526000928392911690637143059f90602401600060405180830381865afa158015610689573d6000803e3d6000fd5b505050506040513d6000823e601f3d908101601f191682016040526106b19190810190610ea0565b90506001816040015160028111156106cb576106cb610f81565b149392505050565b6001600160a01b0383166107355760405162461bcd60e51b8152602060048201526024808201527f45524332303a20617070726f76652066726f6d20746865207a65726f206164646044820152637265737360e01b60648201526084016102d5565b6001600160a01b0382166107965760405162461bcd60e51b815260206004820152602260248201527f45524332303a20617070726f766520746f20746865207a65726f206164647265604482015261737360f01b60648201526084016102d5565b6001600160a01b0383811660008181526001602090815260408083209487168084529482529182902085905590518481527f8c5be1e5ebec7d5bd14f71427d1e84f3dd0314c0f7b2291e5b200ac8c7c3b92591015b60405180910390a3505050565b6001600160a01b03831661085c5760405162461bcd60e51b815260206004820152602560248201527f45524332303a207472616e736665722066726f6d20746865207a65726f206164604482015264647265737360d81b60648201526084016102d5565b6001600160a01b0382166108be5760405162461bcd60e51b815260206004820152602360248201527f45524332303a207472616e7366657220746f20746865207a65726f206164647260448201526265737360e81b60648201526084016102d5565b6001600160a01b038316600090815260208190526040902054818110156109365760405162461bcd60e51b815260206004820152602660248201527f45524332303a207472616e7366657220616d6f756e7420657863656564732062604482015265616c616e636560d01b60648201526084016102d5565b6001600160a01b03848116600081815260208181526040808320878703905593871680835291849020805487019055925185815290927fddf252ad1be2c89b69c2b068fc378daa952ba7f163c4a11628f55a4df523b3ef910160405180910390a35b50505050565b6001600160a01b0382166109f45760405162461bcd60e51b815260206004820152601f60248201527f45524332303a206d696e7420746f20746865207a65726f20616464726573730060448201526064016102d5565b8060026000828254610a069190610dab565b90915550506001600160a01b038216600081815260208181526040808320805486019055518481527fddf252ad1be2c89b69c2b068fc378daa952ba7f163c4a11628f55a4df523b3ef910160405180910390a35050565b6001600160a01b038216610abd5760405162461bcd60e51b815260206004820152602160248201527f45524332303a206275726e2066726f6d20746865207a65726f206164647265736044820152607360f81b60648201526084016102d5565b6001600160a01b03821660009081526020819052604090205481811015610b315760405162461bcd60e51b815260206004820152602260248201527f45524332303a206275726e20616d6f756e7420657863656564732062616c616e604482015261636560f01b60648201526084016102d5565b6001600160a01b0383166000818152602081815260408083208686039055600280548790039055518581529192917fddf252ad1be2c89b69c2b068fc378daa952ba7f163c4a11628f55a4df523b3ef91016107eb565b60005b83811015610ba2578181015183820152602001610b8a565b838111156109985750506000910152565b6020815260008251806020840152610bd2816040850160208701610b87565b601f01601f19169190910160400192915050565b6001600160a01b03811681146104c657600080fd5b60008060408385031215610c0e57600080fd5b8235610c1981610be6565b946020939093013593505050565b600080600060608486031215610c3c57600080fd5b8335610c4781610be6565b92506020840135610c5781610be6565b929592945050506040919091013590565b600060208284031215610c7a57600080fd5b5035919050565b600060208284031215610c9357600080fd5b8135610c9e81610be6565b9392505050565b60008060408385031215610cb857600080fd5b8235610cc381610be6565b91506020830135610cd381610be6565b809150509250929050565b600181811c90821680610cf257607f821691505b60208210811415610d1357634e487b7160e01b600052602260045260246000fd5b50919050565b60208082526028908201527f73656e646572206973206e6f7420616e206163746976652043424443207061726040820152671d1a58da5c185b9d60c21b606082015260800190565b6020808252602a908201527f7265636569766572206973206e6f7420616e2061637469766520434244432070604082015269185c9d1a58da5c185b9d60b21b606082015260800190565b60008219821115610dcc57634e487b7160e01b600052601160045260246000fd5b500190565b6020808252602b908201527f4572726f722c206d73672e73656e64657220646f6573206e6f7420686176652060408201526a6d696e74657220726f6c6560a81b606082015260800190565b634e487b7160e01b600052604160045260246000fd5b6040516060810167ffffffffffffffff81118282101715610e5557610e55610e1c565b60405290565b604051601f8201601f1916810167ffffffffffffffff81118282101715610e8457610e84610e1c565b604052919050565b805160038110610e9b57600080fd5b919050565b60006020808385031215610eb357600080fd5b825167ffffffffffffffff80821115610ecb57600080fd5b9084019060608287031215610edf57600080fd5b610ee7610e32565b8251610ef281610be6565b81528284015182811115610f0557600080fd5b8301601f81018813610f1657600080fd5b805183811115610f2857610f28610e1c565b610f3a601f8201601f19168701610e5b565b93508084528886828401011115610f5057600080fd5b610f5f81878601888501610b87565b50508184820152610f7260408401610e8c565b60408201529695505050505050565b634e487b7160e01b600052602160045260246000fdfea264697066735822122090f02ffa1d6007a691f2e3b0fcc04b03d80f172d03c69bbc0eff7de367853ed164736f6c634300080b003360806040523480156200001157600080fd5b50604051620014d1380380620014d18339810160408190526200003491620003bd565b8551869086906200004d9060039060208501906200022d565b508051620000639060049060208401906200022d565b5050600580546001600160a01b0319166001600160a01b038a16179055506200009062015180846200046a565b61ef10146200010c5760405162461bcd60e51b815260206004820152603a60248201527f72656c656173652064617465206d75737420626520617420616e20657861637460448201527f20646174652061742030303a303020474d542b3720285749422900000000000060648201526084015b60405180910390fd5b6200011b62015180836200046a565b61ef1014620001935760405162461bcd60e51b815260206004820152603b60248201527f6d617475726974792064617465206d75737420626520617420616e206578616360448201527f7420646174652061742030303a303020474d542b372028574942290000000000606482015260840162000103565b828211620001f55760405162461bcd60e51b815260206004820152602860248201527f6d617475726974792064617465206d7573742062652061667465722072656c65604482015267617365206461746560c01b606482015260840162000103565b600793909355600891909155600955600680546001600160a01b0319166001600160a01b0390921691909117905550620004ca915050565b8280546200023b906200048d565b90600052602060002090601f0160209004810192826200025f5760008555620002aa565b82601f106200027a57805160ff1916838001178555620002aa565b82800160010185558215620002aa579182015b82811115620002aa5782518255916020019190600101906200028d565b50620002b8929150620002bc565b5090565b5b80821115620002b85760008155600101620002bd565b80516001600160a01b0381168114620002eb57600080fd5b919050565b634e487b7160e01b600052604160045260246000fd5b600082601f8301126200031857600080fd5b81516001600160401b0380821115620003355762000335620002f0565b604051601f8301601f19908116603f01168101908282118183101715620003605762000360620002f0565b816040528381526020925086838588010111156200037d57600080fd5b600091505b83821015620003a1578582018301518183018401529082019062000382565b83821115620003b35760008385830101525b9695505050505050565b600080600080600080600060e0888a031215620003d957600080fd5b620003e488620002d3565b60208901519097506001600160401b03808211156200040257600080fd5b620004108b838c0162000306565b975060408a01519150808211156200042757600080fd5b50620004368a828b0162000306565b955050606088015193506080880151925060a088015191506200045c60c08901620002d3565b905092959891949750929550565b6000826200048857634e487b7160e01b600052601260045260246000fd5b500690565b600181811c90821680620004a257607f821691505b60208210811415620004c457634e487b7160e01b600052602260045260246000fd5b50919050565b610ff780620004da6000396000f3fe608060405234801561001057600080fd5b506004361061010b5760003560e01c80634aa354a0116100a2578063a1da7fab11610071578063a1da7fab14610203578063a457c2d71461020c578063a9059cbb1461021f578063db006a7514610232578063dd62ed3e1461024557600080fd5b80634aa354a0146101c0578063680b4026146101c957806370a08231146101d257806395d89b41146101fb57600080fd5b8063313ce567116100de578063313ce56714610176578063395093511461018557806340c10f191461019857806342966c68146101ad57600080fd5b806306fdde0314610110578063095ea7b31461012e57806318160ddd1461015157806323b872dd14610163575b600080fd5b610118610258565b6040516101259190610bdd565b60405180910390f35b61014161013c366004610c25565b6102ea565b6040519015158152602001610125565b6002545b604051908152602001610125565b610141610171366004610c51565b61032e565b60405160008152602001610125565b610141610193366004610c25565b610414565b6101ab6101a6366004610c25565b610440565b005b6101ab6101bb366004610c92565b6104bb565b61015560075481565b61015560095481565b6101556101e0366004610cab565b6001600160a01b031660009081526020819052604090205490565b6101186104f3565b61015560085481565b61014161021a366004610c25565b610502565b61014161022d366004610c25565b61057d565b6101ab610240366004610c92565b6105d4565b610155610253366004610ccf565b61063a565b60606003805461026790610d08565b80601f016020809104026020016040519081016040528092919081815260200182805461029390610d08565b80156102e05780601f106102b5576101008083540402835291602001916102e0565b820191906000526020600020905b8154815290600101906020018083116102c357829003601f168201915b5050505050905090565b60006102f533610665565b61031a5760405162461bcd60e51b815260040161031190610d43565b60405180910390fd5b6103253384846106fd565b50600192915050565b60008061033b853361063a565b905060001981146103b457828110156103a75760405162461bcd60e51b815260206004820152602860248201527f45524332303a207472616e7366657220616d6f756e74206578636565647320616044820152676c6c6f77616e636560c01b6064820152608401610311565b6103b485338584036106fd565b6103bd85610665565b6103d95760405162461bcd60e51b815260040161031190610d43565b6103e284610665565b6103fe5760405162461bcd60e51b815260040161031190610d8b565b610409858585610822565b506001949350505050565b600033610436818585610427838361063a565b6104319190610dd5565b6106fd565b5060019392505050565b6005546001600160a01b0316331461046a5760405162461bcd60e51b815260040161031190610dfb565b61047482826109c8565b816001600160a01b03167f9cb9c14f7bc76e3a89b796b091850526236115352a198b1e472f00e91376bbcb826040516104af91815260200190565b60405180910390a25050565b6005546001600160a01b031633146104e55760405162461bcd60e51b815260040161031190610dfb565b6104f0335b82610a87565b50565b60606004805461026790610d08565b60003381610510828661063a565b9050838110156105705760405162461bcd60e51b815260206004820152602560248201527f45524332303a2064656372656173656420616c6c6f77616e63652062656c6f77604482015264207a65726f60d81b6064820152608401610311565b61040982868684036106fd565b600061058833610665565b6105a45760405162461bcd60e51b815260040161031190610d43565b6105ad83610665565b6105c95760405162461bcd60e51b815260040161031190610d8b565b610325338484610822565b6105dd33610665565b6105f95760405162461bcd60e51b815260040161031190610d43565b610602336104ea565b60405181815233907fe6c82503aaaa3db78b70f183901ae8668918f895b3982b2c851cf2ffe0c6c6399060200160405180910390a250565b6001600160a01b03918216600090815260016020908152604080832093909416825291909152205490565b600654604051637143059f60e01b81526001600160a01b0383811660048301526000928392911690637143059f90602401600060405180830381865afa1580156106b3573d6000803e3d6000fd5b505050506040513d6000823e601f3d908101601f191682016040526106db9190810190610eca565b90506001816040015160028111156106f5576106f5610fab565b149392505050565b6001600160a01b03831661075f5760405162461bcd60e51b8152602060048201526024808201527f45524332303a20617070726f76652066726f6d20746865207a65726f206164646044820152637265737360e01b6064820152608401610311565b6001600160a01b0382166107c05760405162461bcd60e51b815260206004820152602260248201527f45524332303a20617070726f766520746f20746865207a65726f206164647265604482015261737360f01b6064820152608401610311565b6001600160a01b0383811660008181526001602090815260408083209487168084529482529182902085905590518481527f8c5be1e5ebec7d5bd14f71427d1e84f3dd0314c0f7b2291e5b200ac8c7c3b92591015b60405180910390a3505050565b6001600160a01b0383166108865760405162461bcd60e51b815260206004820152602560248201527f45524332303a207472616e736665722066726f6d20746865207a65726f206164604482015264647265737360d81b6064820152608401610311565b6001600160a01b0382166108e85760405162461bcd60e51b815260206004820152602360248201527f45524332303a207472616e7366657220746f20746865207a65726f206164647260448201526265737360e81b6064820152608401610311565b6001600160a01b038316600090815260208190526040902054818110156109605760405162461bcd60e51b815260206004820152602660248201527f45524332303a207472616e7366657220616d6f756e7420657863656564732062604482015265616c616e636560d01b6064820152608401610311565b6001600160a01b03848116600081815260208181526040808320878703905593871680835291849020805487019055925185815290927fddf252ad1be2c89b69c2b068fc378daa952ba7f163c4a11628f55a4df523b3ef910160405180910390a35b50505050565b6001600160a01b038216610a1e5760405162461bcd60e51b815260206004820152601f60248201527f45524332303a206d696e7420746f20746865207a65726f2061646472657373006044820152606401610311565b8060026000828254610a309190610dd5565b90915550506001600160a01b038216600081815260208181526040808320805486019055518481527fddf252ad1be2c89b69c2b068fc378daa952ba7f163c4a11628f55a4df523b3ef910160405180910390a35050565b6001600160a01b038216610ae75760405162461bcd60e51b815260206004820152602160248201527f45524332303a206275726e2066726f6d20746865207a65726f206164647265736044820152607360f81b6064820152608401610311565b6001600160a01b03821660009081526020819052604090205481811015610b5b5760405162461bcd60e51b815260206004820152602260248201527f45524332303a206275726e20616d6f756e7420657863656564732062616c616e604482015261636560f01b6064820152608401610311565b6001600160a01b0383166000818152602081815260408083208686039055600280548790039055518581529192917fddf252ad1be2c89b69c2b068fc378daa952ba7f163c4a11628f55a4df523b3ef9101610815565b60005b83811015610bcc578181015183820152602001610bb4565b838111156109c25750506000910152565b6020815260008251806020840152610bfc816040850160208701610bb1565b601f01601f19169190910160400192915050565b6001600160a01b03811681146104f057600080fd5b60008060408385031215610c3857600080fd5b8235610c4381610c10565b946020939093013593505050565b600080600060608486031215610c6657600080fd5b8335610c7181610c10565b92506020840135610c8181610c10565b929592945050506040919091013590565b600060208284031215610ca457600080fd5b5035919050565b600060208284031215610cbd57600080fd5b8135610cc881610c10565b9392505050565b60008060408385031215610ce257600080fd5b8235610ced81610c10565b91506020830135610cfd81610c10565b809150509250929050565b600181811c90821680610d1c57607f821691505b60208210811415610d3d57634e487b7160e01b600052602260045260246000fd5b50919050565b60208082526028908201527f73656e646572206973206e6f7420616e206163746976652043424443207061726040820152671d1a58da5c185b9d60c21b606082015260800190565b6020808252602a908201527f7265636569766572206973206e6f7420616e2061637469766520434244432070604082015269185c9d1a58da5c185b9d60b21b606082015260800190565b60008219821115610df657634e487b7160e01b600052601160045260246000fd5b500190565b6020808252602b908201527f4572726f722c206d73672e73656e64657220646f6573206e6f7420686176652060408201526a6d696e74657220726f6c6560a81b606082015260800190565b634e487b7160e01b600052604160045260246000fd5b6040516060810167ffffffffffffffff81118282101715610e7f57610e7f610e46565b60405290565b604051601f8201601f1916810167ffffffffffffffff81118282101715610eae57610eae610e46565b604052919050565b805160038110610ec557600080fd5b919050565b60006020808385031215610edd57600080fd5b825167ffffffffffffffff80821115610ef557600080fd5b9084019060608287031215610f0957600080fd5b610f11610e5c565b8251610f1c81610c10565b81528284015182811115610f2f57600080fd5b8301601f81018813610f4057600080fd5b805183811115610f5257610f52610e46565b610f64601f8201601f19168701610e85565b93508084528886828401011115610f7a57600080fd5b610f8981878601888501610bb1565b50508184820152610f9c60408401610eb6565b60408201529695505050505050565b634e487b7160e01b600052602160045260246000fdfea26469706673582212205ae19c30b6f47e1620e02e1b67d812cdd9fc3cd8d4dd2abb371de1aeac263ccf64736f6c634300080b0033608060405234801561001057600080fd5b50604051610acf380380610acf83398101604081905261002f916102ad565b826001600160a01b0316866001600160a01b031614156100a15760405162461bcd60e51b815260206004820152602260248201527f627579657220616e642073656c6c6572206d75737420626520646966666572656044820152611b9d60f21b60648201526084015b60405180910390fd5b6100ad610e108261031e565b156101055760405162461bcd60e51b815260206004820152602260248201527f457870697265642064617465206d75737420617420616e20657861637420686f6044820152613ab960f11b6064820152608401610098565b6101124262015180610340565b8111156101755760405162461bcd60e51b815260206004820152602b60248201527f457870697265642064617465206d757374206e6f74206578636565642031206460448201526a61792066726f6d206e6f7760a81b6064820152608401610098565b600080546001600160a01b038981166001600160a01b03199283161790925560018054898416908316179055600287905560038054878416908316811790915560048054938716939092168317825560058590556040516370a0823160e01b8152918201929092528391906370a0823190602401602060405180830381865afa158015610206573d6000803e3d6000fd5b505050506040513d601f19601f8201168201806040525081019061022a9190610366565b10156102785760405162461bcd60e51b815260206004820152601c60248201527f53424e20756e69747320746f2073656c6c206e6f7420656e6f756768000000006044820152606401610098565b60075550506006805460ff191690555061037f92505050565b80516001600160a01b03811681146102a857600080fd5b919050565b600080600080600080600060e0888a0312156102c857600080fd5b6102d188610291565b96506102df60208901610291565b9550604088015194506102f460608901610291565b935061030260808901610291565b925060a0880151915060c0880151905092959891949750929550565b60008261033b57634e487b7160e01b600052601260045260246000fd5b500690565b6000821982111561036157634e487b7160e01b600052601160045260246000fd5b500190565b60006020828403121561037857600080fd5b5051919050565b6107418061038e6000396000f3fe608060405234801561001057600080fd5b50600436106100a95760003560e01c806380b8db201161007157806380b8db201461011d57806390be042a14610134578063ad92226b1461013d578063b53f5ef814610150578063ea8a1af014610163578063f17fffb71461016b57600080fd5b806308551a53146100ae578063200d2ed2146100de5780632852b71c146100f85780634dc415de146101025780637150d8ae1461010a575b600080fd5b6004546100c1906001600160a01b031681565b6040516001600160a01b0390911681526020015b60405180910390f35b6006546100eb9060ff1681565b6040516100d59190610672565b610100610174565b005b610100610457565b6001546100c1906001600160a01b031681565b61012660025481565b6040519081526020016100d5565b61012660055481565b6000546100c1906001600160a01b031681565b6003546100c1906001600160a01b031681565b6101006104f3565b61012660075481565b6001546001600160a01b031633146101cb5760405162461bcd60e51b815260206004820152601560248201527413db9b1e48109d5e595c8810d85b881058d8d95c1d605a1b60448201526064015b60405180910390fd5b600060065460ff1660038111156101e4576101e461065c565b146102015760405162461bcd60e51b81526004016101c29061069a565b6007544211156102455760405162461bcd60e51b815260206004820152600f60248201526e14995c5d595cdd08195e1c1a5c9959608a1b60448201526064016101c2565b600254600054600154604051636eb1769f60e11b81526001600160a01b03918216600482015230602482015291169063dd62ed3e90604401602060405180830381865afa15801561029a573d6000803e3d6000fd5b505050506040513d601f19601f820116820180604052508101906102be91906106c9565b101561031f5760405162461bcd60e51b815260206004820152602a60248201527f42757965722773204469676974616c20527570656520616c6c6f77616e636520604482015269697320746f6f206c6f7760b01b60648201526084016101c2565b60055460035460048054604051636eb1769f60e11b81526001600160a01b03918216928101929092523060248301529091169063dd62ed3e90604401602060405180830381865afa158015610378573d6000803e3d6000fd5b505050506040513d601f19601f8201168201806040525081019061039c91906106c9565b10156103f45760405162461bcd60e51b815260206004820152602160248201527f53656c6c657227732053424e20616c6c6f77616e636520697320746f6f206c6f6044820152607760f81b60648201526084016101c2565b60005460015460045460025461041a936001600160a01b0390811693811692169061058f565b600354600454600154600554610440936001600160a01b0390811693811692169061058f565b600680546003919060ff19166001835b0217905550565b6001546001600160a01b031633146104a95760405162461bcd60e51b815260206004820152601560248201527413db9b1e48189d5e595c8818d85b881c995a9958dd605a1b60448201526064016101c2565b600060065460ff1660038111156104c2576104c261065c565b146104df5760405162461bcd60e51b81526004016101c29061069a565b600680546002919060ff1916600183610450565b6004546001600160a01b031633146105465760405162461bcd60e51b815260206004820152601660248201527513db9b1e481cd95b1b195c8818d85b8818d85b98d95b60521b60448201526064016101c2565b600060065460ff16600381111561055f5761055f61065c565b1461057c5760405162461bcd60e51b81526004016101c29061069a565b600680546001919060ff19168280610450565b6040516323b872dd60e01b81526001600160a01b038481166004830152838116602483015260448201839052600091908616906323b872dd906064016020604051808303816000875af11580156105ea573d6000803e3d6000fd5b505050506040513d601f19601f8201168201806040525081019061060e91906106e2565b9050806106555760405162461bcd60e51b8152602060048201526015602482015274151bdad95b881d1c985b9cd9995c8819985a5b1959605a1b60448201526064016101c2565b5050505050565b634e487b7160e01b600052602160045260246000fd5b602081016004831061069457634e487b7160e01b600052602160045260246000fd5b91905290565b60208082526015908201527414995c5d595cdd081dd85cc818dbdb5c1b195d1959605a1b604082015260600190565b6000602082840312156106db57600080fd5b5051919050565b6000602082840312156106f457600080fd5b8151801515811461070457600080fd5b939250505056fea2646970667358221220914737e0a101efe21c0e8dfac4a36d3808bc12add60abd4ef5ff52e6d74116d464736f6c634300080b0033a2646970667358221220074c36e89ec04a828aeb688dab4b69efde7b6256019d43629e3ddb30ef54f2be64736f6c634300080b0033",
  "immutableReferences": {
    "720": [
      {
        "length": 32,
        "start": 264
      },
      {
        "length": 32,
        "start": 979
      },
      {
        "length": 32,
        "start": 1841
      },
      {
        "length": 32,
        "start": 1907
      },
      {
        "length": 32,
        "start": 2068
      },
      {
        "length": 32,
        "start": 2506
      },
      {
        "length": 32,
        "start": 2574
      },
      {
        "length": 32,
        "start": 2772
      }
    ]
  },
  "source": "// SPDX-License-Identifier: MIT\npragma solidity 0.8.11;\n\nimport \"./Participant_Struct.sol\";\nimport \"./DigitalRupee.sol\";\nimport \"./Request.sol\";\nimport \"./SBN.sol\";\n\nimport \"openzeppelin-solidity/contracts/token/ERC20/IERC20.sol\";\n\ncontract CBDC_Dapps {\n    address public immutable ReserveBankofIndiaAddress;\n\n    modifier isReserveBankofIndia() {\n        require(msg.sender == ReserveBankofIndiaAddress, \"Not Central Bank\");\n        _;\n    }\n\n    constructor() {\n        ReserveBankofIndiaAddress = msg.sender;\n\n        addParticipant(msg.sender, \"Central Bank\");\n    }\n\n    // create DigitalRupee\n\n    DigitalRupee public digitalRupee;\n\n    function createDigitalRupee() public isReserveBankofIndia {\n        digitalRupee = new DigitalRupee(\n            ReserveBankofIndiaAddress,\n            address(this)\n        );\n    }\n\n    // modifying participant\n\n    address[] public participantAddresses;\n\n    mapping(address => Participant) public addressToParticipant;\n\n    function addParticipant(\n        address _address,\n        string memory _name\n    ) public isReserveBankofIndia {\n        require(\n            addressToParticipant[_address].status == ParticipantStatus.NotExist,\n            \"participant already exist, use edit instead\"\n        );\n\n        Participant memory _participant = Participant({\n            account: _address,\n            status: ParticipantStatus.Active,\n            name: _name\n        });\n        participantAddresses.push(_address);\n        addressToParticipant[_address] = _participant;\n    }\n\n    function editParticipant(\n        address _address,\n        string memory _name,\n        ParticipantStatus _status\n    ) public isReserveBankofIndia {\n        require(\n            _status != ParticipantStatus.NotExist,\n            \"to delete participant, use remove participant\"\n        );\n        addressToParticipant[_address].status = _status;\n        addressToParticipant[_address].name = _name;\n    }\n\n    //disclaimer: this function must be rarely called, e.g. when a company (participant) went bankrupt. Otherwise use edit participant\n    function removeParticipant(uint256 _index) public isReserveBankofIndia {\n        require(_index < participantAddresses.length, \"index out of bound\");\n\n        address _address = participantAddresses[_index];\n        delete addressToParticipant[_address];\n\n        for (uint256 i = _index; i < participantAddresses.length - 1; i++) {\n            participantAddresses[i] = participantAddresses[i + 1];\n        }\n        participantAddresses.pop();\n    }\n\n    function getParticipant(\n        address _address\n    ) external view returns (Participant memory) {\n        return addressToParticipant[_address];\n    }\n\n    function getAllParticipantAddresses()\n        public\n        view\n        returns (address[] memory)\n    {\n        return participantAddresses;\n    }\n\n    //\n\n    modifier callerIsActiveParticipant() {\n        require(\n            addressToParticipant[msg.sender].status == ParticipantStatus.Active,\n            \"caller is not an active participant\"\n        );\n        _;\n    }\n\n    // SBN Factory\n    SBN[] public sbnAddresses;\n\n    function createSBN(\n        string memory _name,\n        string memory _symbol,\n        uint256 _initialUnitPrice,\n        uint256 _releasedDate,\n        uint256 _maturityDate\n    ) public isReserveBankofIndia {\n        SBN _sbn = new SBN({\n            _minter: ReserveBankofIndiaAddress,\n            _name: _name,\n            _symbol: _symbol,\n            _initialUnitPrice: _initialUnitPrice,\n            _releasedDate: _releasedDate,\n            _maturityDate: _maturityDate,\n            _cbdc: address(this)\n        });\n\n        sbnAddresses.push(_sbn);\n    }\n\n    function getSbnAddresses() public view returns (SBN[] memory) {\n        return sbnAddresses;\n    }\n\n    event NewRequest(\n        address indexed buyer,\n        address indexed seller,\n        address indexed SBN,\n        uint256 sbnAmount,\n        uint256 rupeeAmount,\n        uint256 expired_date,\n        Request requestAddress\n    );\n\n    function createSellRequest(\n        address _SBN,\n        address _buyer,\n        uint256 _sbnAmount,\n        uint256 _rupeeAmount,\n        uint256 _expiredDate\n    ) public callerIsActiveParticipant {\n        require(\n            addressToParticipant[_buyer].status == ParticipantStatus.Active,\n            \"buyer is not an active participant\"\n        );\n\n        address _digitalRupee = address(digitalRupee);\n        address _seller = msg.sender;\n\n        Request _request = new Request({\n            _digitalRupee: _digitalRupee,\n            _buyer: _buyer,\n            _rupeeAmount: _rupeeAmount,\n            _SBN: _SBN,\n            _seller: _seller,\n            _sbnAmount: _sbnAmount,\n            _expiredDate: _expiredDate\n        });\n\n        emit NewRequest(\n            _buyer,\n            _seller,\n            _SBN,\n            _sbnAmount,\n            _rupeeAmount,\n            _expiredDate,\n            _request\n        );\n\n        // make sure to guide seller to approve their SBN on the dapps, because it is not possible to approve using this contract\n    }\n}\n",
  "sourcePath": "/home/dkvhem/Documents/Final-Year-Project/test/test2/cbdc/contracts/CBDC_Dapps.sol",
  "compiler": {
    "name": "solc",
    "version": "0.8.11+commit.d7f03943.Emscripten.clang"
  },
  "schemaVersion": "3.4.4",
  "updatedAt": "2024-04-22T16:15:00.170Z",
  "networkType": "ethereum",
  "devdoc": {
    "kind": "dev",
    "methods": {},
    "version": 1
  },
  "userdoc": {
    "kind": "user",
    "methods": {},
    "version": 1
  }
}