{
  "contractName": "CBDC_Dapps",
  "abi": [
    {
      "inputs": [],
      "stateMutability": "nonpayable",
      "type": "constructor"
    },
    {
      "anonymous": false,
      "inputs": [
        {
          "indexed": true,
          "internalType": "address",
          "name": "buyer",
          "type": "address"
        },
        {
          "indexed": true,
          "internalType": "address",
          "name": "seller",
          "type": "address"
        },
        {
          "indexed": true,
          "internalType": "address",
          "name": "SBN",
          "type": "address"
        },
        {
          "indexed": false,
          "internalType": "uint256",
          "name": "sbnAmount",
          "type": "uint256"
        },
        {
          "indexed": false,
          "internalType": "uint256",
          "name": "rupeeAmount",
          "type": "uint256"
        },
        {
          "indexed": false,
          "internalType": "uint256",
          "name": "expired_date",
          "type": "uint256"
        },
        {
          "indexed": false,
          "internalType": "contract Request",
          "name": "requestAddress",
          "type": "address"
        }
      ],
      "name": "NewRequest",
      "type": "event"
    },
    {
      "inputs": [],
      "name": "BankIndonesiaAddress",
      "outputs": [
        {
          "internalType": "address",
          "name": "",
          "type": "address"
        }
      ],
      "stateMutability": "view",
      "type": "function",
      "constant": true
    },
    {
      "inputs": [
        {
          "internalType": "address",
          "name": "",
          "type": "address"
        }
      ],
      "name": "addressToParticipant",
      "outputs": [
        {
          "internalType": "address",
          "name": "account",
          "type": "address"
        },
        {
          "internalType": "string",
          "name": "name",
          "type": "string"
        },
        {
          "internalType": "enum ParticipantStatus",
          "name": "status",
          "type": "uint8"
        }
      ],
      "stateMutability": "view",
      "type": "function",
      "constant": true
    },
    {
      "inputs": [],
      "name": "digitalRupee",
      "outputs": [
        {
          "internalType": "contract DigitalRupee",
          "name": "",
          "type": "address"
        }
      ],
      "stateMutability": "view",
      "type": "function",
      "constant": true
    },
    {
      "inputs": [
        {
          "internalType": "uint256",
          "name": "",
          "type": "uint256"
        }
      ],
      "name": "participantAddresses",
      "outputs": [
        {
          "internalType": "address",
          "name": "",
          "type": "address"
        }
      ],
      "stateMutability": "view",
      "type": "function",
      "constant": true
    },
    {
      "inputs": [
        {
          "internalType": "uint256",
          "name": "",
          "type": "uint256"
        }
      ],
      "name": "sbnAddresses",
      "outputs": [
        {
          "internalType": "contract SBN",
          "name": "",
          "type": "address"
        }
      ],
      "stateMutability": "view",
      "type": "function",
      "constant": true
    },
    {
      "inputs": [],
      "name": "createDigitalRupee",
      "outputs": [],
      "stateMutability": "nonpayable",
      "type": "function"
    },
    {
      "inputs": [
        {
          "internalType": "address",
          "name": "_address",
          "type": "address"
        },
        {
          "internalType": "string",
          "name": "_name",
          "type": "string"
        }
      ],
      "name": "addParticipant",
      "outputs": [],
      "stateMutability": "nonpayable",
      "type": "function"
    },
    {
      "inputs": [
        {
          "internalType": "address",
          "name": "_address",
          "type": "address"
        },
        {
          "internalType": "string",
          "name": "_name",
          "type": "string"
        },
        {
          "internalType": "enum ParticipantStatus",
          "name": "_status",
          "type": "uint8"
        }
      ],
      "name": "editParticipant",
      "outputs": [],
      "stateMutability": "nonpayable",
      "type": "function"
    },
    {
      "inputs": [
        {
          "internalType": "uint256",
          "name": "_index",
          "type": "uint256"
        }
      ],
      "name": "removeParticipant",
      "outputs": [],
      "stateMutability": "nonpayable",
      "type": "function"
    },
    {
      "inputs": [
        {
          "internalType": "address",
          "name": "_address",
          "type": "address"
        }
      ],
      "name": "getParticipant",
      "outputs": [
        {
          "components": [
            {
              "internalType": "address",
              "name": "account",
              "type": "address"
            },
            {
              "internalType": "string",
              "name": "name",
              "type": "string"
            },
            {
              "internalType": "enum ParticipantStatus",
              "name": "status",
              "type": "uint8"
            }
          ],
          "internalType": "struct Participant",
          "name": "",
          "type": "tuple"
        }
      ],
      "stateMutability": "view",
      "type": "function",
      "constant": true
    },
    {
      "inputs": [],
      "name": "getAllParticipantAddresses",
      "outputs": [
        {
          "internalType": "address[]",
          "name": "",
          "type": "address[]"
        }
      ],
      "stateMutability": "view",
      "type": "function",
      "constant": true
    },
    {
      "inputs": [
        {
          "internalType": "string",
          "name": "_name",
          "type": "string"
        },
        {
          "internalType": "string",
          "name": "_symbol",
          "type": "string"
        },
        {
          "internalType": "uint256",
          "name": "_initialUnitPrice",
          "type": "uint256"
        },
        {
          "internalType": "uint256",
          "name": "_releasedDate",
          "type": "uint256"
        },
        {
          "internalType": "uint256",
          "name": "_maturityDate",
          "type": "uint256"
        }
      ],
      "name": "createSBN",
      "outputs": [],
      "stateMutability": "nonpayable",
      "type": "function"
    },
    {
      "inputs": [],
      "name": "getSbnAddresses",
      "outputs": [
        {
          "internalType": "contract SBN[]",
          "name": "",
          "type": "address[]"
        }
      ],
      "stateMutability": "view",
      "type": "function",
      "constant": true
    },
    {
      "inputs": [
        {
          "internalType": "address",
          "name": "_SBN",
          "type": "address"
        },
        {
          "internalType": "address",
          "name": "_buyer",
          "type": "address"
        },
        {
          "internalType": "uint256",
          "name": "_sbnAmount",
          "type": "uint256"
        },
        {
          "internalType": "uint256",
          "name": "_rupeeAmount",
          "type": "uint256"
        },
        {
          "internalType": "uint256",
          "name": "_expiredDate",
          "type": "uint256"
        }
      ],
      "name": "createSellRequest",
      "outputs": [],
      "stateMutability": "nonpayable",
      "type": "function"
    }
  ],
  "bytecode": "0x60a06040523480156200001157600080fd5b5033608081905260408051808201909152600c81526b43656e7472616c2042616e6b60a01b60208201526200004791906200004d565b62000395565b6080516001600160a01b0316336001600160a01b031614620000a95760405162461bcd60e51b815260206004820152601060248201526f4e6f742043656e7472616c2042616e6b60801b60448201526064015b60405180910390fd5b6001600160a01b0382166000908152600260208190526040822081015460ff1690811115620000dc57620000dc6200020e565b146200013f5760405162461bcd60e51b815260206004820152602b60248201527f7061727469636970616e7420616c72656164792065786973742c20757365206560448201526a191a5d081a5b9cdd19585960aa1b6064820152608401620000a0565b604080516060810182526001600160a01b0384811680835260208084018681526001858701819052805480820182557fb10e2d527612073b26eecdfd717e6a320cf44b4afac2b0732d9fcbe2b7fa0cf60180546001600160a01b0319908116861790915560009485526002909352959092208451815490921691909316178255519192839290820190620001d49082620002c9565b5060408201518160020160006101000a81548160ff021916908360028111156200020257620002026200020e565b02179055505050505050565b634e487b7160e01b600052602160045260246000fd5b634e487b7160e01b600052604160045260246000fd5b600181811c908216806200024f57607f821691505b6020821081036200027057634e487b7160e01b600052602260045260246000fd5b50919050565b601f821115620002c457600081815260208120601f850160051c810160208610156200029f5750805b601f850160051c820191505b81811015620002c057828155600101620002ab565b5050505b505050565b81516001600160401b03811115620002e557620002e562000224565b620002fd81620002f684546200023a565b8462000276565b602080601f8311600181146200033557600084156200031c5750858301515b600019600386901b1c1916600185901b178555620002c0565b600085815260208120601f198616915b82811015620003665788860151825594840194600190910190840162000345565b5085821015620003855787850151600019600388901b60f8161c191681555b5050505050600190811b01905550565b6080516147d1620003e260003960008181610108015281816103d301528181610742015281816108f201528181610936015281816109fc01528181610a3e0152610ace01526147d16000f3fe60806040523480156200001157600080fd5b5060043610620000fd5760003560e01c80637143059f1162000097578063bebe18d3116200006e578063bebe18d3146200022a578063bedd94911462000241578063d4bd4fa8146200024b578063d71bfd5c146200026257600080fd5b80637143059f14620001d657806392d2661314620001fc578063b68feb84146200021357600080fd5b806354ffbddb11620000d857806354ffbddb146200018857806362ccceaa146200019f578063683f7f2714620001b35780636881143114620001cc57600080fd5b8063117499d1146200010257806318f78e2d1462000147578063341b92461462000160575b600080fd5b6200012a7f000000000000000000000000000000000000000000000000000000000000000081565b6040516001600160a01b0390911681526020015b60405180910390f35b6200015162000279565b6040516200013e919062000ecd565b620001776200017136600462000f39565b620002dd565b6040516200013e9392919062000fdf565b6200012a620001993660046200101e565b6200039d565b6000546200012a906001600160a01b031681565b620001ca620001c43660046200101e565b620003c8565b005b62000151620005af565b620001ed620001e736600462000f39565b62000611565b6040516200013e919062001038565b6200012a6200020d3660046200101e565b62000726565b620001ca6200022436600462001131565b62000737565b620001ca6200023b36600462001185565b620008e7565b620001ca620009f1565b620001ca6200025c3660046200120b565b62000ac3565b620001ca6200027336600462001278565b62000bfb565b60606003805480602002602001604051908101604052809291908181526020018280548015620002d357602002820191906000526020600020905b81546001600160a01b03168152600190910190602001808311620002b4575b5050505050905090565b600260205260009081526040902080546001820180546001600160a01b0390921692916200030b90620012ca565b80601f01602080910402602001604051908101604052809291908181526020018280546200033990620012ca565b80156200038a5780601f106200035e576101008083540402835291602001916200038a565b820191906000526020600020905b8154815290600101906020018083116200036c57829003601f168201915b5050506002909301549192505060ff1683565b60018181548110620003ae57600080fd5b6000918252602090912001546001600160a01b0316905081565b336001600160a01b037f000000000000000000000000000000000000000000000000000000000000000016146200041c5760405162461bcd60e51b8152600401620004139062001306565b60405180910390fd5b6001548110620004645760405162461bcd60e51b81526020600482015260126024820152711a5b99195e081bdd5d081bd988189bdd5b9960721b604482015260640162000413565b6000600182815481106200047c576200047c62001330565b60009182526020808320909101546001600160a01b031680835260029091526040822080546001600160a01b031916815590925090620004c0600183018262000e09565b50600201805460ff19169055815b60018054620004de91906200135c565b81101562000574576001620004f4828262001378565b8154811062000507576200050762001330565b600091825260209091200154600180546001600160a01b03909216918390811062000536576200053662001330565b600091825260209091200180546001600160a01b0319166001600160a01b0392909216919091179055806200056b816200138e565b915050620004ce565b506001805480620005895762000589620013aa565b600082815260209020810160001990810180546001600160a01b03191690550190555050565b60606001805480602002602001604051908101604052809291908181526020018280548015620002d3576020028201919060005260206000209081546001600160a01b03168152600190910190602001808311620002b4575050505050905090565b6200061b62000e4b565b6001600160a01b0380831660009081526002602090815260409182902082516060810190935280549093168252600183018054929392918401916200066090620012ca565b80601f01602080910402602001604051908101604052809291908181526020018280546200068e90620012ca565b8015620006df5780601f10620006b357610100808354040283529160200191620006df565b820191906000526020600020905b815481529060010190602001808311620006c157829003601f168201915b505050918352505060028281015460209092019160ff169081111562000709576200070962000fa6565b60028111156200071d576200071d62000fa6565b90525092915050565b60038181548110620003ae57600080fd5b336001600160a01b037f00000000000000000000000000000000000000000000000000000000000000001614620007825760405162461bcd60e51b8152600401620004139062001306565b6001600160a01b0382166000908152600260208190526040822081015460ff1690811115620007b557620007b562000fa6565b14620008185760405162461bcd60e51b815260206004820152602b60248201527f7061727469636970616e7420616c72656164792065786973742c20757365206560448201526a191a5d081a5b9cdd19585960aa1b606482015260840162000413565b604080516060810182526001600160a01b0384811680835260208084018681526001858701819052805480820182557fb10e2d527612073b26eecdfd717e6a320cf44b4afac2b0732d9fcbe2b7fa0cf60180546001600160a01b0319908116861790915560009485526002909352959092208451815490921691909316178255519192839290820190620008ad908262001413565b5060408201518160020160006101000a81548160ff02191690836002811115620008db57620008db62000fa6565b02179055505050505050565b336001600160a01b037f00000000000000000000000000000000000000000000000000000000000000001614620009325760405162461bcd60e51b8152600401620004139062001306565b60007f0000000000000000000000000000000000000000000000000000000000000000868686868630604051620009699062000e88565b6200097b9796959493929190620014e0565b604051809103906000f08015801562000998573d6000803e3d6000fd5b50600380546001810182556000919091527fc2575a0e9e593c00f959f8c92f12db2869c3395a3b0502d05e2516446f71f85b0180546001600160a01b0319166001600160a01b0392909216919091179055505050505050565b336001600160a01b037f0000000000000000000000000000000000000000000000000000000000000000161462000a3c5760405162461bcd60e51b8152600401620004139062001306565b7f00000000000000000000000000000000000000000000000000000000000000003060405162000a6c9062000e96565b6001600160a01b03928316815291166020820152604001604051809103906000f08015801562000aa0573d6000803e3d6000fd5b50600080546001600160a01b0319166001600160a01b0392909216919091179055565b336001600160a01b037f0000000000000000000000000000000000000000000000000000000000000000161462000b0e5760405162461bcd60e51b8152600401620004139062001306565b600081600281111562000b255762000b2562000fa6565b0362000b8a5760405162461bcd60e51b815260206004820152602d60248201527f746f2064656c657465207061727469636970616e742c207573652072656d6f7660448201526c19481c185c9d1a58da5c185b9d609a1b606482015260840162000413565b6001600160a01b038316600090815260026020819052604090912081018054839260ff1990911690600190849081111562000bc95762000bc962000fa6565b02179055506001600160a01b038316600090815260026020526040902060010162000bf5838262001413565b50505050565b600133600090815260026020819052604090912081015460ff169081111562000c285762000c2862000fa6565b1462000c835760405162461bcd60e51b815260206004820152602360248201527f63616c6c6572206973206e6f7420616e20616374697665207061727469636970604482015262185b9d60ea1b606482015260840162000413565b60016001600160a01b038516600090815260026020819052604090912081015460ff169081111562000cb95762000cb962000fa6565b1462000d135760405162461bcd60e51b815260206004820152602260248201527f6275796572206973206e6f7420616e20616374697665207061727469636970616044820152611b9d60f21b606482015260840162000413565b600080546040516001600160a01b039091169133918390889087908b9086908b908a9062000d419062000ea4565b6001600160a01b039788168152958716602087015260408601949094529185166060850152909316608083015260a082019290925260c081019190915260e001604051809103906000f08015801562000d9e573d6000803e3d6000fd5b5060408051888152602081018890529081018690526001600160a01b038083166060830152919250818a169184811691908a16907f57819e282ab51e28252f45d789b32fb18cd5ceb00b6b1338b3575657cdbfaa0c9060800160405180910390a45050505050505050565b50805462000e1790620012ca565b6000825580601f1062000e28575050565b601f01602090049060005260206000209081019062000e48919062000eb2565b50565b604051806060016040528060006001600160a01b03168152602001606081526020016000600281111562000e835762000e8362000fa6565b905290565b611523806200154383390190565b6112668062002a6683390190565b610ad08062003ccc83390190565b5b8082111562000ec9576000815560010162000eb3565b5090565b6020808252825182820181905260009190848201906040850190845b8181101562000f105783516001600160a01b03168352928401929184019160010162000ee9565b50909695505050505050565b80356001600160a01b038116811462000f3457600080fd5b919050565b60006020828403121562000f4c57600080fd5b62000f578262000f1c565b9392505050565b6000815180845260005b8181101562000f865760208185018101518683018201520162000f68565b506000602082860101526020601f19601f83011685010191505092915050565b634e487b7160e01b600052602160045260246000fd5b6003811062000fdb57634e487b7160e01b600052602160045260246000fd5b9052565b6001600160a01b0384168152606060208201819052600090620010059083018562000f5e565b905062001016604083018462000fbc565b949350505050565b6000602082840312156200103157600080fd5b5035919050565b602080825282516001600160a01b0316828201528201516060604083015260009062001068608084018262000f5e565b905060408401516200107e606085018262000fbc565b509392505050565b634e487b7160e01b600052604160045260246000fd5b600082601f830112620010ae57600080fd5b813567ffffffffffffffff80821115620010cc57620010cc62001086565b604051601f8301601f19908116603f01168101908282118183101715620010f757620010f762001086565b816040528381528660208588010111156200111157600080fd5b836020870160208301376000602085830101528094505050505092915050565b600080604083850312156200114557600080fd5b620011508362000f1c565b9150602083013567ffffffffffffffff8111156200116d57600080fd5b6200117b858286016200109c565b9150509250929050565b600080600080600060a086880312156200119e57600080fd5b853567ffffffffffffffff80821115620011b757600080fd5b620011c589838a016200109c565b96506020880135915080821115620011dc57600080fd5b50620011eb888289016200109c565b959895975050505060408401359360608101359360809091013592509050565b6000806000606084860312156200122157600080fd5b6200122c8462000f1c565b9250602084013567ffffffffffffffff8111156200124957600080fd5b62001257868287016200109c565b9250506040840135600381106200126d57600080fd5b809150509250925092565b600080600080600060a086880312156200129157600080fd5b6200129c8662000f1c565b9450620012ac6020870162000f1c565b94979496505050506040830135926060810135926080909101359150565b600181811c90821680620012df57607f821691505b6020821081036200130057634e487b7160e01b600052602260045260246000fd5b50919050565b60208082526010908201526f4e6f742043656e7472616c2042616e6b60801b604082015260600190565b634e487b7160e01b600052603260045260246000fd5b634e487b7160e01b600052601160045260246000fd5b8181038181111562001372576200137262001346565b92915050565b8082018082111562001372576200137262001346565b600060018201620013a357620013a362001346565b5060010190565b634e487b7160e01b600052603160045260246000fd5b601f8211156200140e57600081815260208120601f850160051c81016020861015620013e95750805b601f850160051c820191505b818110156200140a57828155600101620013f5565b5050505b505050565b815167ffffffffffffffff81111562001430576200143062001086565b6200144881620014418454620012ca565b84620013c0565b602080601f831160018114620014805760008415620014675750858301515b600019600386901b1c1916600185901b1785556200140a565b600085815260208120601f198616915b82811015620014b15788860151825594840194600190910190840162001490565b5085821015620014d05787850151600019600388901b60f8161c191681555b5050505050600190811b01905550565b600060018060a01b03808a16835260e060208401526200150460e084018a62000f5e565b838103604085015262001518818a62000f5e565b9250508660608401528560808401528460a084015280841660c0840152509897505050505050505056fe60806040523480156200001157600080fd5b5060405162001523380380620015238339810160408190526200003491620002ff565b858560036200004483826200043b565b5060046200005382826200043b565b5050600580546001600160a01b0319166001600160a01b038a161790555062000080620151808462000507565b61ef1014620000fc5760405162461bcd60e51b815260206004820152603a60248201527f72656c656173652064617465206d75737420626520617420616e20657861637460448201527f20646174652061742030303a303020474d542b3720285749422900000000000060648201526084015b60405180910390fd5b6200010b620151808362000507565b61ef1014620001835760405162461bcd60e51b815260206004820152603b60248201527f6d617475726974792064617465206d75737420626520617420616e206578616360448201527f7420646174652061742030303a303020474d542b3720285749422900000000006064820152608401620000f3565b828211620001e55760405162461bcd60e51b815260206004820152602860248201527f6d617475726974792064617465206d7573742062652061667465722072656c65604482015267617365206461746560c01b6064820152608401620000f3565b600793909355600891909155600955600680546001600160a01b0319166001600160a01b03909216919091179055506200052a915050565b80516001600160a01b03811681146200023557600080fd5b919050565b634e487b7160e01b600052604160045260246000fd5b600082601f8301126200026257600080fd5b81516001600160401b03808211156200027f576200027f6200023a565b604051601f8301601f19908116603f01168101908282118183101715620002aa57620002aa6200023a565b81604052838152602092508683858801011115620002c757600080fd5b600091505b83821015620002eb5785820183015181830184015290820190620002cc565b600093810190920192909252949350505050565b600080600080600080600060e0888a0312156200031b57600080fd5b62000326886200021d565b60208901519097506001600160401b03808211156200034457600080fd5b620003528b838c0162000250565b975060408a01519150808211156200036957600080fd5b50620003788a828b0162000250565b955050606088015193506080880151925060a088015191506200039e60c089016200021d565b905092959891949750929550565b600181811c90821680620003c157607f821691505b602082108103620003e257634e487b7160e01b600052602260045260246000fd5b50919050565b601f8211156200043657600081815260208120601f850160051c81016020861015620004115750805b601f850160051c820191505b8181101562000432578281556001016200041d565b5050505b505050565b81516001600160401b038111156200045757620004576200023a565b6200046f81620004688454620003ac565b84620003e8565b602080601f831160018114620004a757600084156200048e5750858301515b600019600386901b1c1916600185901b17855562000432565b600085815260208120601f198616915b82811015620004d857888601518255948401946001909101908401620004b7565b5085821015620004f75787850151600019600388901b60f8161c191681555b5050505050600190811b01905550565b6000826200052557634e487b7160e01b600052601260045260246000fd5b500690565b610fe9806200053a6000396000f3fe608060405234801561001057600080fd5b506004361061010b5760003560e01c80634aa354a0116100a2578063a1da7fab11610071578063a1da7fab14610203578063a457c2d71461020c578063a9059cbb1461021f578063db006a7514610232578063dd62ed3e1461024557600080fd5b80634aa354a0146101c0578063680b4026146101c957806370a08231146101d257806395d89b41146101fb57600080fd5b8063313ce567116100de578063313ce56714610176578063395093511461018557806340c10f191461019857806342966c68146101ad57600080fd5b806306fdde0314610110578063095ea7b31461012e57806318160ddd1461015157806323b872dd14610163575b600080fd5b610118610258565b6040516101259190610bd5565b60405180910390f35b61014161013c366004610c1d565b6102ea565b6040519015158152602001610125565b6002545b604051908152602001610125565b610141610171366004610c49565b61032f565b60405160008152602001610125565b610141610193366004610c1d565b610415565b6101ab6101a6366004610c1d565b610441565b005b6101ab6101bb366004610c8a565b6104bc565b61015560075481565b61015560095481565b6101556101e0366004610ca3565b6001600160a01b031660009081526020819052604090205490565b6101186104f4565b61015560085481565b61014161021a366004610c1d565b610503565b61014161022d366004610c1d565b61057e565b6101ab610240366004610c8a565b6105d5565b610155610253366004610cc7565b61063b565b60606003805461026790610d00565b80601f016020809104026020016040519081016040528092919081815260200182805461029390610d00565b80156102e05780601f106102b5576101008083540402835291602001916102e0565b820191906000526020600020905b8154815290600101906020018083116102c357829003601f168201915b5050505050905090565b60006102f533610666565b61031a5760405162461bcd60e51b815260040161031190610d3a565b60405180910390fd5b6103253384846106fe565b5060015b92915050565b60008061033c853361063b565b905060001981146103b557828110156103a85760405162461bcd60e51b815260206004820152602860248201527f45524332303a207472616e7366657220616d6f756e74206578636565647320616044820152676c6c6f77616e636560c01b6064820152608401610311565b6103b585338584036106fe565b6103be85610666565b6103da5760405162461bcd60e51b815260040161031190610d3a565b6103e384610666565b6103ff5760405162461bcd60e51b815260040161031190610d82565b61040a858585610823565b506001949350505050565b600033610437818585610428838361063b565b6104329190610dcc565b6106fe565b5060019392505050565b6005546001600160a01b0316331461046b5760405162461bcd60e51b815260040161031190610ded565b61047582826109c8565b816001600160a01b03167f9cb9c14f7bc76e3a89b796b091850526236115352a198b1e472f00e91376bbcb826040516104b091815260200190565b60405180910390a25050565b6005546001600160a01b031633146104e65760405162461bcd60e51b815260040161031190610ded565b6104f1335b82610a87565b50565b60606004805461026790610d00565b60003381610511828661063b565b9050838110156105715760405162461bcd60e51b815260206004820152602560248201527f45524332303a2064656372656173656420616c6c6f77616e63652062656c6f77604482015264207a65726f60d81b6064820152608401610311565b61040a82868684036106fe565b600061058933610666565b6105a55760405162461bcd60e51b815260040161031190610d3a565b6105ae83610666565b6105ca5760405162461bcd60e51b815260040161031190610d82565b610325338484610823565b6105de33610666565b6105fa5760405162461bcd60e51b815260040161031190610d3a565b610603336104eb565b60405181815233907fe6c82503aaaa3db78b70f183901ae8668918f895b3982b2c851cf2ffe0c6c6399060200160405180910390a250565b6001600160a01b03918216600090815260016020908152604080832093909416825291909152205490565b600654604051637143059f60e01b81526001600160a01b0383811660048301526000928392911690637143059f90602401600060405180830381865afa1580156106b4573d6000803e3d6000fd5b505050506040513d6000823e601f3d908101601f191682016040526106dc9190810190610ebc565b90506001816040015160028111156106f6576106f6610f9d565b149392505050565b6001600160a01b0383166107605760405162461bcd60e51b8152602060048201526024808201527f45524332303a20617070726f76652066726f6d20746865207a65726f206164646044820152637265737360e01b6064820152608401610311565b6001600160a01b0382166107c15760405162461bcd60e51b815260206004820152602260248201527f45524332303a20617070726f766520746f20746865207a65726f206164647265604482015261737360f01b6064820152608401610311565b6001600160a01b0383811660008181526001602090815260408083209487168084529482529182902085905590518481527f8c5be1e5ebec7d5bd14f71427d1e84f3dd0314c0f7b2291e5b200ac8c7c3b92591015b60405180910390a3505050565b6001600160a01b0383166108875760405162461bcd60e51b815260206004820152602560248201527f45524332303a207472616e736665722066726f6d20746865207a65726f206164604482015264647265737360d81b6064820152608401610311565b6001600160a01b0382166108e95760405162461bcd60e51b815260206004820152602360248201527f45524332303a207472616e7366657220746f20746865207a65726f206164647260448201526265737360e81b6064820152608401610311565b6001600160a01b038316600090815260208190526040902054818110156109615760405162461bcd60e51b815260206004820152602660248201527f45524332303a207472616e7366657220616d6f756e7420657863656564732062604482015265616c616e636560d01b6064820152608401610311565b6001600160a01b03848116600081815260208181526040808320878703905593871680835291849020805487019055925185815290927fddf252ad1be2c89b69c2b068fc378daa952ba7f163c4a11628f55a4df523b3ef910160405180910390a350505050565b6001600160a01b038216610a1e5760405162461bcd60e51b815260206004820152601f60248201527f45524332303a206d696e7420746f20746865207a65726f2061646472657373006044820152606401610311565b8060026000828254610a309190610dcc565b90915550506001600160a01b038216600081815260208181526040808320805486019055518481527fddf252ad1be2c89b69c2b068fc378daa952ba7f163c4a11628f55a4df523b3ef910160405180910390a35050565b6001600160a01b038216610ae75760405162461bcd60e51b815260206004820152602160248201527f45524332303a206275726e2066726f6d20746865207a65726f206164647265736044820152607360f81b6064820152608401610311565b6001600160a01b03821660009081526020819052604090205481811015610b5b5760405162461bcd60e51b815260206004820152602260248201527f45524332303a206275726e20616d6f756e7420657863656564732062616c616e604482015261636560f01b6064820152608401610311565b6001600160a01b0383166000818152602081815260408083208686039055600280548790039055518581529192917fddf252ad1be2c89b69c2b068fc378daa952ba7f163c4a11628f55a4df523b3ef9101610816565b60005b83811015610bcc578181015183820152602001610bb4565b50506000910152565b6020815260008251806020840152610bf4816040850160208701610bb1565b601f01601f19169190910160400192915050565b6001600160a01b03811681146104f157600080fd5b60008060408385031215610c3057600080fd5b8235610c3b81610c08565b946020939093013593505050565b600080600060608486031215610c5e57600080fd5b8335610c6981610c08565b92506020840135610c7981610c08565b929592945050506040919091013590565b600060208284031215610c9c57600080fd5b5035919050565b600060208284031215610cb557600080fd5b8135610cc081610c08565b9392505050565b60008060408385031215610cda57600080fd5b8235610ce581610c08565b91506020830135610cf581610c08565b809150509250929050565b600181811c90821680610d1457607f821691505b602082108103610d3457634e487b7160e01b600052602260045260246000fd5b50919050565b60208082526028908201527f73656e646572206973206e6f7420616e206163746976652043424443207061726040820152671d1a58da5c185b9d60c21b606082015260800190565b6020808252602a908201527f7265636569766572206973206e6f7420616e2061637469766520434244432070604082015269185c9d1a58da5c185b9d60b21b606082015260800190565b8082018082111561032957634e487b7160e01b600052601160045260246000fd5b6020808252602b908201527f4572726f722c206d73672e73656e64657220646f6573206e6f7420686176652060408201526a6d696e74657220726f6c6560a81b606082015260800190565b634e487b7160e01b600052604160045260246000fd5b6040516060810167ffffffffffffffff81118282101715610e7157610e71610e38565b60405290565b604051601f8201601f1916810167ffffffffffffffff81118282101715610ea057610ea0610e38565b604052919050565b805160038110610eb757600080fd5b919050565b60006020808385031215610ecf57600080fd5b825167ffffffffffffffff80821115610ee757600080fd5b9084019060608287031215610efb57600080fd5b610f03610e4e565b8251610f0e81610c08565b81528284015182811115610f2157600080fd5b8301601f81018813610f3257600080fd5b805183811115610f4457610f44610e38565b610f56601f8201601f19168701610e77565b93508084528886828401011115610f6c57600080fd5b610f7b81878601888501610bb1565b50508184820152610f8e60408401610ea8565b60408201529695505050505050565b634e487b7160e01b600052602160045260246000fdfea2646970667358221220e9a06d0844cbe1e04bed7f39bb0f5c32f904673dd03bbf1085342c3080b69ef864736f6c6343000812003360806040523480156200001157600080fd5b5060405162001266380380620012668339810160408190526200003491620000ee565b6040518060400160405280600e81526020016d088d2ced2e8c2d840a4eae0d2c2d60931b815250604051806040016040528060048152602001632224a22960e11b8152508160039081620000899190620001cb565b506004620000988282620001cb565b5050600580546001600160a01b039485166001600160a01b03199182161790915560068054939094169216919091179091555062000297565b80516001600160a01b0381168114620000e957600080fd5b919050565b600080604083850312156200010257600080fd5b6200010d83620000d1565b91506200011d60208401620000d1565b90509250929050565b634e487b7160e01b600052604160045260246000fd5b600181811c908216806200015157607f821691505b6020821081036200017257634e487b7160e01b600052602260045260246000fd5b50919050565b601f821115620001c657600081815260208120601f850160051c81016020861015620001a15750805b601f850160051c820191505b81811015620001c257828155600101620001ad565b5050505b505050565b81516001600160401b03811115620001e757620001e762000126565b620001ff81620001f884546200013c565b8462000178565b602080601f8311600181146200023757600084156200021e5750858301515b600019600386901b1c1916600185901b178555620001c2565b600085815260208120601f198616915b82811015620002685788860151825594840194600190910190840162000247565b5085821015620002875787850151600019600388901b60f8161c191681555b5050505050600190811b01905550565b610fbf80620002a76000396000f3fe608060405234801561001057600080fd5b50600436106100ea5760003560e01c806342966c681161008c578063a457c2d711610066578063a457c2d7146101d0578063a9059cbb146101e3578063db006a75146101f6578063dd62ed3e1461020957600080fd5b806342966c681461018c57806370a082311461019f57806395d89b41146101c857600080fd5b806323b872dd116100c857806323b872dd14610142578063313ce56714610155578063395093511461016457806340c10f191461017757600080fd5b806306fdde03146100ef578063095ea7b31461010d57806318160ddd14610130575b600080fd5b6100f761021c565b6040516101049190610bab565b60405180910390f35b61012061011b366004610bf3565b6102ae565b6040519015158152602001610104565b6002545b604051908152602001610104565b610120610150366004610c1f565b6102f3565b60405160128152602001610104565b610120610172366004610bf3565b6103d9565b61018a610185366004610bf3565b610405565b005b61018a61019a366004610c60565b610489565b6101346101ad366004610c79565b6001600160a01b031660009081526020819052604090205490565b6100f76104ca565b6101206101de366004610bf3565b6104d9565b6101206101f1366004610bf3565b610554565b61018a610204366004610c60565b6105ab565b610134610217366004610c9d565b610611565b60606003805461022b90610cd6565b80601f016020809104026020016040519081016040528092919081815260200182805461025790610cd6565b80156102a45780601f10610279576101008083540402835291602001916102a4565b820191906000526020600020905b81548152906001019060200180831161028757829003601f168201915b5050505050905090565b60006102b93361063c565b6102de5760405162461bcd60e51b81526004016102d590610d10565b60405180910390fd5b6102e93384846106d4565b5060015b92915050565b6000806103008533610611565b90506000198114610379578281101561036c5760405162461bcd60e51b815260206004820152602860248201527f45524332303a207472616e7366657220616d6f756e74206578636565647320616044820152676c6c6f77616e636560c01b60648201526084016102d5565b61037985338584036106d4565b6103828561063c565b61039e5760405162461bcd60e51b81526004016102d590610d10565b6103a78461063c565b6103c35760405162461bcd60e51b81526004016102d590610d58565b6103ce8585856107f9565b506001949350505050565b6000336103fb8185856103ec8383610611565b6103f69190610da2565b6106d4565b5060019392505050565b6005546001600160a01b0316336001600160a01b0316146104385760405162461bcd60e51b81526004016102d590610dc3565b610442828261099e565b816001600160a01b03167f9cb9c14f7bc76e3a89b796b091850526236115352a198b1e472f00e91376bbcb8260405161047d91815260200190565b60405180910390a25050565b6005546001600160a01b0316336001600160a01b0316146104bc5760405162461bcd60e51b81526004016102d590610dc3565b6104c7335b82610a5d565b50565b60606004805461022b90610cd6565b600033816104e78286610611565b9050838110156105475760405162461bcd60e51b815260206004820152602560248201527f45524332303a2064656372656173656420616c6c6f77616e63652062656c6f77604482015264207a65726f60d81b60648201526084016102d5565b6103ce82868684036106d4565b600061055f3361063c565b61057b5760405162461bcd60e51b81526004016102d590610d10565b6105848361063c565b6105a05760405162461bcd60e51b81526004016102d590610d58565b6102e93384846107f9565b6105b43361063c565b6105d05760405162461bcd60e51b81526004016102d590610d10565b6105d9336104c1565b60405181815233907fe6c82503aaaa3db78b70f183901ae8668918f895b3982b2c851cf2ffe0c6c6399060200160405180910390a250565b6001600160a01b03918216600090815260016020908152604080832093909416825291909152205490565b600654604051637143059f60e01b81526001600160a01b0383811660048301526000928392911690637143059f90602401600060405180830381865afa15801561068a573d6000803e3d6000fd5b505050506040513d6000823e601f3d908101601f191682016040526106b29190810190610e92565b90506001816040015160028111156106cc576106cc610f73565b149392505050565b6001600160a01b0383166107365760405162461bcd60e51b8152602060048201526024808201527f45524332303a20617070726f76652066726f6d20746865207a65726f206164646044820152637265737360e01b60648201526084016102d5565b6001600160a01b0382166107975760405162461bcd60e51b815260206004820152602260248201527f45524332303a20617070726f766520746f20746865207a65726f206164647265604482015261737360f01b60648201526084016102d5565b6001600160a01b0383811660008181526001602090815260408083209487168084529482529182902085905590518481527f8c5be1e5ebec7d5bd14f71427d1e84f3dd0314c0f7b2291e5b200ac8c7c3b92591015b60405180910390a3505050565b6001600160a01b03831661085d5760405162461bcd60e51b815260206004820152602560248201527f45524332303a207472616e736665722066726f6d20746865207a65726f206164604482015264647265737360d81b60648201526084016102d5565b6001600160a01b0382166108bf5760405162461bcd60e51b815260206004820152602360248201527f45524332303a207472616e7366657220746f20746865207a65726f206164647260448201526265737360e81b60648201526084016102d5565b6001600160a01b038316600090815260208190526040902054818110156109375760405162461bcd60e51b815260206004820152602660248201527f45524332303a207472616e7366657220616d6f756e7420657863656564732062604482015265616c616e636560d01b60648201526084016102d5565b6001600160a01b03848116600081815260208181526040808320878703905593871680835291849020805487019055925185815290927fddf252ad1be2c89b69c2b068fc378daa952ba7f163c4a11628f55a4df523b3ef910160405180910390a350505050565b6001600160a01b0382166109f45760405162461bcd60e51b815260206004820152601f60248201527f45524332303a206d696e7420746f20746865207a65726f20616464726573730060448201526064016102d5565b8060026000828254610a069190610da2565b90915550506001600160a01b038216600081815260208181526040808320805486019055518481527fddf252ad1be2c89b69c2b068fc378daa952ba7f163c4a11628f55a4df523b3ef910160405180910390a35050565b6001600160a01b038216610abd5760405162461bcd60e51b815260206004820152602160248201527f45524332303a206275726e2066726f6d20746865207a65726f206164647265736044820152607360f81b60648201526084016102d5565b6001600160a01b03821660009081526020819052604090205481811015610b315760405162461bcd60e51b815260206004820152602260248201527f45524332303a206275726e20616d6f756e7420657863656564732062616c616e604482015261636560f01b60648201526084016102d5565b6001600160a01b0383166000818152602081815260408083208686039055600280548790039055518581529192917fddf252ad1be2c89b69c2b068fc378daa952ba7f163c4a11628f55a4df523b3ef91016107ec565b60005b83811015610ba2578181015183820152602001610b8a565b50506000910152565b6020815260008251806020840152610bca816040850160208701610b87565b601f01601f19169190910160400192915050565b6001600160a01b03811681146104c757600080fd5b60008060408385031215610c0657600080fd5b8235610c1181610bde565b946020939093013593505050565b600080600060608486031215610c3457600080fd5b8335610c3f81610bde565b92506020840135610c4f81610bde565b929592945050506040919091013590565b600060208284031215610c7257600080fd5b5035919050565b600060208284031215610c8b57600080fd5b8135610c9681610bde565b9392505050565b60008060408385031215610cb057600080fd5b8235610cbb81610bde565b91506020830135610ccb81610bde565b809150509250929050565b600181811c90821680610cea57607f821691505b602082108103610d0a57634e487b7160e01b600052602260045260246000fd5b50919050565b60208082526028908201527f73656e646572206973206e6f7420616e206163746976652043424443207061726040820152671d1a58da5c185b9d60c21b606082015260800190565b6020808252602a908201527f7265636569766572206973206e6f7420616e2061637469766520434244432070604082015269185c9d1a58da5c185b9d60b21b606082015260800190565b808201808211156102ed57634e487b7160e01b600052601160045260246000fd5b6020808252602b908201527f4572726f722c206d73672e73656e64657220646f6573206e6f7420686176652060408201526a6d696e74657220726f6c6560a81b606082015260800190565b634e487b7160e01b600052604160045260246000fd5b6040516060810167ffffffffffffffff81118282101715610e4757610e47610e0e565b60405290565b604051601f8201601f1916810167ffffffffffffffff81118282101715610e7657610e76610e0e565b604052919050565b805160038110610e8d57600080fd5b919050565b60006020808385031215610ea557600080fd5b825167ffffffffffffffff80821115610ebd57600080fd5b9084019060608287031215610ed157600080fd5b610ed9610e24565b8251610ee481610bde565b81528284015182811115610ef757600080fd5b8301601f81018813610f0857600080fd5b805183811115610f1a57610f1a610e0e565b610f2c601f8201601f19168701610e4d565b93508084528886828401011115610f4257600080fd5b610f5181878601888501610b87565b50508184820152610f6460408401610e7e565b60408201529695505050505050565b634e487b7160e01b600052602160045260246000fdfea2646970667358221220fca8add5798a0df02f114e2222a788b5c376ffa9e334b21163641ef1a24ddfc364736f6c63430008120033608060405234801561001057600080fd5b50604051610ad0380380610ad083398101604081905261002f916102ac565b826001600160a01b0316866001600160a01b0316036100a05760405162461bcd60e51b815260206004820152602260248201527f627579657220616e642073656c6c6572206d75737420626520646966666572656044820152611b9d60f21b60648201526084015b60405180910390fd5b6100ac610e108261031d565b156101045760405162461bcd60e51b815260206004820152602260248201527f457870697265642064617465206d75737420617420616e20657861637420686f6044820152613ab960f11b6064820152608401610097565b610111426201518061033f565b8111156101745760405162461bcd60e51b815260206004820152602b60248201527f457870697265642064617465206d757374206e6f74206578636565642031206460448201526a61792066726f6d206e6f7760a81b6064820152608401610097565b600080546001600160a01b038981166001600160a01b03199283161790925560018054898416908316179055600287905560038054878416908316811790915560048054938716939092168317825560058590556040516370a0823160e01b8152918201929092528391906370a0823190602401602060405180830381865afa158015610205573d6000803e3d6000fd5b505050506040513d601f19601f820116820180604052508101906102299190610366565b10156102775760405162461bcd60e51b815260206004820152601c60248201527f53424e20756e69747320746f2073656c6c206e6f7420656e6f756768000000006044820152606401610097565b60075550506006805460ff191690555061037f92505050565b80516001600160a01b03811681146102a757600080fd5b919050565b600080600080600080600060e0888a0312156102c757600080fd5b6102d088610290565b96506102de60208901610290565b9550604088015194506102f360608901610290565b935061030160808901610290565b925060a0880151915060c0880151905092959891949750929550565b60008261033a57634e487b7160e01b600052601260045260246000fd5b500690565b8082018082111561036057634e487b7160e01b600052601160045260246000fd5b92915050565b60006020828403121561037857600080fd5b5051919050565b6107428061038e6000396000f3fe608060405234801561001057600080fd5b50600436106100a95760003560e01c806370767ec51161007157806370767ec51461011d5780637150d8ae1461013457806390be042a14610147578063b53f5ef814610150578063ea8a1af014610163578063f17fffb71461016b57600080fd5b806308551a53146100ae578063200d2ed2146100de5780632852b71c146100f85780634dc415de1461010257806362ccceaa1461010a575b600080fd5b6004546100c1906001600160a01b031681565b6040516001600160a01b0390911681526020015b60405180910390f35b6006546100eb9060ff1681565b6040516100d59190610673565b610100610174565b005b610100610458565b6000546100c1906001600160a01b031681565b61012660025481565b6040519081526020016100d5565b6001546100c1906001600160a01b031681565b61012660055481565b6003546100c1906001600160a01b031681565b6101006104f4565b61012660075481565b6001546001600160a01b031633146101cb5760405162461bcd60e51b815260206004820152601560248201527413db9b1e48109d5e595c8810d85b881058d8d95c1d605a1b60448201526064015b60405180910390fd5b600060065460ff1660038111156101e4576101e461065d565b146102015760405162461bcd60e51b81526004016101c29061069b565b6007544211156102455760405162461bcd60e51b815260206004820152600f60248201526e14995c5d595cdd08195e1c1a5c9959608a1b60448201526064016101c2565b600254600054600154604051636eb1769f60e11b81526001600160a01b03918216600482015230602482015291169063dd62ed3e90604401602060405180830381865afa15801561029a573d6000803e3d6000fd5b505050506040513d601f19601f820116820180604052508101906102be91906106ca565b10156103205760405162461bcd60e51b815260206004820152602b60248201527f42757965722773204469676974616c2052757069616820616c6c6f77616e636560448201526a20697320746f6f206c6f7760a81b60648201526084016101c2565b60055460035460048054604051636eb1769f60e11b81526001600160a01b03918216928101929092523060248301529091169063dd62ed3e90604401602060405180830381865afa158015610379573d6000803e3d6000fd5b505050506040513d601f19601f8201168201806040525081019061039d91906106ca565b10156103f55760405162461bcd60e51b815260206004820152602160248201527f53656c6c657227732053424e20616c6c6f77616e636520697320746f6f206c6f6044820152607760f81b60648201526084016101c2565b60005460015460045460025461041b936001600160a01b03908116938116921690610590565b600354600454600154600554610441936001600160a01b03908116938116921690610590565b600680546003919060ff19166001835b0217905550565b6001546001600160a01b031633146104aa5760405162461bcd60e51b815260206004820152601560248201527413db9b1e48189d5e595c8818d85b881c995a9958dd605a1b60448201526064016101c2565b600060065460ff1660038111156104c3576104c361065d565b146104e05760405162461bcd60e51b81526004016101c29061069b565b600680546002919060ff1916600183610451565b6004546001600160a01b031633146105475760405162461bcd60e51b815260206004820152601660248201527513db9b1e481cd95b1b195c8818d85b8818d85b98d95b60521b60448201526064016101c2565b600060065460ff1660038111156105605761056061065d565b1461057d5760405162461bcd60e51b81526004016101c29061069b565b600680546001919060ff19168280610451565b6040516323b872dd60e01b81526001600160a01b038481166004830152838116602483015260448201839052600091908616906323b872dd906064016020604051808303816000875af11580156105eb573d6000803e3d6000fd5b505050506040513d601f19601f8201168201806040525081019061060f91906106e3565b9050806106565760405162461bcd60e51b8152602060048201526015602482015274151bdad95b881d1c985b9cd9995c8819985a5b1959605a1b60448201526064016101c2565b5050505050565b634e487b7160e01b600052602160045260246000fd5b602081016004831061069557634e487b7160e01b600052602160045260246000fd5b91905290565b60208082526015908201527414995c5d595cdd081dd85cc818dbdb5c1b195d1959605a1b604082015260600190565b6000602082840312156106dc57600080fd5b5051919050565b6000602082840312156106f557600080fd5b8151801515811461070557600080fd5b939250505056fea2646970667358221220c7ff759a6a951f68465101ad0b25bd1f366a75c649fefafeed7c68404be228bb64736f6c63430008120033a2646970667358221220487d2b46461699bff7da45ebeb8b9ac70c44f0d06be25085d8bf4f3e48dd367164736f6c63430008120033",
  "immutableReferences": {
    "720": [
      {
        "length": 32,
        "start": 264
      },
      {
        "length": 32,
        "start": 979
      },
      {
        "length": 32,
        "start": 1858
      },
      {
        "length": 32,
        "start": 2290
      },
      {
        "length": 32,
        "start": 2358
      },
      {
        "length": 32,
        "start": 2556
      },
      {
        "length": 32,
        "start": 2622
      },
      {
        "length": 32,
        "start": 2766
      }
    ]
  },
  "source": "// SPDX-License-Identifier: MIT\npragma solidity 0.8.18;\n\nimport \"./Participant_Struct.sol\";\nimport \"./DigitalRupee.sol\";\nimport \"./Request.sol\";\nimport \"./SBN.sol\";\n\nimport \"openzeppelin-solidity/contracts/token/ERC20/IERC20.sol\";\n\ncontract CBDC_Dapps {\n    address public immutable BankIndonesiaAddress;\n\n    modifier isBankIndonesia() {\n        require(msg.sender == BankIndonesiaAddress, \"Not Central Bank\");\n        _;\n    }\n\n    constructor() {\n        BankIndonesiaAddress = msg.sender;\n\n        addParticipant(msg.sender, \"Central Bank\");\n    }\n\n    // create DigitalRupee\n\n    DigitalRupee public digitalRupee;\n\n    function createDigitalRupee() public isBankIndonesia {\n        digitalRupee = new DigitalRupee(BankIndonesiaAddress, address(this));\n    }\n\n    // modifying participant\n\n    address[] public participantAddresses;\n\n    mapping(address => Participant) public addressToParticipant;\n\n    function addParticipant(\n        address _address,\n        string memory _name\n    ) public isBankIndonesia {\n        require(\n            addressToParticipant[_address].status == ParticipantStatus.NotExist,\n            \"participant already exist, use edit instead\"\n        );\n\n        Participant memory _participant = Participant({\n            account: _address,\n            status: ParticipantStatus.Active,\n            name: _name\n        });\n        participantAddresses.push(_address);\n        addressToParticipant[_address] = _participant;\n    }\n\n    function editParticipant(\n        address _address,\n        string memory _name,\n        ParticipantStatus _status\n    ) public isBankIndonesia {\n        require(\n            _status != ParticipantStatus.NotExist,\n            \"to delete participant, use remove participant\"\n        );\n        addressToParticipant[_address].status = _status;\n        addressToParticipant[_address].name = _name;\n    }\n\n    //disclaimer: this function must be rarely called, e.g. when a company (participant) went bankrupt. Otherwise use edit participant\n    function removeParticipant(uint256 _index) public isBankIndonesia {\n        require(_index < participantAddresses.length, \"index out of bound\");\n\n        address _address = participantAddresses[_index];\n        delete addressToParticipant[_address];\n\n        for (uint256 i = _index; i < participantAddresses.length - 1; i++) {\n            participantAddresses[i] = participantAddresses[i + 1];\n        }\n        participantAddresses.pop();\n    }\n\n    function getParticipant(\n        address _address\n    ) external view returns (Participant memory) {\n        return addressToParticipant[_address];\n    }\n\n    function getAllParticipantAddresses()\n        public\n        view\n        returns (address[] memory)\n    {\n        return participantAddresses;\n    }\n\n    //\n\n    modifier callerIsActiveParticipant() {\n        require(\n            addressToParticipant[msg.sender].status == ParticipantStatus.Active,\n            \"caller is not an active participant\"\n        );\n        _;\n    }\n\n    // SBN Factory\n    SBN[] public sbnAddresses;\n\n    function createSBN(\n        string memory _name,\n        string memory _symbol,\n        uint256 _initialUnitPrice,\n        uint256 _releasedDate,\n        uint256 _maturityDate\n    ) public isBankIndonesia {\n        SBN _sbn = new SBN({\n            _minter: BankIndonesiaAddress,\n            _name: _name,\n            _symbol: _symbol,\n            _initialUnitPrice: _initialUnitPrice,\n            _releasedDate: _releasedDate,\n            _maturityDate: _maturityDate,\n            _cbdc: address(this)\n        });\n\n        sbnAddresses.push(_sbn);\n    }\n\n    function getSbnAddresses() public view returns (SBN[] memory) {\n        return sbnAddresses;\n    }\n\n    event NewRequest(\n        address indexed buyer,\n        address indexed seller,\n        address indexed SBN,\n        uint256 sbnAmount,\n        uint256 rupeeAmount,\n        uint256 expired_date,\n        Request requestAddress\n    );\n\n    function createSellRequest(\n        address _SBN,\n        address _buyer,\n        uint256 _sbnAmount,\n        uint256 _rupeeAmount,\n        uint256 _expiredDate\n    ) public callerIsActiveParticipant {\n        require(\n            addressToParticipant[_buyer].status == ParticipantStatus.Active,\n            \"buyer is not an active participant\"\n        );\n\n        address _digitalRupee = address(digitalRupee);\n        address _seller = msg.sender;\n\n        Request _request = new Request({\n            _digitalRupee: _digitalRupee,\n            _buyer: _buyer,\n            _rupeeAmount: _rupeeAmount,\n            _SBN: _SBN,\n            _seller: _seller,\n            _sbnAmount: _sbnAmount,\n            _expiredDate: _expiredDate\n        });\n\n        emit NewRequest(\n            _buyer,\n            _seller,\n            _SBN,\n            _sbnAmount,\n            _rupeeAmount,\n            _expiredDate,\n            _request\n        );\n\n        // make sure to guide seller to approve their SBN on the dapps, because it is not possible to approve using this contract\n    }\n}\n",
  "sourcePath": "/home/dkvhem/Documents/Final-Year-Project/test/test1/digitalrupee/contracts/CBDC_Dapps.sol",
  "compiler": {
    "name": "solc",
    "version": "0.8.18+commit.87f61d96.Emscripten.clang"
  },
  "schemaVersion": "3.4.12",
  "updatedAt": "2024-03-13T18:39:23.556Z",
  "networkType": "ethereum",
  "devdoc": {
    "kind": "dev",
    "methods": {},
    "version": 1
  },
  "userdoc": {
    "kind": "user",
    "methods": {},
    "version": 1
  }
}