{
  "contractName": "DigitalRupee",
  "abi": [
    {
      "inputs": [
        {
          "internalType": "address",
          "name": "_minter",
          "type": "address"
        },
        {
          "internalType": "address",
          "name": "_cbdc",
          "type": "address"
        }
      ],
      "stateMutability": "nonpayable",
      "type": "constructor"
    },
    {
      "anonymous": false,
      "inputs": [
        {
          "indexed": true,
          "internalType": "address",
          "name": "owner",
          "type": "address"
        },
        {
          "indexed": true,
          "internalType": "address",
          "name": "spender",
          "type": "address"
        },
        {
          "indexed": false,
          "internalType": "uint256",
          "name": "value",
          "type": "uint256"
        }
      ],
      "name": "Approval",
      "type": "event"
    },
    {
      "anonymous": false,
      "inputs": [
        {
          "indexed": true,
          "internalType": "address",
          "name": "receiver",
          "type": "address"
        },
        {
          "indexed": false,
          "internalType": "uint256",
          "name": "value",
          "type": "uint256"
        }
      ],
      "name": "Issuance",
      "type": "event"
    },
    {
      "anonymous": false,
      "inputs": [
        {
          "indexed": true,
          "internalType": "address",
          "name": "sender",
          "type": "address"
        },
        {
          "indexed": false,
          "internalType": "uint256",
          "name": "value",
          "type": "uint256"
        }
      ],
      "name": "Redemption",
      "type": "event"
    },
    {
      "anonymous": false,
      "inputs": [
        {
          "indexed": true,
          "internalType": "address",
          "name": "from",
          "type": "address"
        },
        {
          "indexed": true,
          "internalType": "address",
          "name": "to",
          "type": "address"
        },
        {
          "indexed": false,
          "internalType": "uint256",
          "name": "value",
          "type": "uint256"
        }
      ],
      "name": "Transfer",
      "type": "event"
    },
    {
      "inputs": [
        {
          "internalType": "address",
          "name": "owner",
          "type": "address"
        },
        {
          "internalType": "address",
          "name": "spender",
          "type": "address"
        }
      ],
      "name": "allowance",
      "outputs": [
        {
          "internalType": "uint256",
          "name": "",
          "type": "uint256"
        }
      ],
      "stateMutability": "view",
      "type": "function",
      "constant": true
    },
    {
      "inputs": [
        {
          "internalType": "address",
          "name": "account",
          "type": "address"
        }
      ],
      "name": "balanceOf",
      "outputs": [
        {
          "internalType": "uint256",
          "name": "",
          "type": "uint256"
        }
      ],
      "stateMutability": "view",
      "type": "function",
      "constant": true
    },
    {
      "inputs": [],
      "name": "decimals",
      "outputs": [
        {
          "internalType": "uint8",
          "name": "",
          "type": "uint8"
        }
      ],
      "stateMutability": "view",
      "type": "function",
      "constant": true
    },
    {
      "inputs": [
        {
          "internalType": "address",
          "name": "spender",
          "type": "address"
        },
        {
          "internalType": "uint256",
          "name": "subtractedValue",
          "type": "uint256"
        }
      ],
      "name": "decreaseAllowance",
      "outputs": [
        {
          "internalType": "bool",
          "name": "",
          "type": "bool"
        }
      ],
      "stateMutability": "nonpayable",
      "type": "function"
    },
    {
      "inputs": [
        {
          "internalType": "address",
          "name": "spender",
          "type": "address"
        },
        {
          "internalType": "uint256",
          "name": "addedValue",
          "type": "uint256"
        }
      ],
      "name": "increaseAllowance",
      "outputs": [
        {
          "internalType": "bool",
          "name": "",
          "type": "bool"
        }
      ],
      "stateMutability": "nonpayable",
      "type": "function"
    },
    {
      "inputs": [],
      "name": "name",
      "outputs": [
        {
          "internalType": "string",
          "name": "",
          "type": "string"
        }
      ],
      "stateMutability": "view",
      "type": "function",
      "constant": true
    },
    {
      "inputs": [],
      "name": "symbol",
      "outputs": [
        {
          "internalType": "string",
          "name": "",
          "type": "string"
        }
      ],
      "stateMutability": "view",
      "type": "function",
      "constant": true
    },
    {
      "inputs": [],
      "name": "totalSupply",
      "outputs": [
        {
          "internalType": "uint256",
          "name": "",
          "type": "uint256"
        }
      ],
      "stateMutability": "view",
      "type": "function",
      "constant": true
    },
    {
      "inputs": [
        {
          "internalType": "address",
          "name": "_toAddress",
          "type": "address"
        },
        {
          "internalType": "uint256",
          "name": "_amount",
          "type": "uint256"
        }
      ],
      "name": "mint",
      "outputs": [],
      "stateMutability": "nonpayable",
      "type": "function"
    },
    {
      "inputs": [
        {
          "internalType": "uint256",
          "name": "_amount",
          "type": "uint256"
        }
      ],
      "name": "burn",
      "outputs": [],
      "stateMutability": "nonpayable",
      "type": "function"
    },
    {
      "inputs": [
        {
          "internalType": "uint256",
          "name": "_amount",
          "type": "uint256"
        }
      ],
      "name": "redeem",
      "outputs": [],
      "stateMutability": "nonpayable",
      "type": "function"
    },
    {
      "inputs": [
        {
          "internalType": "address",
          "name": "recipient",
          "type": "address"
        },
        {
          "internalType": "uint256",
          "name": "amount",
          "type": "uint256"
        }
      ],
      "name": "transfer",
      "outputs": [
        {
          "internalType": "bool",
          "name": "",
          "type": "bool"
        }
      ],
      "stateMutability": "nonpayable",
      "type": "function"
    },
    {
      "inputs": [
        {
          "internalType": "address",
          "name": "spender",
          "type": "address"
        },
        {
          "internalType": "uint256",
          "name": "amount",
          "type": "uint256"
        }
      ],
      "name": "approve",
      "outputs": [
        {
          "internalType": "bool",
          "name": "",
          "type": "bool"
        }
      ],
      "stateMutability": "nonpayable",
      "type": "function"
    },
    {
      "inputs": [
        {
          "internalType": "address",
          "name": "sender",
          "type": "address"
        },
        {
          "internalType": "address",
          "name": "recipient",
          "type": "address"
        },
        {
          "internalType": "uint256",
          "name": "amount",
          "type": "uint256"
        }
      ],
      "name": "transferFrom",
      "outputs": [
        {
          "internalType": "bool",
          "name": "",
          "type": "bool"
        }
      ],
      "stateMutability": "nonpayable",
      "type": "function"
    }
  ],
  "bytecode": "0x60806040523480156200001157600080fd5b50604051620011e9380380620011e9833981016040819052620000349162000197565b604080518082018252600d81526c4469676974616c20527570656560981b6020808301918252835180850190945260048452632224a22960e11b9084015281519192916200008591600391620000d4565b5080516200009b906004906020840190620000d4565b5050600580546001600160a01b039485166001600160a01b0319918216179091556006805493909416921691909117909155506200020c565b828054620000e290620001cf565b90600052602060002090601f01602090048101928262000106576000855562000151565b82601f106200012157805160ff191683800117855562000151565b8280016001018555821562000151579182015b828111156200015157825182559160200191906001019062000134565b506200015f92915062000163565b5090565b5b808211156200015f576000815560010162000164565b80516001600160a01b03811681146200019257600080fd5b919050565b60008060408385031215620001ab57600080fd5b620001b6836200017a565b9150620001c6602084016200017a565b90509250929050565b600181811c90821680620001e457607f821691505b602082108114156200020657634e487b7160e01b600052602260045260246000fd5b50919050565b610fcd806200021c6000396000f3fe608060405234801561001057600080fd5b50600436106100ea5760003560e01c806342966c681161008c578063a457c2d711610066578063a457c2d7146101d0578063a9059cbb146101e3578063db006a75146101f6578063dd62ed3e1461020957600080fd5b806342966c681461018c57806370a082311461019f57806395d89b41146101c857600080fd5b806323b872dd116100c857806323b872dd14610142578063313ce56714610155578063395093511461016457806340c10f191461017757600080fd5b806306fdde03146100ef578063095ea7b31461010d57806318160ddd14610130575b600080fd5b6100f761021c565b6040516101049190610bb3565b60405180910390f35b61012061011b366004610bfb565b6102ae565b6040519015158152602001610104565b6002545b604051908152602001610104565b610120610150366004610c27565b6102f2565b60405160128152602001610104565b610120610172366004610bfb565b6103d8565b61018a610185366004610bfb565b610404565b005b61018a61019a366004610c68565b610488565b6101346101ad366004610c81565b6001600160a01b031660009081526020819052604090205490565b6100f76104c9565b6101206101de366004610bfb565b6104d8565b6101206101f1366004610bfb565b610553565b61018a610204366004610c68565b6105aa565b610134610217366004610ca5565b610610565b60606003805461022b90610cde565b80601f016020809104026020016040519081016040528092919081815260200182805461025790610cde565b80156102a45780601f10610279576101008083540402835291602001916102a4565b820191906000526020600020905b81548152906001019060200180831161028757829003601f168201915b5050505050905090565b60006102b93361063b565b6102de5760405162461bcd60e51b81526004016102d590610d19565b60405180910390fd5b6102e93384846106d3565b50600192915050565b6000806102ff8533610610565b90506000198114610378578281101561036b5760405162461bcd60e51b815260206004820152602860248201527f45524332303a207472616e7366657220616d6f756e74206578636565647320616044820152676c6c6f77616e636560c01b60648201526084016102d5565b61037885338584036106d3565b6103818561063b565b61039d5760405162461bcd60e51b81526004016102d590610d19565b6103a68461063b565b6103c25760405162461bcd60e51b81526004016102d590610d61565b6103cd8585856107f8565b506001949350505050565b6000336103fa8185856103eb8383610610565b6103f59190610dab565b6106d3565b5060019392505050565b6005546001600160a01b0316336001600160a01b0316146104375760405162461bcd60e51b81526004016102d590610dd1565b610441828261099e565b816001600160a01b03167f9cb9c14f7bc76e3a89b796b091850526236115352a198b1e472f00e91376bbcb8260405161047c91815260200190565b60405180910390a25050565b6005546001600160a01b0316336001600160a01b0316146104bb5760405162461bcd60e51b81526004016102d590610dd1565b6104c6335b82610a5d565b50565b60606004805461022b90610cde565b600033816104e68286610610565b9050838110156105465760405162461bcd60e51b815260206004820152602560248201527f45524332303a2064656372656173656420616c6c6f77616e63652062656c6f77604482015264207a65726f60d81b60648201526084016102d5565b6103cd82868684036106d3565b600061055e3361063b565b61057a5760405162461bcd60e51b81526004016102d590610d19565b6105838361063b565b61059f5760405162461bcd60e51b81526004016102d590610d61565b6102e93384846107f8565b6105b33361063b565b6105cf5760405162461bcd60e51b81526004016102d590610d19565b6105d8336104c0565b60405181815233907fe6c82503aaaa3db78b70f183901ae8668918f895b3982b2c851cf2ffe0c6c6399060200160405180910390a250565b6001600160a01b03918216600090815260016020908152604080832093909416825291909152205490565b600654604051637143059f60e01b81526001600160a01b0383811660048301526000928392911690637143059f90602401600060405180830381865afa158015610689573d6000803e3d6000fd5b505050506040513d6000823e601f3d908101601f191682016040526106b19190810190610ea0565b90506001816040015160028111156106cb576106cb610f81565b149392505050565b6001600160a01b0383166107355760405162461bcd60e51b8152602060048201526024808201527f45524332303a20617070726f76652066726f6d20746865207a65726f206164646044820152637265737360e01b60648201526084016102d5565b6001600160a01b0382166107965760405162461bcd60e51b815260206004820152602260248201527f45524332303a20617070726f766520746f20746865207a65726f206164647265604482015261737360f01b60648201526084016102d5565b6001600160a01b0383811660008181526001602090815260408083209487168084529482529182902085905590518481527f8c5be1e5ebec7d5bd14f71427d1e84f3dd0314c0f7b2291e5b200ac8c7c3b92591015b60405180910390a3505050565b6001600160a01b03831661085c5760405162461bcd60e51b815260206004820152602560248201527f45524332303a207472616e736665722066726f6d20746865207a65726f206164604482015264647265737360d81b60648201526084016102d5565b6001600160a01b0382166108be5760405162461bcd60e51b815260206004820152602360248201527f45524332303a207472616e7366657220746f20746865207a65726f206164647260448201526265737360e81b60648201526084016102d5565b6001600160a01b038316600090815260208190526040902054818110156109365760405162461bcd60e51b815260206004820152602660248201527f45524332303a207472616e7366657220616d6f756e7420657863656564732062604482015265616c616e636560d01b60648201526084016102d5565b6001600160a01b03848116600081815260208181526040808320878703905593871680835291849020805487019055925185815290927fddf252ad1be2c89b69c2b068fc378daa952ba7f163c4a11628f55a4df523b3ef910160405180910390a35b50505050565b6001600160a01b0382166109f45760405162461bcd60e51b815260206004820152601f60248201527f45524332303a206d696e7420746f20746865207a65726f20616464726573730060448201526064016102d5565b8060026000828254610a069190610dab565b90915550506001600160a01b038216600081815260208181526040808320805486019055518481527fddf252ad1be2c89b69c2b068fc378daa952ba7f163c4a11628f55a4df523b3ef910160405180910390a35050565b6001600160a01b038216610abd5760405162461bcd60e51b815260206004820152602160248201527f45524332303a206275726e2066726f6d20746865207a65726f206164647265736044820152607360f81b60648201526084016102d5565b6001600160a01b03821660009081526020819052604090205481811015610b315760405162461bcd60e51b815260206004820152602260248201527f45524332303a206275726e20616d6f756e7420657863656564732062616c616e604482015261636560f01b60648201526084016102d5565b6001600160a01b0383166000818152602081815260408083208686039055600280548790039055518581529192917fddf252ad1be2c89b69c2b068fc378daa952ba7f163c4a11628f55a4df523b3ef91016107eb565b60005b83811015610ba2578181015183820152602001610b8a565b838111156109985750506000910152565b6020815260008251806020840152610bd2816040850160208701610b87565b601f01601f19169190910160400192915050565b6001600160a01b03811681146104c657600080fd5b60008060408385031215610c0e57600080fd5b8235610c1981610be6565b946020939093013593505050565b600080600060608486031215610c3c57600080fd5b8335610c4781610be6565b92506020840135610c5781610be6565b929592945050506040919091013590565b600060208284031215610c7a57600080fd5b5035919050565b600060208284031215610c9357600080fd5b8135610c9e81610be6565b9392505050565b60008060408385031215610cb857600080fd5b8235610cc381610be6565b91506020830135610cd381610be6565b809150509250929050565b600181811c90821680610cf257607f821691505b60208210811415610d1357634e487b7160e01b600052602260045260246000fd5b50919050565b60208082526028908201527f73656e646572206973206e6f7420616e206163746976652043424443207061726040820152671d1a58da5c185b9d60c21b606082015260800190565b6020808252602a908201527f7265636569766572206973206e6f7420616e2061637469766520434244432070604082015269185c9d1a58da5c185b9d60b21b606082015260800190565b60008219821115610dcc57634e487b7160e01b600052601160045260246000fd5b500190565b6020808252602b908201527f4572726f722c206d73672e73656e64657220646f6573206e6f7420686176652060408201526a6d696e74657220726f6c6560a81b606082015260800190565b634e487b7160e01b600052604160045260246000fd5b6040516060810167ffffffffffffffff81118282101715610e5557610e55610e1c565b60405290565b604051601f8201601f1916810167ffffffffffffffff81118282101715610e8457610e84610e1c565b604052919050565b805160038110610e9b57600080fd5b919050565b60006020808385031215610eb357600080fd5b825167ffffffffffffffff80821115610ecb57600080fd5b9084019060608287031215610edf57600080fd5b610ee7610e32565b8251610ef281610be6565b81528284015182811115610f0557600080fd5b8301601f81018813610f1657600080fd5b805183811115610f2857610f28610e1c565b610f3a601f8201601f19168701610e5b565b93508084528886828401011115610f5057600080fd5b610f5f81878601888501610b87565b50508184820152610f7260408401610e8c565b60408201529695505050505050565b634e487b7160e01b600052602160045260246000fdfea264697066735822122090f02ffa1d6007a691f2e3b0fcc04b03d80f172d03c69bbc0eff7de367853ed164736f6c634300080b0033",
  "immutableReferences": {},
  "source": "// SPDX-License-Identifier: MIT\npragma solidity 0.8.11;\n\nimport \"openzeppelin-solidity/contracts/token/ERC20/ERC20.sol\";\nimport \"./CBDC_Dapps.sol\";\nimport \"./Participant_Struct.sol\";\n\ncontract DigitalRupee is ERC20 {\n    address private minter;\n    CBDC_Dapps private cbdc;\n\n    event Issuance(address indexed receiver, uint256 value);\n    event Redemption(address indexed sender, uint256 value);\n\n    constructor(address _minter, address _cbdc) ERC20(\"Digital Rupee\", \"DIDR\") {\n        minter = _minter;\n        cbdc = CBDC_Dapps(_cbdc);\n    }\n\n    modifier isMinter() {\n        require(\n            _msgSender() == minter,\n            \"Error, msg.sender does not have minter role\"\n        );\n        _;\n    }\n\n    function mint(address _toAddress, uint256 _amount) external isMinter {\n        _mint(_toAddress, _amount);\n        emit Issuance(_toAddress, _amount);\n    }\n\n    function burn(uint256 _amount) external isMinter {\n        _burn(_msgSender(), _amount);\n    }\n\n    function redeem(uint256 _amount) external {\n        require(\n            _isActiveParticipant(_msgSender()),\n            \"sender is not an active CBDC participant\"\n        );\n        _burn(_msgSender(), _amount);\n        emit Redemption(_msgSender(), _amount);\n    }\n\n    function _getParticipant(\n        address _address\n    ) private view returns (Participant memory) {\n        Participant memory _participant = cbdc.getParticipant(_address);\n        return _participant;\n    }\n\n    function _isActiveParticipant(\n        address _address\n    ) private view returns (bool) {\n        Participant memory _participant = cbdc.getParticipant(_address);\n\n        return _participant.status == ParticipantStatus.Active;\n    }\n\n    function transfer(\n        address recipient,\n        uint256 amount\n    ) public override returns (bool) {\n        require(\n            _isActiveParticipant(_msgSender()),\n            \"sender is not an active CBDC participant\"\n        );\n        require(\n            _isActiveParticipant(recipient),\n            \"receiver is not an active CBDC participant\"\n        );\n\n        _transfer(_msgSender(), recipient, amount);\n        return true;\n    }\n\n    function approve(\n        address spender,\n        uint256 amount\n    ) public override returns (bool) {\n        require(\n            _isActiveParticipant(_msgSender()),\n            \"sender is not an active CBDC participant\"\n        );\n\n        _approve(_msgSender(), spender, amount);\n        return true;\n    }\n\n    function transferFrom(\n        address sender,\n        address recipient,\n        uint256 amount\n    ) public override returns (bool) {\n        uint256 currentAllowance = allowance(sender, _msgSender());\n        if (currentAllowance != type(uint256).max) {\n            require(\n                currentAllowance >= amount,\n                \"ERC20: transfer amount exceeds allowance\"\n            );\n            unchecked {\n                _approve(sender, _msgSender(), currentAllowance - amount);\n            }\n        }\n\n        require(\n            _isActiveParticipant(sender),\n            \"sender is not an active CBDC participant\"\n        );\n        require(\n            _isActiveParticipant(recipient),\n            \"receiver is not an active CBDC participant\"\n        );\n\n        _transfer(sender, recipient, amount);\n\n        return true;\n    }\n}\n",
  "sourcePath": "/home/dkvhem/Documents/Final-Year-Project/test/test2/cbdc/contracts/DigitalRupee.sol",
  "compiler": {
    "name": "solc",
    "version": "0.8.11+commit.d7f03943.Emscripten.clang"
  },
  "schemaVersion": "3.4.4",
  "updatedAt": "2024-04-22T16:12:44.267Z",
  "networkType": "ethereum",
  "devdoc": {
    "kind": "dev",
    "methods": {
      "allowance(address,address)": {
        "details": "See {IERC20-allowance}."
      },
      "approve(address,uint256)": {
        "details": "See {IERC20-approve}. NOTE: If `amount` is the maximum `uint256`, the allowance is not updated on `transferFrom`. This is semantically equivalent to an infinite approval. Requirements: - `spender` cannot be the zero address."
      },
      "balanceOf(address)": {
        "details": "See {IERC20-balanceOf}."
      },
      "decimals()": {
        "details": "Returns the number of decimals used to get its user representation. For example, if `decimals` equals `2`, a balance of `505` tokens should be displayed to a user as `5.05` (`505 / 10 ** 2`). Tokens usually opt for a value of 18, imitating the relationship between Ether and Wei. This is the value {ERC20} uses, unless this function is overridden; NOTE: This information is only used for _display_ purposes: it in no way affects any of the arithmetic of the contract, including {IERC20-balanceOf} and {IERC20-transfer}."
      },
      "decreaseAllowance(address,uint256)": {
        "details": "Atomically decreases the allowance granted to `spender` by the caller. This is an alternative to {approve} that can be used as a mitigation for problems described in {IERC20-approve}. Emits an {Approval} event indicating the updated allowance. Requirements: - `spender` cannot be the zero address. - `spender` must have allowance for the caller of at least `subtractedValue`."
      },
      "increaseAllowance(address,uint256)": {
        "details": "Atomically increases the allowance granted to `spender` by the caller. This is an alternative to {approve} that can be used as a mitigation for problems described in {IERC20-approve}. Emits an {Approval} event indicating the updated allowance. Requirements: - `spender` cannot be the zero address."
      },
      "name()": {
        "details": "Returns the name of the token."
      },
      "symbol()": {
        "details": "Returns the symbol of the token, usually a shorter version of the name."
      },
      "totalSupply()": {
        "details": "See {IERC20-totalSupply}."
      }
    },
    "version": 1
  },
  "userdoc": {
    "kind": "user",
    "methods": {},
    "version": 1
  }
}