{
  "contractName": "DigitalRupee",
  "abi": [
    {
      "inputs": [
        {
          "internalType": "address",
          "name": "_minter",
          "type": "address"
        },
        {
          "internalType": "address",
          "name": "_cbdc",
          "type": "address"
        }
      ],
      "stateMutability": "nonpayable",
      "type": "constructor"
    },
    {
      "anonymous": false,
      "inputs": [
        {
          "indexed": true,
          "internalType": "address",
          "name": "owner",
          "type": "address"
        },
        {
          "indexed": true,
          "internalType": "address",
          "name": "spender",
          "type": "address"
        },
        {
          "indexed": false,
          "internalType": "uint256",
          "name": "value",
          "type": "uint256"
        }
      ],
      "name": "Approval",
      "type": "event"
    },
    {
      "anonymous": false,
      "inputs": [
        {
          "indexed": true,
          "internalType": "address",
          "name": "receiver",
          "type": "address"
        },
        {
          "indexed": false,
          "internalType": "uint256",
          "name": "value",
          "type": "uint256"
        }
      ],
      "name": "Issuance",
      "type": "event"
    },
    {
      "anonymous": false,
      "inputs": [
        {
          "indexed": true,
          "internalType": "address",
          "name": "sender",
          "type": "address"
        },
        {
          "indexed": false,
          "internalType": "uint256",
          "name": "value",
          "type": "uint256"
        }
      ],
      "name": "Redemption",
      "type": "event"
    },
    {
      "anonymous": false,
      "inputs": [
        {
          "indexed": true,
          "internalType": "address",
          "name": "from",
          "type": "address"
        },
        {
          "indexed": true,
          "internalType": "address",
          "name": "to",
          "type": "address"
        },
        {
          "indexed": false,
          "internalType": "uint256",
          "name": "value",
          "type": "uint256"
        }
      ],
      "name": "Transfer",
      "type": "event"
    },
    {
      "inputs": [
        {
          "internalType": "address",
          "name": "owner",
          "type": "address"
        },
        {
          "internalType": "address",
          "name": "spender",
          "type": "address"
        }
      ],
      "name": "allowance",
      "outputs": [
        {
          "internalType": "uint256",
          "name": "",
          "type": "uint256"
        }
      ],
      "stateMutability": "view",
      "type": "function",
      "constant": true
    },
    {
      "inputs": [
        {
          "internalType": "address",
          "name": "account",
          "type": "address"
        }
      ],
      "name": "balanceOf",
      "outputs": [
        {
          "internalType": "uint256",
          "name": "",
          "type": "uint256"
        }
      ],
      "stateMutability": "view",
      "type": "function",
      "constant": true
    },
    {
      "inputs": [],
      "name": "decimals",
      "outputs": [
        {
          "internalType": "uint8",
          "name": "",
          "type": "uint8"
        }
      ],
      "stateMutability": "view",
      "type": "function",
      "constant": true
    },
    {
      "inputs": [
        {
          "internalType": "address",
          "name": "spender",
          "type": "address"
        },
        {
          "internalType": "uint256",
          "name": "subtractedValue",
          "type": "uint256"
        }
      ],
      "name": "decreaseAllowance",
      "outputs": [
        {
          "internalType": "bool",
          "name": "",
          "type": "bool"
        }
      ],
      "stateMutability": "nonpayable",
      "type": "function"
    },
    {
      "inputs": [
        {
          "internalType": "address",
          "name": "spender",
          "type": "address"
        },
        {
          "internalType": "uint256",
          "name": "addedValue",
          "type": "uint256"
        }
      ],
      "name": "increaseAllowance",
      "outputs": [
        {
          "internalType": "bool",
          "name": "",
          "type": "bool"
        }
      ],
      "stateMutability": "nonpayable",
      "type": "function"
    },
    {
      "inputs": [],
      "name": "name",
      "outputs": [
        {
          "internalType": "string",
          "name": "",
          "type": "string"
        }
      ],
      "stateMutability": "view",
      "type": "function",
      "constant": true
    },
    {
      "inputs": [],
      "name": "symbol",
      "outputs": [
        {
          "internalType": "string",
          "name": "",
          "type": "string"
        }
      ],
      "stateMutability": "view",
      "type": "function",
      "constant": true
    },
    {
      "inputs": [],
      "name": "totalSupply",
      "outputs": [
        {
          "internalType": "uint256",
          "name": "",
          "type": "uint256"
        }
      ],
      "stateMutability": "view",
      "type": "function",
      "constant": true
    },
    {
      "inputs": [
        {
          "internalType": "address",
          "name": "_toAddress",
          "type": "address"
        },
        {
          "internalType": "uint256",
          "name": "_amount",
          "type": "uint256"
        }
      ],
      "name": "mint",
      "outputs": [],
      "stateMutability": "nonpayable",
      "type": "function"
    },
    {
      "inputs": [
        {
          "internalType": "uint256",
          "name": "_amount",
          "type": "uint256"
        }
      ],
      "name": "burn",
      "outputs": [],
      "stateMutability": "nonpayable",
      "type": "function"
    },
    {
      "inputs": [
        {
          "internalType": "uint256",
          "name": "_amount",
          "type": "uint256"
        }
      ],
      "name": "redeem",
      "outputs": [],
      "stateMutability": "nonpayable",
      "type": "function"
    },
    {
      "inputs": [
        {
          "internalType": "address",
          "name": "recipient",
          "type": "address"
        },
        {
          "internalType": "uint256",
          "name": "amount",
          "type": "uint256"
        }
      ],
      "name": "transfer",
      "outputs": [
        {
          "internalType": "bool",
          "name": "",
          "type": "bool"
        }
      ],
      "stateMutability": "nonpayable",
      "type": "function"
    },
    {
      "inputs": [
        {
          "internalType": "address",
          "name": "spender",
          "type": "address"
        },
        {
          "internalType": "uint256",
          "name": "amount",
          "type": "uint256"
        }
      ],
      "name": "approve",
      "outputs": [
        {
          "internalType": "bool",
          "name": "",
          "type": "bool"
        }
      ],
      "stateMutability": "nonpayable",
      "type": "function"
    },
    {
      "inputs": [
        {
          "internalType": "address",
          "name": "sender",
          "type": "address"
        },
        {
          "internalType": "address",
          "name": "recipient",
          "type": "address"
        },
        {
          "internalType": "uint256",
          "name": "amount",
          "type": "uint256"
        }
      ],
      "name": "transferFrom",
      "outputs": [
        {
          "internalType": "bool",
          "name": "",
          "type": "bool"
        }
      ],
      "stateMutability": "nonpayable",
      "type": "function"
    }
  ],
  "bytecode": "0x60806040523480156200001157600080fd5b506040516200129738038062001297833981016040819052620000349162000197565b604080518082018252600d81526c4469676974616c20527570656560981b6020808301918252835180850190945260048452632224a72960e11b9084015281519192916200008591600391620000d4565b5080516200009b906004906020840190620000d4565b5050600580546001600160a01b039485166001600160a01b0319918216179091556006805493909416921691909117909155506200020c565b828054620000e290620001cf565b90600052602060002090601f01602090048101928262000106576000855562000151565b82601f106200012157805160ff191683800117855562000151565b8280016001018555821562000151579182015b828111156200015157825182559160200191906001019062000134565b506200015f92915062000163565b5090565b5b808211156200015f576000815560010162000164565b80516001600160a01b03811681146200019257600080fd5b919050565b60008060408385031215620001ab57600080fd5b620001b6836200017a565b9150620001c6602084016200017a565b90509250929050565b600181811c90821680620001e457607f821691505b602082108114156200020657634e487b7160e01b600052602260045260246000fd5b50919050565b61107b806200021c6000396000f3fe608060405234801561001057600080fd5b50600436106100ea5760003560e01c806342966c681161008c578063a457c2d711610066578063a457c2d7146101d0578063a9059cbb146101e3578063db006a75146101f6578063dd62ed3e1461020957600080fd5b806342966c681461018c57806370a082311461019f57806395d89b41146101c857600080fd5b806323b872dd116100c857806323b872dd14610142578063313ce56714610155578063395093511461016457806340c10f191461017757600080fd5b806306fdde03146100ef578063095ea7b31461010d57806318160ddd14610130575b600080fd5b6100f7610242565b6040516101049190610c42565b60405180910390f35b61012061011b366004610c8a565b6102d4565b6040519015158152602001610104565b6002545b604051908152602001610104565b610120610150366004610cb6565b610318565b60405160128152602001610104565b610120610172366004610c8a565b6103fe565b61018a610185366004610c8a565b61043a565b005b61018a61019a366004610cf7565b6104be565b6101346101ad366004610d10565b6001600160a01b031660009081526020819052604090205490565b6100f76104ff565b6101206101de366004610c8a565b61050e565b6101206101f1366004610c8a565b6105a7565b61018a610204366004610cf7565b6105fe565b610134610217366004610d34565b6001600160a01b03918216600090815260016020908152604080832093909416825291909152205490565b60606003805461025190610d6d565b80601f016020809104026020016040519081016040528092919081815260200182805461027d90610d6d565b80156102ca5780601f1061029f576101008083540402835291602001916102ca565b820191906000526020600020905b8154815290600101906020018083116102ad57829003601f168201915b5050505050905090565b60006102df33610664565b6103045760405162461bcd60e51b81526004016102fb90610da8565b60405180910390fd5b61030f3384846106fc565b50600192915050565b6000806103258533610217565b9050600019811461039e57828110156103915760405162461bcd60e51b815260206004820152602860248201527f45524332303a207472616e7366657220616d6f756e74206578636565647320616044820152676c6c6f77616e636560c01b60648201526084016102fb565b61039e85338584036106fc565b6103a785610664565b6103c35760405162461bcd60e51b81526004016102fb90610da8565b6103cc84610664565b6103e85760405162461bcd60e51b81526004016102fb90610df0565b6103f3858585610821565b506001949350505050565b3360008181526001602090815260408083206001600160a01b0387168452909152812054909161030f918590610435908690610e50565b6106fc565b6005546001600160a01b0316336001600160a01b03161461046d5760405162461bcd60e51b81526004016102fb90610e68565b61047782826109f1565b816001600160a01b03167f9cb9c14f7bc76e3a89b796b091850526236115352a198b1e472f00e91376bbcb826040516104b291815260200190565b60405180910390a25050565b6005546001600160a01b0316336001600160a01b0316146104f15760405162461bcd60e51b81526004016102fb90610e68565b6104fc335b82610ad0565b50565b60606004805461025190610d6d565b3360009081526001602090815260408083206001600160a01b0386168452909152812054828110156105905760405162461bcd60e51b815260206004820152602560248201527f45524332303a2064656372656173656420616c6c6f77616e63652062656c6f77604482015264207a65726f60d81b60648201526084016102fb565b61059d33858584036106fc565b5060019392505050565b60006105b233610664565b6105ce5760405162461bcd60e51b81526004016102fb90610da8565b6105d783610664565b6105f35760405162461bcd60e51b81526004016102fb90610df0565b61030f338484610821565b61060733610664565b6106235760405162461bcd60e51b81526004016102fb90610da8565b61062c336104f6565b60405181815233907fe6c82503aaaa3db78b70f183901ae8668918f895b3982b2c851cf2ffe0c6c6399060200160405180910390a250565b600654604051637143059f60e01b81526001600160a01b0383811660048301526000928392911690637143059f90602401600060405180830381865afa1580156106b2573d6000803e3d6000fd5b505050506040513d6000823e601f3d908101601f191682016040526106da9190810190610f37565b90506001816040015160028111156106f4576106f4611018565b149392505050565b6001600160a01b03831661075e5760405162461bcd60e51b8152602060048201526024808201527f45524332303a20617070726f76652066726f6d20746865207a65726f206164646044820152637265737360e01b60648201526084016102fb565b6001600160a01b0382166107bf5760405162461bcd60e51b815260206004820152602260248201527f45524332303a20617070726f766520746f20746865207a65726f206164647265604482015261737360f01b60648201526084016102fb565b6001600160a01b0383811660008181526001602090815260408083209487168084529482529182902085905590518481527f8c5be1e5ebec7d5bd14f71427d1e84f3dd0314c0f7b2291e5b200ac8c7c3b92591015b60405180910390a3505050565b6001600160a01b0383166108855760405162461bcd60e51b815260206004820152602560248201527f45524332303a207472616e736665722066726f6d20746865207a65726f206164604482015264647265737360d81b60648201526084016102fb565b6001600160a01b0382166108e75760405162461bcd60e51b815260206004820152602360248201527f45524332303a207472616e7366657220746f20746865207a65726f206164647260448201526265737360e81b60648201526084016102fb565b6001600160a01b0383166000908152602081905260409020548181101561095f5760405162461bcd60e51b815260206004820152602660248201527f45524332303a207472616e7366657220616d6f756e7420657863656564732062604482015265616c616e636560d01b60648201526084016102fb565b6001600160a01b03808516600090815260208190526040808220858503905591851681529081208054849290610996908490610e50565b92505081905550826001600160a01b0316846001600160a01b03167fddf252ad1be2c89b69c2b068fc378daa952ba7f163c4a11628f55a4df523b3ef846040516109e291815260200190565b60405180910390a35b50505050565b6001600160a01b038216610a475760405162461bcd60e51b815260206004820152601f60248201527f45524332303a206d696e7420746f20746865207a65726f20616464726573730060448201526064016102fb565b8060026000828254610a599190610e50565b90915550506001600160a01b03821660009081526020819052604081208054839290610a86908490610e50565b90915550506040518181526001600160a01b038316906000907fddf252ad1be2c89b69c2b068fc378daa952ba7f163c4a11628f55a4df523b3ef9060200160405180910390a35050565b6001600160a01b038216610b305760405162461bcd60e51b815260206004820152602160248201527f45524332303a206275726e2066726f6d20746865207a65726f206164647265736044820152607360f81b60648201526084016102fb565b6001600160a01b03821660009081526020819052604090205481811015610ba45760405162461bcd60e51b815260206004820152602260248201527f45524332303a206275726e20616d6f756e7420657863656564732062616c616e604482015261636560f01b60648201526084016102fb565b6001600160a01b0383166000908152602081905260408120838303905560028054849290610bd390849061102e565b90915550506040518281526000906001600160a01b038516907fddf252ad1be2c89b69c2b068fc378daa952ba7f163c4a11628f55a4df523b3ef90602001610814565b60005b83811015610c31578181015183820152602001610c19565b838111156109eb5750506000910152565b6020815260008251806020840152610c61816040850160208701610c16565b601f01601f19169190910160400192915050565b6001600160a01b03811681146104fc57600080fd5b60008060408385031215610c9d57600080fd5b8235610ca881610c75565b946020939093013593505050565b600080600060608486031215610ccb57600080fd5b8335610cd681610c75565b92506020840135610ce681610c75565b929592945050506040919091013590565b600060208284031215610d0957600080fd5b5035919050565b600060208284031215610d2257600080fd5b8135610d2d81610c75565b9392505050565b60008060408385031215610d4757600080fd5b8235610d5281610c75565b91506020830135610d6281610c75565b809150509250929050565b600181811c90821680610d8157607f821691505b60208210811415610da257634e487b7160e01b600052602260045260246000fd5b50919050565b60208082526028908201527f73656e646572206973206e6f7420616e206163746976652043424443207061726040820152671d1a58da5c185b9d60c21b606082015260800190565b6020808252602a908201527f7265636569766572206973206e6f7420616e2061637469766520434244432070604082015269185c9d1a58da5c185b9d60b21b606082015260800190565b634e487b7160e01b600052601160045260246000fd5b60008219821115610e6357610e63610e3a565b500190565b6020808252602b908201527f4572726f722c206d73672e73656e64657220646f6573206e6f7420686176652060408201526a6d696e74657220726f6c6560a81b606082015260800190565b634e487b7160e01b600052604160045260246000fd5b6040516060810167ffffffffffffffff81118282101715610eec57610eec610eb3565b60405290565b604051601f8201601f1916810167ffffffffffffffff81118282101715610f1b57610f1b610eb3565b604052919050565b805160038110610f3257600080fd5b919050565b60006020808385031215610f4a57600080fd5b825167ffffffffffffffff80821115610f6257600080fd5b9084019060608287031215610f7657600080fd5b610f7e610ec9565b8251610f8981610c75565b81528284015182811115610f9c57600080fd5b8301601f81018813610fad57600080fd5b805183811115610fbf57610fbf610eb3565b610fd1601f8201601f19168701610ef2565b93508084528886828401011115610fe757600080fd5b610ff681878601888501610c16565b5050818482015261100960408401610f23565b60408201529695505050505050565b634e487b7160e01b600052602160045260246000fd5b60008282101561104057611040610e3a565b50039056fea26469706673582212207daa3c87c1a26eabaf965479003edf686f3363b301742ae647dc3f1f71a0d5d564736f6c634300080b0033",
  "immutableReferences": {},
  "source": "// SPDX-License-Identifier: MIT\r\npragma solidity ^0.8.0;\r\n\r\nimport \"openzeppelin-solidity/contracts/token/ERC20/ERC20.sol\";\r\nimport \"./CBDC_Dapps.sol\";\r\nimport \"./Participant_Struct.sol\";\r\n\r\ncontract DigitalRupee is ERC20 {\r\n    address private minter;\r\n    CBDC_Dapps private cbdc;\r\n\r\n    event Issuance(address indexed receiver, uint256 value);\r\n    event Redemption(address indexed sender, uint256 value);\r\n\r\n    constructor(address _minter, address _cbdc) ERC20(\"Digital Rupee\", \"DINR\") {\r\n        minter = _minter;\r\n        cbdc = CBDC_Dapps(_cbdc);\r\n    }\r\n\r\n    modifier isMinter() {\r\n        require(\r\n            _msgSender() == minter,\r\n            \"Error, msg.sender does not have minter role\"\r\n        );\r\n        _;\r\n    }\r\n\r\n    function mint(address _toAddress, uint256 _amount) external isMinter {\r\n        _mint(_toAddress, _amount);\r\n        emit Issuance(_toAddress, _amount);\r\n    }\r\n\r\n    function burn(uint256 _amount) external isMinter {\r\n        _burn(_msgSender(), _amount);\r\n    }\r\n\r\n    function redeem(uint256 _amount) external {\r\n        require(\r\n            _isActiveParticipant(_msgSender()),\r\n            \"sender is not an active CBDC participant\"\r\n        );\r\n        _burn(_msgSender(), _amount);\r\n        emit Redemption(_msgSender(), _amount);\r\n    }\r\n\r\n    function _getParticipant(\r\n        address _address\r\n    ) private view returns (Participant memory) {\r\n        Participant memory _participant = cbdc.getParticipant(_address);\r\n        return _participant;\r\n    }\r\n\r\n    function _isActiveParticipant(\r\n        address _address\r\n    ) private view returns (bool) {\r\n        Participant memory _participant = cbdc.getParticipant(_address);\r\n\r\n        return _participant.status == ParticipantStatus.Active;\r\n    }\r\n\r\n    function transfer(\r\n        address recipient,\r\n        uint256 amount\r\n    ) public override returns (bool) {\r\n        require(\r\n            _isActiveParticipant(_msgSender()),\r\n            \"sender is not an active CBDC participant\"\r\n        );\r\n        require(\r\n            _isActiveParticipant(recipient),\r\n            \"receiver is not an active CBDC participant\"\r\n        );\r\n\r\n        _transfer(_msgSender(), recipient, amount);\r\n        return true;\r\n    }\r\n\r\n    function approve(\r\n        address spender,\r\n        uint256 amount\r\n    ) public override returns (bool) {\r\n        require(\r\n            _isActiveParticipant(_msgSender()),\r\n            \"sender is not an active CBDC participant\"\r\n        );\r\n\r\n        _approve(_msgSender(), spender, amount);\r\n        return true;\r\n    }\r\n\r\n    function transferFrom(\r\n        address sender,\r\n        address recipient,\r\n        uint256 amount\r\n    ) public override returns (bool) {\r\n        uint256 currentAllowance = allowance(sender, _msgSender());\r\n        if (currentAllowance != type(uint256).max) {\r\n            require(\r\n                currentAllowance >= amount,\r\n                \"ERC20: transfer amount exceeds allowance\"\r\n            );\r\n            unchecked {\r\n                _approve(sender, _msgSender(), currentAllowance - amount);\r\n            }\r\n        }\r\n\r\n        require(\r\n            _isActiveParticipant(sender),\r\n            \"sender is not an active CBDC participant\"\r\n        );\r\n        require(\r\n            _isActiveParticipant(recipient),\r\n            \"receiver is not an active CBDC participant\"\r\n        );\r\n\r\n        _transfer(sender, recipient, amount);\r\n\r\n        return true;\r\n    }\r\n}\r\n",
  "sourcePath": "C:\\Users\\dkvhe\\OneDrive\\Documents\\vs_code\\Projects\\Final-Year-Project\\test4\\cbdc\\contracts\\DigitalRupee.sol",
  "compiler": {
    "name": "solc",
    "version": "0.8.11+commit.d7f03943.Emscripten.clang"
  },
  "schemaVersion": "3.4.16",
  "updatedAt": "2024-04-28T06:04:48.925Z",
  "networkType": "ethereum",
  "devdoc": {
    "kind": "dev",
    "methods": {
      "allowance(address,address)": {
        "details": "See {IERC20-allowance}."
      },
      "approve(address,uint256)": {
        "details": "See {IERC20-approve}. Requirements: - `spender` cannot be the zero address."
      },
      "balanceOf(address)": {
        "details": "See {IERC20-balanceOf}."
      },
      "decimals()": {
        "details": "Returns the number of decimals used to get its user representation. For example, if `decimals` equals `2`, a balance of `505` tokens should be displayed to a user as `5.05` (`505 / 10 ** 2`). Tokens usually opt for a value of 18, imitating the relationship between Ether and Wei. This is the value {ERC20} uses, unless this function is overridden; NOTE: This information is only used for _display_ purposes: it in no way affects any of the arithmetic of the contract, including {IERC20-balanceOf} and {IERC20-transfer}."
      },
      "decreaseAllowance(address,uint256)": {
        "details": "Atomically decreases the allowance granted to `spender` by the caller. This is an alternative to {approve} that can be used as a mitigation for problems described in {IERC20-approve}. Emits an {Approval} event indicating the updated allowance. Requirements: - `spender` cannot be the zero address. - `spender` must have allowance for the caller of at least `subtractedValue`."
      },
      "increaseAllowance(address,uint256)": {
        "details": "Atomically increases the allowance granted to `spender` by the caller. This is an alternative to {approve} that can be used as a mitigation for problems described in {IERC20-approve}. Emits an {Approval} event indicating the updated allowance. Requirements: - `spender` cannot be the zero address."
      },
      "name()": {
        "details": "Returns the name of the token."
      },
      "symbol()": {
        "details": "Returns the symbol of the token, usually a shorter version of the name."
      },
      "totalSupply()": {
        "details": "See {IERC20-totalSupply}."
      },
      "transfer(address,uint256)": {
        "details": "See {IERC20-transfer}. Requirements: - `recipient` cannot be the zero address. - the caller must have a balance of at least `amount`."
      },
      "transferFrom(address,address,uint256)": {
        "details": "See {IERC20-transferFrom}. Emits an {Approval} event indicating the updated allowance. This is not required by the EIP. See the note at the beginning of {ERC20}. Requirements: - `sender` and `recipient` cannot be the zero address. - `sender` must have a balance of at least `amount`. - the caller must have allowance for ``sender``'s tokens of at least `amount`."
      }
    },
    "version": 1
  },
  "userdoc": {
    "kind": "user",
    "methods": {},
    "version": 1
  }
}