{
  "contractName": "Request",
  "abi": [
    {
      "inputs": [
        {
          "internalType": "address",
          "name": "_digitalRupee",
          "type": "address"
        },
        {
          "internalType": "address",
          "name": "_buyer",
          "type": "address"
        },
        {
          "internalType": "uint256",
          "name": "_rupeeAmount",
          "type": "uint256"
        },
        {
          "internalType": "address",
          "name": "_SBN",
          "type": "address"
        },
        {
          "internalType": "address",
          "name": "_seller",
          "type": "address"
        },
        {
          "internalType": "uint256",
          "name": "_sbnAmount",
          "type": "uint256"
        },
        {
          "internalType": "uint256",
          "name": "_expiredDate",
          "type": "uint256"
        }
      ],
      "stateMutability": "nonpayable",
      "type": "constructor"
    },
    {
      "inputs": [],
      "name": "SBN",
      "outputs": [
        {
          "internalType": "contract IERC20",
          "name": "",
          "type": "address"
        }
      ],
      "stateMutability": "view",
      "type": "function"
    },
    {
      "inputs": [],
      "name": "Timestamp_expiredDate",
      "outputs": [
        {
          "internalType": "uint256",
          "name": "",
          "type": "uint256"
        }
      ],
      "stateMutability": "view",
      "type": "function"
    },
    {
      "inputs": [],
      "name": "buyer",
      "outputs": [
        {
          "internalType": "address",
          "name": "",
          "type": "address"
        }
      ],
      "stateMutability": "view",
      "type": "function"
    },
    {
      "inputs": [],
      "name": "digitalRupee",
      "outputs": [
        {
          "internalType": "contract IERC20",
          "name": "",
          "type": "address"
        }
      ],
      "stateMutability": "view",
      "type": "function"
    },
    {
      "inputs": [],
      "name": "rupeeAmount",
      "outputs": [
        {
          "internalType": "uint256",
          "name": "",
          "type": "uint256"
        }
      ],
      "stateMutability": "view",
      "type": "function"
    },
    {
      "inputs": [],
      "name": "sbnAmount",
      "outputs": [
        {
          "internalType": "uint256",
          "name": "",
          "type": "uint256"
        }
      ],
      "stateMutability": "view",
      "type": "function"
    },
    {
      "inputs": [],
      "name": "seller",
      "outputs": [
        {
          "internalType": "address",
          "name": "",
          "type": "address"
        }
      ],
      "stateMutability": "view",
      "type": "function"
    },
    {
      "inputs": [],
      "name": "status",
      "outputs": [
        {
          "internalType": "enum RequestStatus",
          "name": "",
          "type": "uint8"
        }
      ],
      "stateMutability": "view",
      "type": "function"
    },
    {
      "inputs": [],
      "name": "accept",
      "outputs": [],
      "stateMutability": "nonpayable",
      "type": "function"
    },
    {
      "inputs": [],
      "name": "cancel",
      "outputs": [],
      "stateMutability": "nonpayable",
      "type": "function"
    },
    {
      "inputs": [],
      "name": "reject",
      "outputs": [],
      "stateMutability": "nonpayable",
      "type": "function"
    }
  ],
  "bytecode": "0x608060405234801561001057600080fd5b50604051610acf380380610acf83398101604081905261002f916102ad565b826001600160a01b0316866001600160a01b031614156100a15760405162461bcd60e51b815260206004820152602260248201527f627579657220616e642073656c6c6572206d75737420626520646966666572656044820152611b9d60f21b60648201526084015b60405180910390fd5b6100ad610e108261031e565b156101055760405162461bcd60e51b815260206004820152602260248201527f457870697265642064617465206d75737420617420616e20657861637420686f6044820152613ab960f11b6064820152608401610098565b6101124262015180610340565b8111156101755760405162461bcd60e51b815260206004820152602b60248201527f457870697265642064617465206d757374206e6f74206578636565642031206460448201526a61792066726f6d206e6f7760a81b6064820152608401610098565b600080546001600160a01b038981166001600160a01b03199283161790925560018054898416908316179055600287905560038054878416908316811790915560048054938716939092168317825560058590556040516370a0823160e01b8152918201929092528391906370a0823190602401602060405180830381865afa158015610206573d6000803e3d6000fd5b505050506040513d601f19601f8201168201806040525081019061022a9190610366565b10156102785760405162461bcd60e51b815260206004820152601c60248201527f53424e20756e69747320746f2073656c6c206e6f7420656e6f756768000000006044820152606401610098565b60075550506006805460ff191690555061037f92505050565b80516001600160a01b03811681146102a857600080fd5b919050565b600080600080600080600060e0888a0312156102c857600080fd5b6102d188610291565b96506102df60208901610291565b9550604088015194506102f460608901610291565b935061030260808901610291565b925060a0880151915060c0880151905092959891949750929550565b60008261033b57634e487b7160e01b600052601260045260246000fd5b500690565b6000821982111561036157634e487b7160e01b600052601160045260246000fd5b500190565b60006020828403121561037857600080fd5b5051919050565b6107418061038e6000396000f3fe608060405234801561001057600080fd5b50600436106100a95760003560e01c806380b8db201161007157806380b8db201461011d57806390be042a14610134578063ad92226b1461013d578063b53f5ef814610150578063ea8a1af014610163578063f17fffb71461016b57600080fd5b806308551a53146100ae578063200d2ed2146100de5780632852b71c146100f85780634dc415de146101025780637150d8ae1461010a575b600080fd5b6004546100c1906001600160a01b031681565b6040516001600160a01b0390911681526020015b60405180910390f35b6006546100eb9060ff1681565b6040516100d59190610672565b610100610174565b005b610100610457565b6001546100c1906001600160a01b031681565b61012660025481565b6040519081526020016100d5565b61012660055481565b6000546100c1906001600160a01b031681565b6003546100c1906001600160a01b031681565b6101006104f3565b61012660075481565b6001546001600160a01b031633146101cb5760405162461bcd60e51b815260206004820152601560248201527413db9b1e48109d5e595c8810d85b881058d8d95c1d605a1b60448201526064015b60405180910390fd5b600060065460ff1660038111156101e4576101e461065c565b146102015760405162461bcd60e51b81526004016101c29061069a565b6007544211156102455760405162461bcd60e51b815260206004820152600f60248201526e14995c5d595cdd08195e1c1a5c9959608a1b60448201526064016101c2565b600254600054600154604051636eb1769f60e11b81526001600160a01b03918216600482015230602482015291169063dd62ed3e90604401602060405180830381865afa15801561029a573d6000803e3d6000fd5b505050506040513d601f19601f820116820180604052508101906102be91906106c9565b101561031f5760405162461bcd60e51b815260206004820152602a60248201527f42757965722773204469676974616c20527570656520616c6c6f77616e636520604482015269697320746f6f206c6f7760b01b60648201526084016101c2565b60055460035460048054604051636eb1769f60e11b81526001600160a01b03918216928101929092523060248301529091169063dd62ed3e90604401602060405180830381865afa158015610378573d6000803e3d6000fd5b505050506040513d601f19601f8201168201806040525081019061039c91906106c9565b10156103f45760405162461bcd60e51b815260206004820152602160248201527f53656c6c657227732053424e20616c6c6f77616e636520697320746f6f206c6f6044820152607760f81b60648201526084016101c2565b60005460015460045460025461041a936001600160a01b0390811693811692169061058f565b600354600454600154600554610440936001600160a01b0390811693811692169061058f565b600680546003919060ff19166001835b0217905550565b6001546001600160a01b031633146104a95760405162461bcd60e51b815260206004820152601560248201527413db9b1e48189d5e595c8818d85b881c995a9958dd605a1b60448201526064016101c2565b600060065460ff1660038111156104c2576104c261065c565b146104df5760405162461bcd60e51b81526004016101c29061069a565b600680546002919060ff1916600183610450565b6004546001600160a01b031633146105465760405162461bcd60e51b815260206004820152601660248201527513db9b1e481cd95b1b195c8818d85b8818d85b98d95b60521b60448201526064016101c2565b600060065460ff16600381111561055f5761055f61065c565b1461057c5760405162461bcd60e51b81526004016101c29061069a565b600680546001919060ff19168280610450565b6040516323b872dd60e01b81526001600160a01b038481166004830152838116602483015260448201839052600091908616906323b872dd906064016020604051808303816000875af11580156105ea573d6000803e3d6000fd5b505050506040513d601f19601f8201168201806040525081019061060e91906106e2565b9050806106555760405162461bcd60e51b8152602060048201526015602482015274151bdad95b881d1c985b9cd9995c8819985a5b1959605a1b60448201526064016101c2565b5050505050565b634e487b7160e01b600052602160045260246000fd5b602081016004831061069457634e487b7160e01b600052602160045260246000fd5b91905290565b60208082526015908201527414995c5d595cdd081dd85cc818dbdb5c1b195d1959605a1b604082015260600190565b6000602082840312156106db57600080fd5b5051919050565b6000602082840312156106f457600080fd5b8151801515811461070457600080fd5b939250505056fea2646970667358221220914737e0a101efe21c0e8dfac4a36d3808bc12add60abd4ef5ff52e6d74116d464736f6c634300080b0033",
  "immutableReferences": {},
  "source": "// SPDX-License-Identifier: MIT\n\npragma solidity 0.8.11;\n\nimport \"openzeppelin-solidity/contracts/token/ERC20/IERC20.sol\";\n\nenum RequestStatus {\n    PendingBuyer,\n    Cancelled,\n    Rejected,\n    Accepted\n}\n\ncontract Request {\n    IERC20 public digitalRupee;\n    address public buyer;\n    uint256 public rupeeAmount;\n\n    IERC20 public SBN;\n    address public seller;\n    uint256 public sbnAmount;\n\n    RequestStatus public status;\n    uint256 public Timestamp_expiredDate;\n\n    constructor(\n        address _digitalRupee,\n        address _buyer,\n        uint256 _rupeeAmount,\n        address _SBN,\n        address _seller,\n        uint256 _sbnAmount,\n        uint256 _expiredDate\n    ) {\n        require(_buyer != _seller, \"buyer and seller must be different\");\n\n        require(_expiredDate % 3600 == 0, \"Expired date must at an exact hour\");\n        require(\n            _expiredDate <= (block.timestamp + 1 days),\n            \"Expired date must not exceed 1 day from now\"\n        );\n\n        digitalRupee = IERC20(_digitalRupee);\n        buyer = _buyer;\n        rupeeAmount = _rupeeAmount;\n\n        SBN = IERC20(_SBN);\n        seller = _seller;\n\n        sbnAmount = _sbnAmount;\n\n        require(\n            SBN.balanceOf(seller) >= sbnAmount,\n            \"SBN units to sell not enough\"\n        );\n\n        Timestamp_expiredDate = _expiredDate;\n\n        status = RequestStatus.PendingBuyer;\n\n        // seller must approve their SBN after contract creation\n    }\n\n    function accept() public {\n        require(msg.sender == buyer, \"Only Buyer Can Accept\");\n        require(status == RequestStatus.PendingBuyer, \"Request was completed\");\n        require(block.timestamp <= Timestamp_expiredDate, \"Request expired\");\n        require(\n            digitalRupee.allowance(buyer, address(this)) >= rupeeAmount,\n            \"Buyer's Digital Rupee allowance is too low\"\n        );\n        require(\n            SBN.allowance(seller, address(this)) >= sbnAmount,\n            \"Seller's SBN allowance is too low\"\n        );\n\n        _safeTransferFrom(digitalRupee, buyer, seller, rupeeAmount);\n        _safeTransferFrom(SBN, seller, buyer, sbnAmount);\n\n        status = RequestStatus.Accepted;\n    }\n\n    function cancel() public {\n        require(msg.sender == seller, \"Only seller can cancel\");\n        require(status == RequestStatus.PendingBuyer, \"Request was completed\");\n\n        status = RequestStatus.Cancelled;\n    }\n\n    function reject() public {\n        require(msg.sender == buyer, \"Only buyer can reject\");\n        require(status == RequestStatus.PendingBuyer, \"Request was completed\");\n\n        status = RequestStatus.Rejected;\n    }\n\n    function _safeTransferFrom(\n        IERC20 token,\n        address sender,\n        address recipient,\n        uint256 amount\n    ) private {\n        bool sent = token.transferFrom(sender, recipient, amount);\n        require(sent, \"Token transfer failed\");\n    }\n}\n",
  "sourcePath": "/home/dkvhem/Documents/Final-Year-Project/test/test2/cbdc/contracts/Request.sol",
  "compiler": {
    "name": "solc",
    "version": "0.8.11+commit.d7f03943.Emscripten.clang"
  },
  "schemaVersion": "3.4.4",
  "updatedAt": "2024-04-22T16:10:28.452Z",
  "networkType": "ethereum",
  "devdoc": {
    "kind": "dev",
    "methods": {},
    "version": 1
  },
  "userdoc": {
    "kind": "user",
    "methods": {},
    "version": 1
  }
}