{
  "contractName": "SBN",
  "abi": [
    {
      "inputs": [
        {
          "internalType": "address",
          "name": "_minter",
          "type": "address"
        },
        {
          "internalType": "string",
          "name": "_name",
          "type": "string"
        },
        {
          "internalType": "string",
          "name": "_symbol",
          "type": "string"
        },
        {
          "internalType": "uint256",
          "name": "_initialUnitPrice",
          "type": "uint256"
        },
        {
          "internalType": "uint256",
          "name": "_releasedDate",
          "type": "uint256"
        },
        {
          "internalType": "uint256",
          "name": "_maturityDate",
          "type": "uint256"
        },
        {
          "internalType": "address",
          "name": "_cbdc",
          "type": "address"
        }
      ],
      "stateMutability": "nonpayable",
      "type": "constructor"
    },
    {
      "anonymous": false,
      "inputs": [
        {
          "indexed": true,
          "internalType": "address",
          "name": "owner",
          "type": "address"
        },
        {
          "indexed": true,
          "internalType": "address",
          "name": "spender",
          "type": "address"
        },
        {
          "indexed": false,
          "internalType": "uint256",
          "name": "value",
          "type": "uint256"
        }
      ],
      "name": "Approval",
      "type": "event"
    },
    {
      "anonymous": false,
      "inputs": [
        {
          "indexed": true,
          "internalType": "address",
          "name": "receiver",
          "type": "address"
        },
        {
          "indexed": false,
          "internalType": "uint256",
          "name": "value",
          "type": "uint256"
        }
      ],
      "name": "Issuance",
      "type": "event"
    },
    {
      "anonymous": false,
      "inputs": [
        {
          "indexed": true,
          "internalType": "address",
          "name": "sender",
          "type": "address"
        },
        {
          "indexed": false,
          "internalType": "uint256",
          "name": "value",
          "type": "uint256"
        }
      ],
      "name": "Redemption",
      "type": "event"
    },
    {
      "anonymous": false,
      "inputs": [
        {
          "indexed": true,
          "internalType": "address",
          "name": "from",
          "type": "address"
        },
        {
          "indexed": true,
          "internalType": "address",
          "name": "to",
          "type": "address"
        },
        {
          "indexed": false,
          "internalType": "uint256",
          "name": "value",
          "type": "uint256"
        }
      ],
      "name": "Transfer",
      "type": "event"
    },
    {
      "inputs": [],
      "name": "Timestamp_maturityDate",
      "outputs": [
        {
          "internalType": "uint256",
          "name": "",
          "type": "uint256"
        }
      ],
      "stateMutability": "view",
      "type": "function",
      "constant": true
    },
    {
      "inputs": [],
      "name": "Timestamp_releaseDate",
      "outputs": [
        {
          "internalType": "uint256",
          "name": "",
          "type": "uint256"
        }
      ],
      "stateMutability": "view",
      "type": "function",
      "constant": true
    },
    {
      "inputs": [
        {
          "internalType": "address",
          "name": "owner",
          "type": "address"
        },
        {
          "internalType": "address",
          "name": "spender",
          "type": "address"
        }
      ],
      "name": "allowance",
      "outputs": [
        {
          "internalType": "uint256",
          "name": "",
          "type": "uint256"
        }
      ],
      "stateMutability": "view",
      "type": "function",
      "constant": true
    },
    {
      "inputs": [
        {
          "internalType": "address",
          "name": "account",
          "type": "address"
        }
      ],
      "name": "balanceOf",
      "outputs": [
        {
          "internalType": "uint256",
          "name": "",
          "type": "uint256"
        }
      ],
      "stateMutability": "view",
      "type": "function",
      "constant": true
    },
    {
      "inputs": [
        {
          "internalType": "address",
          "name": "spender",
          "type": "address"
        },
        {
          "internalType": "uint256",
          "name": "subtractedValue",
          "type": "uint256"
        }
      ],
      "name": "decreaseAllowance",
      "outputs": [
        {
          "internalType": "bool",
          "name": "",
          "type": "bool"
        }
      ],
      "stateMutability": "nonpayable",
      "type": "function"
    },
    {
      "inputs": [
        {
          "internalType": "address",
          "name": "spender",
          "type": "address"
        },
        {
          "internalType": "uint256",
          "name": "addedValue",
          "type": "uint256"
        }
      ],
      "name": "increaseAllowance",
      "outputs": [
        {
          "internalType": "bool",
          "name": "",
          "type": "bool"
        }
      ],
      "stateMutability": "nonpayable",
      "type": "function"
    },
    {
      "inputs": [],
      "name": "initialUnitPrice",
      "outputs": [
        {
          "internalType": "uint256",
          "name": "",
          "type": "uint256"
        }
      ],
      "stateMutability": "view",
      "type": "function",
      "constant": true
    },
    {
      "inputs": [],
      "name": "name",
      "outputs": [
        {
          "internalType": "string",
          "name": "",
          "type": "string"
        }
      ],
      "stateMutability": "view",
      "type": "function",
      "constant": true
    },
    {
      "inputs": [],
      "name": "symbol",
      "outputs": [
        {
          "internalType": "string",
          "name": "",
          "type": "string"
        }
      ],
      "stateMutability": "view",
      "type": "function",
      "constant": true
    },
    {
      "inputs": [],
      "name": "totalSupply",
      "outputs": [
        {
          "internalType": "uint256",
          "name": "",
          "type": "uint256"
        }
      ],
      "stateMutability": "view",
      "type": "function",
      "constant": true
    },
    {
      "inputs": [],
      "name": "decimals",
      "outputs": [
        {
          "internalType": "uint8",
          "name": "",
          "type": "uint8"
        }
      ],
      "stateMutability": "view",
      "type": "function",
      "constant": true
    },
    {
      "inputs": [
        {
          "internalType": "address",
          "name": "_toAddress",
          "type": "address"
        },
        {
          "internalType": "uint256",
          "name": "_amount",
          "type": "uint256"
        }
      ],
      "name": "mint",
      "outputs": [],
      "stateMutability": "nonpayable",
      "type": "function"
    },
    {
      "inputs": [
        {
          "internalType": "uint256",
          "name": "_amount",
          "type": "uint256"
        }
      ],
      "name": "burn",
      "outputs": [],
      "stateMutability": "nonpayable",
      "type": "function"
    },
    {
      "inputs": [
        {
          "internalType": "uint256",
          "name": "_amount",
          "type": "uint256"
        }
      ],
      "name": "redeem",
      "outputs": [],
      "stateMutability": "nonpayable",
      "type": "function"
    },
    {
      "inputs": [
        {
          "internalType": "address",
          "name": "recipient",
          "type": "address"
        },
        {
          "internalType": "uint256",
          "name": "amount",
          "type": "uint256"
        }
      ],
      "name": "transfer",
      "outputs": [
        {
          "internalType": "bool",
          "name": "",
          "type": "bool"
        }
      ],
      "stateMutability": "nonpayable",
      "type": "function"
    },
    {
      "inputs": [
        {
          "internalType": "address",
          "name": "spender",
          "type": "address"
        },
        {
          "internalType": "uint256",
          "name": "amount",
          "type": "uint256"
        }
      ],
      "name": "approve",
      "outputs": [
        {
          "internalType": "bool",
          "name": "",
          "type": "bool"
        }
      ],
      "stateMutability": "nonpayable",
      "type": "function"
    },
    {
      "inputs": [
        {
          "internalType": "address",
          "name": "sender",
          "type": "address"
        },
        {
          "internalType": "address",
          "name": "recipient",
          "type": "address"
        },
        {
          "internalType": "uint256",
          "name": "amount",
          "type": "uint256"
        }
      ],
      "name": "transferFrom",
      "outputs": [
        {
          "internalType": "bool",
          "name": "",
          "type": "bool"
        }
      ],
      "stateMutability": "nonpayable",
      "type": "function"
    }
  ],
  "bytecode": "0x60806040523480156200001157600080fd5b506040516200157f3803806200157f8339810160408190526200003491620003bd565b8551869086906200004d9060039060208501906200022d565b508051620000639060049060208401906200022d565b5050600580546001600160a01b0319166001600160a01b038a16179055506200009062015180846200046a565b61ef10146200010c5760405162461bcd60e51b815260206004820152603a60248201527f72656c656173652064617465206d75737420626520617420616e20657861637460448201527f20646174652061742030303a303020474d542b3720285749422900000000000060648201526084015b60405180910390fd5b6200011b62015180836200046a565b61ef1014620001935760405162461bcd60e51b815260206004820152603b60248201527f6d617475726974792064617465206d75737420626520617420616e206578616360448201527f7420646174652061742030303a303020474d542b372028574942290000000000606482015260840162000103565b828211620001f55760405162461bcd60e51b815260206004820152602860248201527f6d617475726974792064617465206d7573742062652061667465722072656c65604482015267617365206461746560c01b606482015260840162000103565b600793909355600891909155600955600680546001600160a01b0319166001600160a01b0390921691909117905550620004ca915050565b8280546200023b906200048d565b90600052602060002090601f0160209004810192826200025f5760008555620002aa565b82601f106200027a57805160ff1916838001178555620002aa565b82800160010185558215620002aa579182015b82811115620002aa5782518255916020019190600101906200028d565b50620002b8929150620002bc565b5090565b5b80821115620002b85760008155600101620002bd565b80516001600160a01b0381168114620002eb57600080fd5b919050565b634e487b7160e01b600052604160045260246000fd5b600082601f8301126200031857600080fd5b81516001600160401b0380821115620003355762000335620002f0565b604051601f8301601f19908116603f01168101908282118183101715620003605762000360620002f0565b816040528381526020925086838588010111156200037d57600080fd5b600091505b83821015620003a1578582018301518183018401529082019062000382565b83821115620003b35760008385830101525b9695505050505050565b600080600080600080600060e0888a031215620003d957600080fd5b620003e488620002d3565b60208901519097506001600160401b03808211156200040257600080fd5b620004108b838c0162000306565b975060408a01519150808211156200042757600080fd5b50620004368a828b0162000306565b955050606088015193506080880151925060a088015191506200045c60c08901620002d3565b905092959891949750929550565b6000826200048857634e487b7160e01b600052601260045260246000fd5b500690565b600181811c90821680620004a257607f821691505b60208210811415620004c457634e487b7160e01b600052602260045260246000fd5b50919050565b6110a580620004da6000396000f3fe608060405234801561001057600080fd5b506004361061010b5760003560e01c80634aa354a0116100a2578063a1da7fab11610071578063a1da7fab14610203578063a457c2d71461020c578063a9059cbb1461021f578063db006a7514610232578063dd62ed3e1461024557600080fd5b80634aa354a0146101c0578063680b4026146101c957806370a08231146101d257806395d89b41146101fb57600080fd5b8063313ce567116100de578063313ce56714610176578063395093511461018557806340c10f191461019857806342966c68146101ad57600080fd5b806306fdde0314610110578063095ea7b31461012e57806318160ddd1461015157806323b872dd14610163575b600080fd5b61011861027e565b6040516101259190610c6c565b60405180910390f35b61014161013c366004610cb4565b610310565b6040519015158152602001610125565b6002545b604051908152602001610125565b610141610171366004610ce0565b610354565b60405160008152602001610125565b610141610193366004610cb4565b61043a565b6101ab6101a6366004610cb4565b610476565b005b6101ab6101bb366004610d21565b6104f1565b61015560075481565b61015560095481565b6101556101e0366004610d3a565b6001600160a01b031660009081526020819052604090205490565b610118610529565b61015560085481565b61014161021a366004610cb4565b610538565b61014161022d366004610cb4565b6105d1565b6101ab610240366004610d21565b610628565b610155610253366004610d5e565b6001600160a01b03918216600090815260016020908152604080832093909416825291909152205490565b60606003805461028d90610d97565b80601f01602080910402602001604051908101604052809291908181526020018280546102b990610d97565b80156103065780601f106102db57610100808354040283529160200191610306565b820191906000526020600020905b8154815290600101906020018083116102e957829003601f168201915b5050505050905090565b600061031b3361068e565b6103405760405162461bcd60e51b815260040161033790610dd2565b60405180910390fd5b61034b338484610726565b50600192915050565b6000806103618533610253565b905060001981146103da57828110156103cd5760405162461bcd60e51b815260206004820152602860248201527f45524332303a207472616e7366657220616d6f756e74206578636565647320616044820152676c6c6f77616e636560c01b6064820152608401610337565b6103da8533858403610726565b6103e38561068e565b6103ff5760405162461bcd60e51b815260040161033790610dd2565b6104088461068e565b6104245760405162461bcd60e51b815260040161033790610e1a565b61042f85858561084b565b506001949350505050565b3360008181526001602090815260408083206001600160a01b0387168452909152812054909161034b918590610471908690610e7a565b610726565b6005546001600160a01b031633146104a05760405162461bcd60e51b815260040161033790610e92565b6104aa8282610a1b565b816001600160a01b03167f9cb9c14f7bc76e3a89b796b091850526236115352a198b1e472f00e91376bbcb826040516104e591815260200190565b60405180910390a25050565b6005546001600160a01b0316331461051b5760405162461bcd60e51b815260040161033790610e92565b610526335b82610afa565b50565b60606004805461028d90610d97565b3360009081526001602090815260408083206001600160a01b0386168452909152812054828110156105ba5760405162461bcd60e51b815260206004820152602560248201527f45524332303a2064656372656173656420616c6c6f77616e63652062656c6f77604482015264207a65726f60d81b6064820152608401610337565b6105c73385858403610726565b5060019392505050565b60006105dc3361068e565b6105f85760405162461bcd60e51b815260040161033790610dd2565b6106018361068e565b61061d5760405162461bcd60e51b815260040161033790610e1a565b61034b33848461084b565b6106313361068e565b61064d5760405162461bcd60e51b815260040161033790610dd2565b61065633610520565b60405181815233907fe6c82503aaaa3db78b70f183901ae8668918f895b3982b2c851cf2ffe0c6c6399060200160405180910390a250565b600654604051637143059f60e01b81526001600160a01b0383811660048301526000928392911690637143059f90602401600060405180830381865afa1580156106dc573d6000803e3d6000fd5b505050506040513d6000823e601f3d908101601f191682016040526107049190810190610f61565b905060018160400151600281111561071e5761071e611042565b149392505050565b6001600160a01b0383166107885760405162461bcd60e51b8152602060048201526024808201527f45524332303a20617070726f76652066726f6d20746865207a65726f206164646044820152637265737360e01b6064820152608401610337565b6001600160a01b0382166107e95760405162461bcd60e51b815260206004820152602260248201527f45524332303a20617070726f766520746f20746865207a65726f206164647265604482015261737360f01b6064820152608401610337565b6001600160a01b0383811660008181526001602090815260408083209487168084529482529182902085905590518481527f8c5be1e5ebec7d5bd14f71427d1e84f3dd0314c0f7b2291e5b200ac8c7c3b92591015b60405180910390a3505050565b6001600160a01b0383166108af5760405162461bcd60e51b815260206004820152602560248201527f45524332303a207472616e736665722066726f6d20746865207a65726f206164604482015264647265737360d81b6064820152608401610337565b6001600160a01b0382166109115760405162461bcd60e51b815260206004820152602360248201527f45524332303a207472616e7366657220746f20746865207a65726f206164647260448201526265737360e81b6064820152608401610337565b6001600160a01b038316600090815260208190526040902054818110156109895760405162461bcd60e51b815260206004820152602660248201527f45524332303a207472616e7366657220616d6f756e7420657863656564732062604482015265616c616e636560d01b6064820152608401610337565b6001600160a01b038085166000908152602081905260408082208585039055918516815290812080548492906109c0908490610e7a565b92505081905550826001600160a01b0316846001600160a01b03167fddf252ad1be2c89b69c2b068fc378daa952ba7f163c4a11628f55a4df523b3ef84604051610a0c91815260200190565b60405180910390a35b50505050565b6001600160a01b038216610a715760405162461bcd60e51b815260206004820152601f60248201527f45524332303a206d696e7420746f20746865207a65726f2061646472657373006044820152606401610337565b8060026000828254610a839190610e7a565b90915550506001600160a01b03821660009081526020819052604081208054839290610ab0908490610e7a565b90915550506040518181526001600160a01b038316906000907fddf252ad1be2c89b69c2b068fc378daa952ba7f163c4a11628f55a4df523b3ef9060200160405180910390a35050565b6001600160a01b038216610b5a5760405162461bcd60e51b815260206004820152602160248201527f45524332303a206275726e2066726f6d20746865207a65726f206164647265736044820152607360f81b6064820152608401610337565b6001600160a01b03821660009081526020819052604090205481811015610bce5760405162461bcd60e51b815260206004820152602260248201527f45524332303a206275726e20616d6f756e7420657863656564732062616c616e604482015261636560f01b6064820152608401610337565b6001600160a01b0383166000908152602081905260408120838303905560028054849290610bfd908490611058565b90915550506040518281526000906001600160a01b038516907fddf252ad1be2c89b69c2b068fc378daa952ba7f163c4a11628f55a4df523b3ef9060200161083e565b60005b83811015610c5b578181015183820152602001610c43565b83811115610a155750506000910152565b6020815260008251806020840152610c8b816040850160208701610c40565b601f01601f19169190910160400192915050565b6001600160a01b038116811461052657600080fd5b60008060408385031215610cc757600080fd5b8235610cd281610c9f565b946020939093013593505050565b600080600060608486031215610cf557600080fd5b8335610d0081610c9f565b92506020840135610d1081610c9f565b929592945050506040919091013590565b600060208284031215610d3357600080fd5b5035919050565b600060208284031215610d4c57600080fd5b8135610d5781610c9f565b9392505050565b60008060408385031215610d7157600080fd5b8235610d7c81610c9f565b91506020830135610d8c81610c9f565b809150509250929050565b600181811c90821680610dab57607f821691505b60208210811415610dcc57634e487b7160e01b600052602260045260246000fd5b50919050565b60208082526028908201527f73656e646572206973206e6f7420616e206163746976652043424443207061726040820152671d1a58da5c185b9d60c21b606082015260800190565b6020808252602a908201527f7265636569766572206973206e6f7420616e2061637469766520434244432070604082015269185c9d1a58da5c185b9d60b21b606082015260800190565b634e487b7160e01b600052601160045260246000fd5b60008219821115610e8d57610e8d610e64565b500190565b6020808252602b908201527f4572726f722c206d73672e73656e64657220646f6573206e6f7420686176652060408201526a6d696e74657220726f6c6560a81b606082015260800190565b634e487b7160e01b600052604160045260246000fd5b6040516060810167ffffffffffffffff81118282101715610f1657610f16610edd565b60405290565b604051601f8201601f1916810167ffffffffffffffff81118282101715610f4557610f45610edd565b604052919050565b805160038110610f5c57600080fd5b919050565b60006020808385031215610f7457600080fd5b825167ffffffffffffffff80821115610f8c57600080fd5b9084019060608287031215610fa057600080fd5b610fa8610ef3565b8251610fb381610c9f565b81528284015182811115610fc657600080fd5b8301601f81018813610fd757600080fd5b805183811115610fe957610fe9610edd565b610ffb601f8201601f19168701610f1c565b9350808452888682840101111561101157600080fd5b61102081878601888501610c40565b5050818482015261103360408401610f4d565b60408201529695505050505050565b634e487b7160e01b600052602160045260246000fd5b60008282101561106a5761106a610e64565b50039056fea264697066735822122077eb5f128396c2a5f811fcc5afaf01322daf61f6ed4b0850125c78a35db6658364736f6c634300080b0033",
  "immutableReferences": {},
  "source": "// SPDX-License-Identifier: MIT\r\npragma solidity ^0.8.0;\r\n\r\nimport \"openzeppelin-solidity/contracts/token/ERC20/ERC20.sol\";\r\nimport \"./CBDC_Dapps.sol\";\r\nimport \"./Participant_Struct.sol\";\r\n\r\ncontract SBN is ERC20 {\r\n    address private minter;\r\n    CBDC_Dapps private cbdc;\r\n\r\n    uint256 public initialUnitPrice;\r\n    uint256 public Timestamp_releaseDate;\r\n    uint256 public Timestamp_maturityDate;\r\n\r\n    event Issuance(address indexed receiver, uint256 value);\r\n    event Redemption(address indexed sender, uint256 value);\r\n\r\n    modifier isMinter() {\r\n        require(\r\n            msg.sender == minter,\r\n            \"Error, msg.sender does not have minter role\"\r\n        );\r\n        _;\r\n    }\r\n\r\n    constructor(\r\n        address _minter,\r\n        string memory _name,\r\n        string memory _symbol,\r\n        uint256 _initialUnitPrice,\r\n        uint256 _releasedDate,\r\n        uint256 _maturityDate,\r\n        address _cbdc\r\n    ) ERC20(_name, _symbol) {\r\n        minter = _minter; //only initially\r\n\r\n        require(\r\n            _releasedDate % 86400 == 61200,\r\n            \"release date must be at an exact date at 00:00 GMT+7 (WIB)\"\r\n        );\r\n        require(\r\n            _maturityDate % 86400 == 61200,\r\n            \"maturity date must be at an exact date at 00:00 GMT+7 (WIB)\"\r\n        );\r\n        require(\r\n            _maturityDate > _releasedDate,\r\n            \"maturity date must be after release date\"\r\n        );\r\n\r\n        initialUnitPrice = _initialUnitPrice;\r\n        Timestamp_releaseDate = _releasedDate;\r\n        Timestamp_maturityDate = _maturityDate;\r\n        cbdc = CBDC_Dapps(_cbdc);\r\n    }\r\n\r\n    function decimals() public view virtual override returns (uint8) {\r\n        return 0;\r\n    }\r\n\r\n    function mint(address _toAddress, uint256 _amount) external isMinter {\r\n        _mint(_toAddress, _amount);\r\n        emit Issuance(_toAddress, _amount);\r\n    }\r\n\r\n    function burn(uint256 _amount) external isMinter {\r\n        _burn(_msgSender(), _amount);\r\n    }\r\n\r\n    function redeem(uint256 _amount) external {\r\n        require(\r\n            _isActiveParticipant(_msgSender()),\r\n            \"sender is not an active CBDC participant\"\r\n        );\r\n        _burn(_msgSender(), _amount);\r\n        emit Redemption(_msgSender(), _amount);\r\n    }\r\n\r\n    function _getParticipant(address _address)\r\n        private\r\n        view\r\n        returns (Participant memory)\r\n    {\r\n        Participant memory _participant = cbdc.getParticipant(_address);\r\n        return _participant;\r\n    }\r\n\r\n    function _isActiveParticipant(address _address)\r\n        private\r\n        view\r\n        returns (bool)\r\n    {\r\n        Participant memory _participant = cbdc.getParticipant(_address);\r\n\r\n        return _participant.status == ParticipantStatus.Active;\r\n    }\r\n\r\n    function transfer(address recipient, uint256 amount)\r\n        public\r\n        override\r\n        returns (bool)\r\n    {\r\n        require(\r\n            _isActiveParticipant(_msgSender()),\r\n            \"sender is not an active CBDC participant\"\r\n        );\r\n        require(\r\n            _isActiveParticipant(recipient),\r\n            \"receiver is not an active CBDC participant\"\r\n        );\r\n\r\n        _transfer(_msgSender(), recipient, amount);\r\n        return true;\r\n    }\r\n\r\n    function approve(address spender, uint256 amount)\r\n        public\r\n        override\r\n        returns (bool)\r\n    {\r\n        require(\r\n            _isActiveParticipant(_msgSender()),\r\n            \"sender is not an active CBDC participant\"\r\n        );\r\n\r\n        _approve(_msgSender(), spender, amount);\r\n        return true;\r\n    }\r\n\r\n    function transferFrom(\r\n        address sender,\r\n        address recipient,\r\n        uint256 amount\r\n    ) public override returns (bool) {\r\n        uint256 currentAllowance = allowance(sender, _msgSender());\r\n        if (currentAllowance != type(uint256).max) {\r\n            require(\r\n                currentAllowance >= amount,\r\n                \"ERC20: transfer amount exceeds allowance\"\r\n            );\r\n            unchecked {\r\n                _approve(sender, _msgSender(), currentAllowance - amount);\r\n            }\r\n        }\r\n\r\n        require(\r\n            _isActiveParticipant(sender),\r\n            \"sender is not an active CBDC participant\"\r\n        );\r\n        require(\r\n            _isActiveParticipant(recipient),\r\n            \"receiver is not an active CBDC participant\"\r\n        );\r\n\r\n        _transfer(sender, recipient, amount);\r\n\r\n        return true;\r\n    }\r\n}\r\n",
  "sourcePath": "C:\\Users\\dkvhe\\OneDrive\\Documents\\vs_code\\Projects\\Final-Year-Project\\test4\\cbdc\\contracts\\SBN.sol",
  "compiler": {
    "name": "solc",
    "version": "0.8.11+commit.d7f03943.Emscripten.clang"
  },
  "schemaVersion": "3.4.16",
  "updatedAt": "2024-04-28T06:05:14.432Z",
  "networkType": "ethereum",
  "devdoc": {
    "kind": "dev",
    "methods": {
      "allowance(address,address)": {
        "details": "See {IERC20-allowance}."
      },
      "approve(address,uint256)": {
        "details": "See {IERC20-approve}. Requirements: - `spender` cannot be the zero address."
      },
      "balanceOf(address)": {
        "details": "See {IERC20-balanceOf}."
      },
      "decimals()": {
        "details": "Returns the number of decimals used to get its user representation. For example, if `decimals` equals `2`, a balance of `505` tokens should be displayed to a user as `5.05` (`505 / 10 ** 2`). Tokens usually opt for a value of 18, imitating the relationship between Ether and Wei. This is the value {ERC20} uses, unless this function is overridden; NOTE: This information is only used for _display_ purposes: it in no way affects any of the arithmetic of the contract, including {IERC20-balanceOf} and {IERC20-transfer}."
      },
      "decreaseAllowance(address,uint256)": {
        "details": "Atomically decreases the allowance granted to `spender` by the caller. This is an alternative to {approve} that can be used as a mitigation for problems described in {IERC20-approve}. Emits an {Approval} event indicating the updated allowance. Requirements: - `spender` cannot be the zero address. - `spender` must have allowance for the caller of at least `subtractedValue`."
      },
      "increaseAllowance(address,uint256)": {
        "details": "Atomically increases the allowance granted to `spender` by the caller. This is an alternative to {approve} that can be used as a mitigation for problems described in {IERC20-approve}. Emits an {Approval} event indicating the updated allowance. Requirements: - `spender` cannot be the zero address."
      },
      "name()": {
        "details": "Returns the name of the token."
      },
      "symbol()": {
        "details": "Returns the symbol of the token, usually a shorter version of the name."
      },
      "totalSupply()": {
        "details": "See {IERC20-totalSupply}."
      },
      "transfer(address,uint256)": {
        "details": "See {IERC20-transfer}. Requirements: - `recipient` cannot be the zero address. - the caller must have a balance of at least `amount`."
      },
      "transferFrom(address,address,uint256)": {
        "details": "See {IERC20-transferFrom}. Emits an {Approval} event indicating the updated allowance. This is not required by the EIP. See the note at the beginning of {ERC20}. Requirements: - `sender` and `recipient` cannot be the zero address. - `sender` must have a balance of at least `amount`. - the caller must have allowance for ``sender``'s tokens of at least `amount`."
      }
    },
    "version": 1
  },
  "userdoc": {
    "kind": "user",
    "methods": {},
    "version": 1
  }
}