{
  "contractName": "SBN",
  "abi": [
    {
      "inputs": [
        {
          "internalType": "address",
          "name": "_minter",
          "type": "address"
        },
        {
          "internalType": "string",
          "name": "_name",
          "type": "string"
        },
        {
          "internalType": "string",
          "name": "_symbol",
          "type": "string"
        },
        {
          "internalType": "uint256",
          "name": "_initialUnitPrice",
          "type": "uint256"
        },
        {
          "internalType": "uint256",
          "name": "_releasedDate",
          "type": "uint256"
        },
        {
          "internalType": "uint256",
          "name": "_maturityDate",
          "type": "uint256"
        },
        {
          "internalType": "address",
          "name": "_cbdc",
          "type": "address"
        }
      ],
      "stateMutability": "nonpayable",
      "type": "constructor"
    },
    {
      "anonymous": false,
      "inputs": [
        {
          "indexed": true,
          "internalType": "address",
          "name": "owner",
          "type": "address"
        },
        {
          "indexed": true,
          "internalType": "address",
          "name": "spender",
          "type": "address"
        },
        {
          "indexed": false,
          "internalType": "uint256",
          "name": "value",
          "type": "uint256"
        }
      ],
      "name": "Approval",
      "type": "event"
    },
    {
      "anonymous": false,
      "inputs": [
        {
          "indexed": true,
          "internalType": "address",
          "name": "receiver",
          "type": "address"
        },
        {
          "indexed": false,
          "internalType": "uint256",
          "name": "value",
          "type": "uint256"
        }
      ],
      "name": "Issuance",
      "type": "event"
    },
    {
      "anonymous": false,
      "inputs": [
        {
          "indexed": true,
          "internalType": "address",
          "name": "sender",
          "type": "address"
        },
        {
          "indexed": false,
          "internalType": "uint256",
          "name": "value",
          "type": "uint256"
        }
      ],
      "name": "Redemption",
      "type": "event"
    },
    {
      "anonymous": false,
      "inputs": [
        {
          "indexed": true,
          "internalType": "address",
          "name": "from",
          "type": "address"
        },
        {
          "indexed": true,
          "internalType": "address",
          "name": "to",
          "type": "address"
        },
        {
          "indexed": false,
          "internalType": "uint256",
          "name": "value",
          "type": "uint256"
        }
      ],
      "name": "Transfer",
      "type": "event"
    },
    {
      "inputs": [],
      "name": "Timestamp_maturityDate",
      "outputs": [
        {
          "internalType": "uint256",
          "name": "",
          "type": "uint256"
        }
      ],
      "stateMutability": "view",
      "type": "function",
      "constant": true
    },
    {
      "inputs": [],
      "name": "Timestamp_releaseDate",
      "outputs": [
        {
          "internalType": "uint256",
          "name": "",
          "type": "uint256"
        }
      ],
      "stateMutability": "view",
      "type": "function",
      "constant": true
    },
    {
      "inputs": [
        {
          "internalType": "address",
          "name": "owner",
          "type": "address"
        },
        {
          "internalType": "address",
          "name": "spender",
          "type": "address"
        }
      ],
      "name": "allowance",
      "outputs": [
        {
          "internalType": "uint256",
          "name": "",
          "type": "uint256"
        }
      ],
      "stateMutability": "view",
      "type": "function",
      "constant": true
    },
    {
      "inputs": [
        {
          "internalType": "address",
          "name": "account",
          "type": "address"
        }
      ],
      "name": "balanceOf",
      "outputs": [
        {
          "internalType": "uint256",
          "name": "",
          "type": "uint256"
        }
      ],
      "stateMutability": "view",
      "type": "function",
      "constant": true
    },
    {
      "inputs": [
        {
          "internalType": "address",
          "name": "spender",
          "type": "address"
        },
        {
          "internalType": "uint256",
          "name": "subtractedValue",
          "type": "uint256"
        }
      ],
      "name": "decreaseAllowance",
      "outputs": [
        {
          "internalType": "bool",
          "name": "",
          "type": "bool"
        }
      ],
      "stateMutability": "nonpayable",
      "type": "function"
    },
    {
      "inputs": [
        {
          "internalType": "address",
          "name": "spender",
          "type": "address"
        },
        {
          "internalType": "uint256",
          "name": "addedValue",
          "type": "uint256"
        }
      ],
      "name": "increaseAllowance",
      "outputs": [
        {
          "internalType": "bool",
          "name": "",
          "type": "bool"
        }
      ],
      "stateMutability": "nonpayable",
      "type": "function"
    },
    {
      "inputs": [],
      "name": "initialUnitPrice",
      "outputs": [
        {
          "internalType": "uint256",
          "name": "",
          "type": "uint256"
        }
      ],
      "stateMutability": "view",
      "type": "function",
      "constant": true
    },
    {
      "inputs": [],
      "name": "name",
      "outputs": [
        {
          "internalType": "string",
          "name": "",
          "type": "string"
        }
      ],
      "stateMutability": "view",
      "type": "function",
      "constant": true
    },
    {
      "inputs": [],
      "name": "symbol",
      "outputs": [
        {
          "internalType": "string",
          "name": "",
          "type": "string"
        }
      ],
      "stateMutability": "view",
      "type": "function",
      "constant": true
    },
    {
      "inputs": [],
      "name": "totalSupply",
      "outputs": [
        {
          "internalType": "uint256",
          "name": "",
          "type": "uint256"
        }
      ],
      "stateMutability": "view",
      "type": "function",
      "constant": true
    },
    {
      "inputs": [],
      "name": "decimals",
      "outputs": [
        {
          "internalType": "uint8",
          "name": "",
          "type": "uint8"
        }
      ],
      "stateMutability": "view",
      "type": "function",
      "constant": true
    },
    {
      "inputs": [
        {
          "internalType": "address",
          "name": "_toAddress",
          "type": "address"
        },
        {
          "internalType": "uint256",
          "name": "_amount",
          "type": "uint256"
        }
      ],
      "name": "mint",
      "outputs": [],
      "stateMutability": "nonpayable",
      "type": "function"
    },
    {
      "inputs": [
        {
          "internalType": "uint256",
          "name": "_amount",
          "type": "uint256"
        }
      ],
      "name": "burn",
      "outputs": [],
      "stateMutability": "nonpayable",
      "type": "function"
    },
    {
      "inputs": [
        {
          "internalType": "uint256",
          "name": "_amount",
          "type": "uint256"
        }
      ],
      "name": "redeem",
      "outputs": [],
      "stateMutability": "nonpayable",
      "type": "function"
    },
    {
      "inputs": [
        {
          "internalType": "address",
          "name": "recipient",
          "type": "address"
        },
        {
          "internalType": "uint256",
          "name": "amount",
          "type": "uint256"
        }
      ],
      "name": "transfer",
      "outputs": [
        {
          "internalType": "bool",
          "name": "",
          "type": "bool"
        }
      ],
      "stateMutability": "nonpayable",
      "type": "function"
    },
    {
      "inputs": [
        {
          "internalType": "address",
          "name": "spender",
          "type": "address"
        },
        {
          "internalType": "uint256",
          "name": "amount",
          "type": "uint256"
        }
      ],
      "name": "approve",
      "outputs": [
        {
          "internalType": "bool",
          "name": "",
          "type": "bool"
        }
      ],
      "stateMutability": "nonpayable",
      "type": "function"
    },
    {
      "inputs": [
        {
          "internalType": "address",
          "name": "sender",
          "type": "address"
        },
        {
          "internalType": "address",
          "name": "recipient",
          "type": "address"
        },
        {
          "internalType": "uint256",
          "name": "amount",
          "type": "uint256"
        }
      ],
      "name": "transferFrom",
      "outputs": [
        {
          "internalType": "bool",
          "name": "",
          "type": "bool"
        }
      ],
      "stateMutability": "nonpayable",
      "type": "function"
    }
  ],
  "bytecode": "0x60806040523480156200001157600080fd5b50604051620014d1380380620014d18339810160408190526200003491620003bd565b8551869086906200004d9060039060208501906200022d565b508051620000639060049060208401906200022d565b5050600580546001600160a01b0319166001600160a01b038a16179055506200009062015180846200046a565b61ef10146200010c5760405162461bcd60e51b815260206004820152603a60248201527f72656c656173652064617465206d75737420626520617420616e20657861637460448201527f20646174652061742030303a303020474d542b3720285749422900000000000060648201526084015b60405180910390fd5b6200011b62015180836200046a565b61ef1014620001935760405162461bcd60e51b815260206004820152603b60248201527f6d617475726974792064617465206d75737420626520617420616e206578616360448201527f7420646174652061742030303a303020474d542b372028574942290000000000606482015260840162000103565b828211620001f55760405162461bcd60e51b815260206004820152602860248201527f6d617475726974792064617465206d7573742062652061667465722072656c65604482015267617365206461746560c01b606482015260840162000103565b600793909355600891909155600955600680546001600160a01b0319166001600160a01b0390921691909117905550620004ca915050565b8280546200023b906200048d565b90600052602060002090601f0160209004810192826200025f5760008555620002aa565b82601f106200027a57805160ff1916838001178555620002aa565b82800160010185558215620002aa579182015b82811115620002aa5782518255916020019190600101906200028d565b50620002b8929150620002bc565b5090565b5b80821115620002b85760008155600101620002bd565b80516001600160a01b0381168114620002eb57600080fd5b919050565b634e487b7160e01b600052604160045260246000fd5b600082601f8301126200031857600080fd5b81516001600160401b0380821115620003355762000335620002f0565b604051601f8301601f19908116603f01168101908282118183101715620003605762000360620002f0565b816040528381526020925086838588010111156200037d57600080fd5b600091505b83821015620003a1578582018301518183018401529082019062000382565b83821115620003b35760008385830101525b9695505050505050565b600080600080600080600060e0888a031215620003d957600080fd5b620003e488620002d3565b60208901519097506001600160401b03808211156200040257600080fd5b620004108b838c0162000306565b975060408a01519150808211156200042757600080fd5b50620004368a828b0162000306565b955050606088015193506080880151925060a088015191506200045c60c08901620002d3565b905092959891949750929550565b6000826200048857634e487b7160e01b600052601260045260246000fd5b500690565b600181811c90821680620004a257607f821691505b60208210811415620004c457634e487b7160e01b600052602260045260246000fd5b50919050565b610ff780620004da6000396000f3fe608060405234801561001057600080fd5b506004361061010b5760003560e01c80634aa354a0116100a2578063a1da7fab11610071578063a1da7fab14610203578063a457c2d71461020c578063a9059cbb1461021f578063db006a7514610232578063dd62ed3e1461024557600080fd5b80634aa354a0146101c0578063680b4026146101c957806370a08231146101d257806395d89b41146101fb57600080fd5b8063313ce567116100de578063313ce56714610176578063395093511461018557806340c10f191461019857806342966c68146101ad57600080fd5b806306fdde0314610110578063095ea7b31461012e57806318160ddd1461015157806323b872dd14610163575b600080fd5b610118610258565b6040516101259190610bdd565b60405180910390f35b61014161013c366004610c25565b6102ea565b6040519015158152602001610125565b6002545b604051908152602001610125565b610141610171366004610c51565b61032e565b60405160008152602001610125565b610141610193366004610c25565b610414565b6101ab6101a6366004610c25565b610440565b005b6101ab6101bb366004610c92565b6104bb565b61015560075481565b61015560095481565b6101556101e0366004610cab565b6001600160a01b031660009081526020819052604090205490565b6101186104f3565b61015560085481565b61014161021a366004610c25565b610502565b61014161022d366004610c25565b61057d565b6101ab610240366004610c92565b6105d4565b610155610253366004610ccf565b61063a565b60606003805461026790610d08565b80601f016020809104026020016040519081016040528092919081815260200182805461029390610d08565b80156102e05780601f106102b5576101008083540402835291602001916102e0565b820191906000526020600020905b8154815290600101906020018083116102c357829003601f168201915b5050505050905090565b60006102f533610665565b61031a5760405162461bcd60e51b815260040161031190610d43565b60405180910390fd5b6103253384846106fd565b50600192915050565b60008061033b853361063a565b905060001981146103b457828110156103a75760405162461bcd60e51b815260206004820152602860248201527f45524332303a207472616e7366657220616d6f756e74206578636565647320616044820152676c6c6f77616e636560c01b6064820152608401610311565b6103b485338584036106fd565b6103bd85610665565b6103d95760405162461bcd60e51b815260040161031190610d43565b6103e284610665565b6103fe5760405162461bcd60e51b815260040161031190610d8b565b610409858585610822565b506001949350505050565b600033610436818585610427838361063a565b6104319190610dd5565b6106fd565b5060019392505050565b6005546001600160a01b0316331461046a5760405162461bcd60e51b815260040161031190610dfb565b61047482826109c8565b816001600160a01b03167f9cb9c14f7bc76e3a89b796b091850526236115352a198b1e472f00e91376bbcb826040516104af91815260200190565b60405180910390a25050565b6005546001600160a01b031633146104e55760405162461bcd60e51b815260040161031190610dfb565b6104f0335b82610a87565b50565b60606004805461026790610d08565b60003381610510828661063a565b9050838110156105705760405162461bcd60e51b815260206004820152602560248201527f45524332303a2064656372656173656420616c6c6f77616e63652062656c6f77604482015264207a65726f60d81b6064820152608401610311565b61040982868684036106fd565b600061058833610665565b6105a45760405162461bcd60e51b815260040161031190610d43565b6105ad83610665565b6105c95760405162461bcd60e51b815260040161031190610d8b565b610325338484610822565b6105dd33610665565b6105f95760405162461bcd60e51b815260040161031190610d43565b610602336104ea565b60405181815233907fe6c82503aaaa3db78b70f183901ae8668918f895b3982b2c851cf2ffe0c6c6399060200160405180910390a250565b6001600160a01b03918216600090815260016020908152604080832093909416825291909152205490565b600654604051637143059f60e01b81526001600160a01b0383811660048301526000928392911690637143059f90602401600060405180830381865afa1580156106b3573d6000803e3d6000fd5b505050506040513d6000823e601f3d908101601f191682016040526106db9190810190610eca565b90506001816040015160028111156106f5576106f5610fab565b149392505050565b6001600160a01b03831661075f5760405162461bcd60e51b8152602060048201526024808201527f45524332303a20617070726f76652066726f6d20746865207a65726f206164646044820152637265737360e01b6064820152608401610311565b6001600160a01b0382166107c05760405162461bcd60e51b815260206004820152602260248201527f45524332303a20617070726f766520746f20746865207a65726f206164647265604482015261737360f01b6064820152608401610311565b6001600160a01b0383811660008181526001602090815260408083209487168084529482529182902085905590518481527f8c5be1e5ebec7d5bd14f71427d1e84f3dd0314c0f7b2291e5b200ac8c7c3b92591015b60405180910390a3505050565b6001600160a01b0383166108865760405162461bcd60e51b815260206004820152602560248201527f45524332303a207472616e736665722066726f6d20746865207a65726f206164604482015264647265737360d81b6064820152608401610311565b6001600160a01b0382166108e85760405162461bcd60e51b815260206004820152602360248201527f45524332303a207472616e7366657220746f20746865207a65726f206164647260448201526265737360e81b6064820152608401610311565b6001600160a01b038316600090815260208190526040902054818110156109605760405162461bcd60e51b815260206004820152602660248201527f45524332303a207472616e7366657220616d6f756e7420657863656564732062604482015265616c616e636560d01b6064820152608401610311565b6001600160a01b03848116600081815260208181526040808320878703905593871680835291849020805487019055925185815290927fddf252ad1be2c89b69c2b068fc378daa952ba7f163c4a11628f55a4df523b3ef910160405180910390a35b50505050565b6001600160a01b038216610a1e5760405162461bcd60e51b815260206004820152601f60248201527f45524332303a206d696e7420746f20746865207a65726f2061646472657373006044820152606401610311565b8060026000828254610a309190610dd5565b90915550506001600160a01b038216600081815260208181526040808320805486019055518481527fddf252ad1be2c89b69c2b068fc378daa952ba7f163c4a11628f55a4df523b3ef910160405180910390a35050565b6001600160a01b038216610ae75760405162461bcd60e51b815260206004820152602160248201527f45524332303a206275726e2066726f6d20746865207a65726f206164647265736044820152607360f81b6064820152608401610311565b6001600160a01b03821660009081526020819052604090205481811015610b5b5760405162461bcd60e51b815260206004820152602260248201527f45524332303a206275726e20616d6f756e7420657863656564732062616c616e604482015261636560f01b6064820152608401610311565b6001600160a01b0383166000818152602081815260408083208686039055600280548790039055518581529192917fddf252ad1be2c89b69c2b068fc378daa952ba7f163c4a11628f55a4df523b3ef9101610815565b60005b83811015610bcc578181015183820152602001610bb4565b838111156109c25750506000910152565b6020815260008251806020840152610bfc816040850160208701610bb1565b601f01601f19169190910160400192915050565b6001600160a01b03811681146104f057600080fd5b60008060408385031215610c3857600080fd5b8235610c4381610c10565b946020939093013593505050565b600080600060608486031215610c6657600080fd5b8335610c7181610c10565b92506020840135610c8181610c10565b929592945050506040919091013590565b600060208284031215610ca457600080fd5b5035919050565b600060208284031215610cbd57600080fd5b8135610cc881610c10565b9392505050565b60008060408385031215610ce257600080fd5b8235610ced81610c10565b91506020830135610cfd81610c10565b809150509250929050565b600181811c90821680610d1c57607f821691505b60208210811415610d3d57634e487b7160e01b600052602260045260246000fd5b50919050565b60208082526028908201527f73656e646572206973206e6f7420616e206163746976652043424443207061726040820152671d1a58da5c185b9d60c21b606082015260800190565b6020808252602a908201527f7265636569766572206973206e6f7420616e2061637469766520434244432070604082015269185c9d1a58da5c185b9d60b21b606082015260800190565b60008219821115610df657634e487b7160e01b600052601160045260246000fd5b500190565b6020808252602b908201527f4572726f722c206d73672e73656e64657220646f6573206e6f7420686176652060408201526a6d696e74657220726f6c6560a81b606082015260800190565b634e487b7160e01b600052604160045260246000fd5b6040516060810167ffffffffffffffff81118282101715610e7f57610e7f610e46565b60405290565b604051601f8201601f1916810167ffffffffffffffff81118282101715610eae57610eae610e46565b604052919050565b805160038110610ec557600080fd5b919050565b60006020808385031215610edd57600080fd5b825167ffffffffffffffff80821115610ef557600080fd5b9084019060608287031215610f0957600080fd5b610f11610e5c565b8251610f1c81610c10565b81528284015182811115610f2f57600080fd5b8301601f81018813610f4057600080fd5b805183811115610f5257610f52610e46565b610f64601f8201601f19168701610e85565b93508084528886828401011115610f7a57600080fd5b610f8981878601888501610bb1565b50508184820152610f9c60408401610eb6565b60408201529695505050505050565b634e487b7160e01b600052602160045260246000fdfea26469706673582212205ae19c30b6f47e1620e02e1b67d812cdd9fc3cd8d4dd2abb371de1aeac263ccf64736f6c634300080b0033",
  "immutableReferences": {},
  "source": "// SPDX-License-Identifier: MIT\npragma solidity 0.8.11;\n\nimport \"openzeppelin-solidity/contracts/token/ERC20/ERC20.sol\";\nimport \"./CBDC_Dapps.sol\";\nimport \"./Participant_Struct.sol\";\n\ncontract SBN is ERC20 {\n    address private minter;\n    CBDC_Dapps private cbdc;\n\n    uint256 public initialUnitPrice;\n    uint256 public Timestamp_releaseDate;\n    uint256 public Timestamp_maturityDate;\n\n    event Issuance(address indexed receiver, uint256 value);\n    event Redemption(address indexed sender, uint256 value);\n\n    modifier isMinter() {\n        require(\n            msg.sender == minter,\n            \"Error, msg.sender does not have minter role\"\n        );\n        _;\n    }\n\n    constructor(\n        address _minter,\n        string memory _name,\n        string memory _symbol,\n        uint256 _initialUnitPrice,\n        uint256 _releasedDate,\n        uint256 _maturityDate,\n        address _cbdc\n    ) ERC20(_name, _symbol) {\n        minter = _minter; //only initially\n\n        require(\n            _releasedDate % 86400 == 61200,\n            \"release date must be at an exact date at 00:00 GMT+7 (WIB)\"\n        );\n        require(\n            _maturityDate % 86400 == 61200,\n            \"maturity date must be at an exact date at 00:00 GMT+7 (WIB)\"\n        );\n        require(\n            _maturityDate > _releasedDate,\n            \"maturity date must be after release date\"\n        );\n\n        initialUnitPrice = _initialUnitPrice;\n        Timestamp_releaseDate = _releasedDate;\n        Timestamp_maturityDate = _maturityDate;\n        cbdc = CBDC_Dapps(_cbdc);\n    }\n\n    function decimals() public view virtual override returns (uint8) {\n        return 0;\n    }\n\n    function mint(address _toAddress, uint256 _amount) external isMinter {\n        _mint(_toAddress, _amount);\n        emit Issuance(_toAddress, _amount);\n    }\n\n    function burn(uint256 _amount) external isMinter {\n        _burn(_msgSender(), _amount);\n    }\n\n    function redeem(uint256 _amount) external {\n        require(\n            _isActiveParticipant(_msgSender()),\n            \"sender is not an active CBDC participant\"\n        );\n        _burn(_msgSender(), _amount);\n        emit Redemption(_msgSender(), _amount);\n    }\n\n    function _getParticipant(\n        address _address\n    ) private view returns (Participant memory) {\n        Participant memory _participant = cbdc.getParticipant(_address);\n        return _participant;\n    }\n\n    function _isActiveParticipant(\n        address _address\n    ) private view returns (bool) {\n        Participant memory _participant = cbdc.getParticipant(_address);\n\n        return _participant.status == ParticipantStatus.Active;\n    }\n\n    function transfer(\n        address recipient,\n        uint256 amount\n    ) public override returns (bool) {\n        require(\n            _isActiveParticipant(_msgSender()),\n            \"sender is not an active CBDC participant\"\n        );\n        require(\n            _isActiveParticipant(recipient),\n            \"receiver is not an active CBDC participant\"\n        );\n\n        _transfer(_msgSender(), recipient, amount);\n        return true;\n    }\n\n    function approve(\n        address spender,\n        uint256 amount\n    ) public override returns (bool) {\n        require(\n            _isActiveParticipant(_msgSender()),\n            \"sender is not an active CBDC participant\"\n        );\n\n        _approve(_msgSender(), spender, amount);\n        return true;\n    }\n\n    function transferFrom(\n        address sender,\n        address recipient,\n        uint256 amount\n    ) public override returns (bool) {\n        uint256 currentAllowance = allowance(sender, _msgSender());\n        if (currentAllowance != type(uint256).max) {\n            require(\n                currentAllowance >= amount,\n                \"ERC20: transfer amount exceeds allowance\"\n            );\n            unchecked {\n                _approve(sender, _msgSender(), currentAllowance - amount);\n            }\n        }\n\n        require(\n            _isActiveParticipant(sender),\n            \"sender is not an active CBDC participant\"\n        );\n        require(\n            _isActiveParticipant(recipient),\n            \"receiver is not an active CBDC participant\"\n        );\n\n        _transfer(sender, recipient, amount);\n\n        return true;\n    }\n}\n",
  "sourcePath": "/home/dkvhem/Documents/Final-Year-Project/test/test2/cbdc/contracts/SBN.sol",
  "compiler": {
    "name": "solc",
    "version": "0.8.11+commit.d7f03943.Emscripten.clang"
  },
  "schemaVersion": "3.4.4",
  "updatedAt": "2024-04-22T16:15:00.178Z",
  "networkType": "ethereum",
  "devdoc": {
    "kind": "dev",
    "methods": {
      "allowance(address,address)": {
        "details": "See {IERC20-allowance}."
      },
      "approve(address,uint256)": {
        "details": "See {IERC20-approve}. NOTE: If `amount` is the maximum `uint256`, the allowance is not updated on `transferFrom`. This is semantically equivalent to an infinite approval. Requirements: - `spender` cannot be the zero address."
      },
      "balanceOf(address)": {
        "details": "See {IERC20-balanceOf}."
      },
      "decimals()": {
        "details": "Returns the number of decimals used to get its user representation. For example, if `decimals` equals `2`, a balance of `505` tokens should be displayed to a user as `5.05` (`505 / 10 ** 2`). Tokens usually opt for a value of 18, imitating the relationship between Ether and Wei. This is the value {ERC20} uses, unless this function is overridden; NOTE: This information is only used for _display_ purposes: it in no way affects any of the arithmetic of the contract, including {IERC20-balanceOf} and {IERC20-transfer}."
      },
      "decreaseAllowance(address,uint256)": {
        "details": "Atomically decreases the allowance granted to `spender` by the caller. This is an alternative to {approve} that can be used as a mitigation for problems described in {IERC20-approve}. Emits an {Approval} event indicating the updated allowance. Requirements: - `spender` cannot be the zero address. - `spender` must have allowance for the caller of at least `subtractedValue`."
      },
      "increaseAllowance(address,uint256)": {
        "details": "Atomically increases the allowance granted to `spender` by the caller. This is an alternative to {approve} that can be used as a mitigation for problems described in {IERC20-approve}. Emits an {Approval} event indicating the updated allowance. Requirements: - `spender` cannot be the zero address."
      },
      "name()": {
        "details": "Returns the name of the token."
      },
      "symbol()": {
        "details": "Returns the symbol of the token, usually a shorter version of the name."
      },
      "totalSupply()": {
        "details": "See {IERC20-totalSupply}."
      }
    },
    "version": 1
  },
  "userdoc": {
    "kind": "user",
    "methods": {},
    "version": 1
  }
}